{
  "_format": "hh-sol-artifact-1",
  "contractName": "UnionFactory",
  "sourceName": "contracts/UnionFactory.sol",
  "abi": [
    {
      "inputs": [],
      "stateMutability": "nonpayable",
      "type": "constructor"
    },
    {
      "anonymous": false,
      "inputs": [
        {
          "indexed": false,
          "internalType": "int256",
          "name": "people",
          "type": "int256"
        },
        {
          "indexed": false,
          "internalType": "int256",
          "name": "price",
          "type": "int256"
        },
        {
          "indexed": false,
          "internalType": "string",
          "name": "name",
          "type": "string"
        }
      ],
      "name": "UnionCreated",
      "type": "event"
    },
    {
      "inputs": [
        {
          "internalType": "uint256",
          "name": "",
          "type": "uint256"
        }
      ],
      "name": "allUnions",
      "outputs": [
        {
          "internalType": "address",
          "name": "",
          "type": "address"
        }
      ],
      "stateMutability": "view",
      "type": "function"
    },
    {
      "inputs": [
        {
          "internalType": "address",
          "name": "token",
          "type": "address"
        },
        {
          "internalType": "int256",
          "name": "people",
          "type": "int256"
        },
        {
          "internalType": "int256",
          "name": "amount",
          "type": "int256"
        },
        {
          "internalType": "string",
          "name": "name",
          "type": "string"
        },
        {
          "internalType": "address",
          "name": "swap_cont",
          "type": "address"
        },
        {
          "internalType": "address",
          "name": "list_cont",
          "type": "address"
        },
        {
          "internalType": "address",
          "name": "factory_cont",
          "type": "address"
        }
      ],
      "name": "createUnion",
      "outputs": [
        {
          "internalType": "address",
          "name": "",
          "type": "address"
        }
      ],
      "stateMutability": "nonpayable",
      "type": "function"
    },
    {
      "inputs": [
        {
          "internalType": "string",
          "name": "name",
          "type": "string"
        }
      ],
      "name": "deleteAllUnion",
      "outputs": [],
      "stateMutability": "nonpayable",
      "type": "function"
    },
    {
      "inputs": [
        {
          "internalType": "string",
          "name": "name",
          "type": "string"
        }
      ],
      "name": "deleteGetUnion",
      "outputs": [],
      "stateMutability": "nonpayable",
      "type": "function"
    },
    {
      "inputs": [],
      "name": "getAllUnions",
      "outputs": [
        {
          "internalType": "address[]",
          "name": "",
          "type": "address[]"
        }
      ],
      "stateMutability": "view",
      "type": "function"
    },
    {
      "inputs": [
        {
          "internalType": "string",
          "name": "",
          "type": "string"
        }
      ],
      "name": "getUnion",
      "outputs": [
        {
          "internalType": "address",
          "name": "",
          "type": "address"
        }
      ],
      "stateMutability": "view",
      "type": "function"
    }
  ],
  "bytecode": "0x608060405234801561001057600080fd5b50614528806100206000396000f3fe608060405234801561001057600080fd5b50600436106100625760003560e01c806321a8dcd1146100675780633dd3b4be146100975780634f64b797146100b557806383588a92146100e557806392338ac9146101015780639381551c1461011d575b600080fd5b610081600480360381019061007c9190610881565b61014d565b60405161008e9190610a3e565b60405180910390f35b61009f610196565b6040516100ac9190610acf565b60405180910390f35b6100cf60048036038101906100ca91906107c3565b610224565b6040516100dc9190610a3e565b60405180910390f35b6100ff60048036038101906100fa9190610881565b610480565b005b61011b60048036038101906101169190610881565b6104c4565b005b610137600480360381019061013291906108ca565b6106c8565b6040516101449190610a3e565b60405180910390f35b6000818051602081018201805184825260208301602085012081835280955050505050506000915054906101000a900473ffffffffffffffffffffffffffffffffffffffff1681565b6060600180548060200260200160405190810160405280929190818152602001828054801561021a57602002820191906000526020600020905b8160009054906101000a900473ffffffffffffffffffffffffffffffffffffffff1673ffffffffffffffffffffffffffffffffffffffff16815260200190600101908083116101d0575b5050505050905090565b60008073ffffffffffffffffffffffffffffffffffffffff1660008660405161024d9190610a27565b908152602001604051809103902060009054906101000a900473ffffffffffffffffffffffffffffffffffffffff1673ffffffffffffffffffffffffffffffffffffffff16146102d2576040517f08c379a00000000000000000000000000000000000000000000000000000000081526004016102c990610b2f565b60405180910390fd5b60006040516102e090610707565b604051809103906000f0801580156102fc573d6000803e3d6000fd5b5090508073ffffffffffffffffffffffffffffffffffffffff1663e512b1148a8a8a8a8a8a8a6040518863ffffffff1660e01b81526004016103449796959493929190610a59565b600060405180830381600087803b15801561035e57600080fd5b505af1158015610372573d6000803e3d6000fd5b50505050806000876040516103879190610a27565b908152602001604051809103902060006101000a81548173ffffffffffffffffffffffffffffffffffffffff021916908373ffffffffffffffffffffffffffffffffffffffff1602179055506001819080600181540180825580915050600190039060005260206000200160009091909190916101000a81548173ffffffffffffffffffffffffffffffffffffffff021916908373ffffffffffffffffffffffffffffffffffffffff1602179055507f772a86d7c3b720aea41abcd3eb293674d2481090103a42f670d177df2640df7488888860405161046993929190610af1565b60405180910390a180915050979650505050505050565b6000816040516104909190610a27565b908152602001604051809103902060006101000a81549073ffffffffffffffffffffffffffffffffffffffff021916905550565b600080600090505b6001805490508110156105a4576000836040516104e99190610a27565b908152602001604051809103902060009054906101000a900473ffffffffffffffffffffffffffffffffffffffff1673ffffffffffffffffffffffffffffffffffffffff166001828154811061054257610541610def565b5b9060005260206000200160009054906101000a900473ffffffffffffffffffffffffffffffffffffffff1673ffffffffffffffffffffffffffffffffffffffff161415610591578091506105a4565b808061059c90610d48565b9150506104cc565b5060008190505b600180805490506105bc9190610c5b565b81101561067c57600180826105d19190610c05565b815481106105e2576105e1610def565b5b9060005260206000200160009054906101000a900473ffffffffffffffffffffffffffffffffffffffff166001828154811061062157610620610def565b5b9060005260206000200160006101000a81548173ffffffffffffffffffffffffffffffffffffffff021916908373ffffffffffffffffffffffffffffffffffffffff160217905550808061067490610d48565b9150506105ab565b50600180548061068f5761068e610dc0565b5b6001900381819060005260206000200160006101000a81549073ffffffffffffffffffffffffffffffffffffffff021916905590555050565b600181815481106106d857600080fd5b906000526020600020016000915054906101000a900473ffffffffffffffffffffffffffffffffffffffff1681565b61361280610ee183390190565b600061072761072284610b74565b610b4f565b90508281526020810184848401111561074357610742610e52565b5b61074e848285610cd5565b509392505050565b60008135905061076581610e9b565b92915050565b60008135905061077a81610eb2565b92915050565b600082601f83011261079557610794610e4d565b5b81356107a5848260208601610714565b91505092915050565b6000813590506107bd81610ec9565b92915050565b600080600080600080600060e0888a0312156107e2576107e1610e5c565b5b60006107f08a828b01610756565b97505060206108018a828b0161076b565b96505060406108128a828b0161076b565b955050606088013567ffffffffffffffff81111561083357610832610e57565b5b61083f8a828b01610780565b94505060806108508a828b01610756565b93505060a06108618a828b01610756565b92505060c06108728a828b01610756565b91505092959891949750929550565b60006020828403121561089757610896610e5c565b5b600082013567ffffffffffffffff8111156108b5576108b4610e57565b5b6108c184828501610780565b91505092915050565b6000602082840312156108e0576108df610e5c565b5b60006108ee848285016107ae565b91505092915050565b6000610903838361090f565b60208301905092915050565b61091881610c8f565b82525050565b61092781610c8f565b82525050565b600061093882610bb5565b6109428185610bd8565b935061094d83610ba5565b8060005b8381101561097e57815161096588826108f7565b975061097083610bcb565b925050600181019050610951565b5085935050505092915050565b61099481610ca1565b82525050565b60006109a582610bc0565b6109af8185610be9565b93506109bf818560208601610ce4565b6109c881610e61565b840191505092915050565b60006109de82610bc0565b6109e88185610bfa565b93506109f8818560208601610ce4565b80840191505092915050565b6000610a11600c83610be9565b9150610a1c82610e72565b602082019050919050565b6000610a3382846109d3565b915081905092915050565b6000602082019050610a53600083018461091e565b92915050565b600060e082019050610a6e600083018a61091e565b610a7b602083018961098b565b610a88604083018861098b565b8181036060830152610a9a818761099a565b9050610aa9608083018661091e565b610ab660a083018561091e565b610ac360c083018461091e565b98975050505050505050565b60006020820190508181036000830152610ae9818461092d565b905092915050565b6000606082019050610b06600083018661098b565b610b13602083018561098b565b8181036040830152610b25818461099a565b9050949350505050565b60006020820190508181036000830152610b4881610a04565b9050919050565b6000610b59610b6a565b9050610b658282610d17565b919050565b6000604051905090565b600067ffffffffffffffff821115610b8f57610b8e610e1e565b5b610b9882610e61565b9050602081019050919050565b6000819050602082019050919050565b600081519050919050565b600081519050919050565b6000602082019050919050565b600082825260208201905092915050565b600082825260208201905092915050565b600081905092915050565b6000610c1082610ccb565b9150610c1b83610ccb565b9250827fffffffffffffffffffffffffffffffffffffffffffffffffffffffffffffffff03821115610c5057610c4f610d91565b5b828201905092915050565b6000610c6682610ccb565b9150610c7183610ccb565b925082821015610c8457610c83610d91565b5b828203905092915050565b6000610c9a82610cab565b9050919050565b6000819050919050565b600073ffffffffffffffffffffffffffffffffffffffff82169050919050565b6000819050919050565b82818337600083830152505050565b60005b83811015610d02578082015181840152602081019050610ce7565b83811115610d11576000848401525b50505050565b610d2082610e61565b810181811067ffffffffffffffff82111715610d3f57610d3e610e1e565b5b80604052505050565b6000610d5382610ccb565b91507fffffffffffffffffffffffffffffffffffffffffffffffffffffffffffffffff821415610d8657610d85610d91565b5b600182019050919050565b7f4e487b7100000000000000000000000000000000000000000000000000000000600052601160045260246000fd5b7f4e487b7100000000000000000000000000000000000000000000000000000000600052603160045260246000fd5b7f4e487b7100000000000000000000000000000000000000000000000000000000600052603260045260246000fd5b7f4e487b7100000000000000000000000000000000000000000000000000000000600052604160045260246000fd5b600080fd5b600080fd5b600080fd5b600080fd5b6000601f19601f8301169050919050565b7f554e494f4e5f4558495354530000000000000000000000000000000000000000600082015250565b610ea481610c8f565b8114610eaf57600080fd5b50565b610ebb81610ca1565b8114610ec657600080fd5b50565b610ed281610ccb565b8114610edd57600080fd5b5056fe608060405234801561001057600080fd5b50336000806101000a81548173ffffffffffffffffffffffffffffffffffffffff021916908373ffffffffffffffffffffffffffffffffffffffff1602179055506135b2806100606000396000f3fe60806040526004361061014b5760003560e01c8063a194cf33116100b6578063ca0cc6211161006f578063ca0cc62114610447578063e2b1886814610472578063e512b114146104af578063fc0c546a146104d8578063fd2f911814610503578063ffa688391461052e5761014b565b8063a194cf3314610343578063aa8c217c14610384578063babd3d9a146103af578063c233d30c146103da578063c45a015514610405578063c4908bd0146104305761014b565b80636eb4a30c116101085780636eb4a30c146102435780636eba2b131461025a5780636fe830da14610297578063722713f7146102c2578063783f6af5146102ed578063786716fe146103185761014b565b806306661abd1461015057806306fdde031461017b578063146ca531146101a657806314e1db5c146101d15780632e388be4146101fc578063438e244414610227575b600080fd5b34801561015c57600080fd5b50610165610559565b6040516101729190612a48565b60405180910390f35b34801561018757600080fd5b5061019061055f565b60405161019d9190612804565b60405180910390f35b3480156101b257600080fd5b506101bb6105ed565b6040516101c891906127e9565b60405180910390f35b3480156101dd57600080fd5b506101e66105f3565b6040516101f39190612761565b60405180910390f35b34801561020857600080fd5b506102116106f8565b60405161021e919061266a565b60405180910390f35b610241600480360381019061023c91906121b8565b61071e565b005b34801561024f57600080fd5b50610258610da2565b005b34801561026657600080fd5b50610281600480360381019061027c91906120a0565b610f6c565b60405161028e91906127e9565b60405180910390f35b3480156102a357600080fd5b506102ac611025565b6040516102b99190612783565b60405180910390f35b3480156102ce57600080fd5b506102d7611038565b6040516102e49190612a48565b60405180910390f35b3480156102f957600080fd5b50610302611040565b60405161030f91906127e9565b60405180910390f35b34801561032457600080fd5b5061032d611046565b60405161033a9190612a48565b60405180910390f35b34801561034f57600080fd5b5061036a600480360381019061036591906121b8565b61104c565b60405161037b959493929190612685565b60405180910390f35b34801561039057600080fd5b506103996110bc565b6040516103a691906127e9565b60405180910390f35b3480156103bb57600080fd5b506103c46110c2565b6040516103d19190612783565b60405180910390f35b3480156103e657600080fd5b506103ef6110d5565b6040516103fc919061266a565b60405180910390f35b34801561041157600080fd5b5061041a6110fb565b604051610427919061266a565b60405180910390f35b34801561043c57600080fd5b5061044561111f565b005b34801561045357600080fd5b5061045c611259565b604051610469919061266a565b60405180910390f35b34801561047e57600080fd5b50610499600480360381019061049491906120a0565b61127f565b6040516104a69190612783565b60405180910390f35b3480156104bb57600080fd5b506104d660048036038101906104d191906120cd565b61129f565b005b3480156104e457600080fd5b506104ed61156b565b6040516104fa91906127ce565b60405180910390f35b34801561050f57600080fd5b50610518611591565b60405161052591906127e9565b60405180910390f35b34801561053a57600080fd5b50610543611597565b6040516105509190612a48565b60405180910390f35b600a5481565b6007805461056c90612f9c565b80601f016020809104026020016040519081016040528092919081815260200182805461059890612f9c565b80156105e55780601f106105ba576101008083540402835291602001916105e5565b820191906000526020600020905b8154815290600101906020018083116105c857829003601f168201915b505050505081565b60095481565b6060600060055467ffffffffffffffff8111156106135761061261317e565b5b6040519080825280602002602001820160405280156106415781602001602082028036833780820191505090505b50905060005b6005548112156106f057600073ffffffffffffffffffffffffffffffffffffffff16600e600083815260200190815260200160002060000160009054906101000a900473ffffffffffffffffffffffffffffffffffffffff1673ffffffffffffffffffffffffffffffffffffffff16146106dd5760018282815181106106d0576106cf61314f565b5b6020026020010181815250505b80806106e890612fff565b915050610647565b508091505090565b600360009054906101000a900473ffffffffffffffffffffffffffffffffffffffff1681565b60008113801561073057506005548113155b61076f576040517f08c379a000000000000000000000000000000000000000000000000000000000815260040161076690612868565b60405180910390fd5b600073ffffffffffffffffffffffffffffffffffffffff16600e60006001846107989190612de6565b815260200190815260200160002060000160009054906101000a900473ffffffffffffffffffffffffffffffffffffffff1673ffffffffffffffffffffffffffffffffffffffff1614610820576040517f08c379a0000000000000000000000000000000000000000000000000000000008152600401610817906128a8565b60405180910390fd5b60001515600f60003373ffffffffffffffffffffffffffffffffffffffff1673ffffffffffffffffffffffffffffffffffffffff16815260200190815260200160002060009054906101000a900460ff161515146108b3576040517f08c379a00000000000000000000000000000000000000000000000000000000081526004016108aa906129a8565b60405180910390fd5b60001515600d60019054906101000a900460ff16151514610909576040517f08c379a000000000000000000000000000000000000000000000000000000000815260040161090090612848565b60405180910390fd5b6040518060a001604052803373ffffffffffffffffffffffffffffffffffffffff16815260200160001515815260200160016005546109489190612de6565b6001846109559190612de6565b60026109619190612ccf565b61096b9190612de6565b815260200182815260200160001515815250600e600060018461098e9190612de6565b815260200190815260200160002060008201518160000160006101000a81548173ffffffffffffffffffffffffffffffffffffffff021916908373ffffffffffffffffffffffffffffffffffffffff16021790555060208201518160000160146101000a81548160ff021916908315150217905550604082015181600101556060820151816002015560808201518160030160006101000a81548160ff0219169083151502179055509050506001600f60003373ffffffffffffffffffffffffffffffffffffffff1673ffffffffffffffffffffffffffffffffffffffff16815260200190815260200160002060006101000a81548160ff021916908315150217905550600080600360009054906101000a900473ffffffffffffffffffffffffffffffffffffffff1673ffffffffffffffffffffffffffffffffffffffff163330604051602401610ae1929190612701565b6040516020818303038152906040527f52c28fab000000000000000000000000000000000000000000000000000000007bffffffffffffffffffffffffffffffffffffffffffffffffffffffff19166020820180517bffffffffffffffffffffffffffffffffffffffffffffffffffffffff8381831617835250505050604051610b6b9190612653565b6000604051808303816000865af19150503d8060008114610ba8576040519150601f19603f3d011682016040523d82523d6000602084013e610bad565b606091505b50915091507f2e51dff673f3c99ee1a8a6be6ffbc9b0fa03ae5d63402abd233234d4b8e49c868282604051610be392919061279e565b60405180910390a1600e6000600185610bfc9190612de6565b815260200190815260200160002060000160009054906101000a900473ffffffffffffffffffffffffffffffffffffffff1673ffffffffffffffffffffffffffffffffffffffff163373ffffffffffffffffffffffffffffffffffffffff1614610c9b576040517f08c379a0000000000000000000000000000000000000000000000000000000008152600401610c9290612888565b60405180910390fd5b60001515600e6000600186610cb09190612de6565b815260200190815260200160002060000160149054906101000a900460ff16151514610d11576040517f08c379a0000000000000000000000000000000000000000000000000000000008152600401610d0890612a28565b60405180910390fd5b612710600654610d219190612c34565b3414610d62576040517f08c379a0000000000000000000000000000000000000000000000000000000008152600401610d5990612988565b60405180910390fd5b6001600e6000600186610d759190612de6565b815260200190815260200160002060000160146101000a81548160ff021916908315150217905550505050565b3373ffffffffffffffffffffffffffffffffffffffff16600e60006001600954610dcc9190612de6565b815260200190815260200160002060000160009054906101000a900473ffffffffffffffffffffffffffffffffffffffff1673ffffffffffffffffffffffffffffffffffffffff1614610e54576040517f08c379a0000000000000000000000000000000000000000000000000000000008152600401610e4b90612968565b60405180910390fd5b600c544211610e98576040517f08c379a0000000000000000000000000000000000000000000000000000000008152600401610e8f906129e8565b60405180910390fd5b60005b600554811215610f695760001515600e600083815260200190815260200160002060030160009054906101000a900460ff1615151415610f5657610edd61159d565b6001600e600083815260200190815260200160002060030160006101000a81548160ff021916908315150217905550600a6000815480929190610f1f90613048565b9190505550600554600a541415610f555742600b8190555060b4600b54610f469190612bde565b600c81905550610f546116fd565b5b5b8080610f6190612fff565b915050610e9b565b50565b600080600090505b60055481121561101a578273ffffffffffffffffffffffffffffffffffffffff16600e600083815260200190815260200160002060000160009054906101000a900473ffffffffffffffffffffffffffffffffffffffff1673ffffffffffffffffffffffffffffffffffffffff16141561100757600e600082815260200190815260200160002060020154915050611020565b808061101290612fff565b915050610f74565b50600090505b919050565b600d60009054906101000a900460ff1681565b600047905090565b60055481565b600c5481565b600e6020528060005260406000206000915090508060000160009054906101000a900473ffffffffffffffffffffffffffffffffffffffff16908060000160149054906101000a900460ff16908060010154908060020154908060030160009054906101000a900460ff16905085565b60065481565b600d60019054906101000a900460ff1681565b600260009054906101000a900473ffffffffffffffffffffffffffffffffffffffff1681565b60008054906101000a900473ffffffffffffffffffffffffffffffffffffffff1681565b600061112a33610f6c565b90506001600954131561124057600c544211156111d25761114961159d565b6001600e600060018461115c9190612de6565b815260200190815260200160002060030160006101000a81548160ff021916908315150217905550600a600081548092919061119790613048565b9190505550600554600a5414156111cd5742600b8190555060b4600b546111be9190612bde565b600c819055506111cc6116fd565b5b61123b565b600c5442111580156111f257506078600c546111ee9190612e7a565b4210155b611231576040517f08c379a000000000000000000000000000000000000000000000000000000000815260040161122890612928565b60405180910390fd5b61123a81611a3a565b5b611256565b600160095414156112555761125481611a3a565b5b5b50565b600460009054906101000a900473ffffffffffffffffffffffffffffffffffffffff1681565b600f6020528060005260406000206000915054906101000a900460ff1681565b60008054906101000a900473ffffffffffffffffffffffffffffffffffffffff1673ffffffffffffffffffffffffffffffffffffffff163373ffffffffffffffffffffffffffffffffffffffff161461132d576040517f08c379a000000000000000000000000000000000000000000000000000000000815260040161132490612908565b60405180910390fd5b670de0b6b3a7640000851215611378576040517f08c379a000000000000000000000000000000000000000000000000000000000815260040161136f906128c8565b60405180910390fd5b6003861215801561138a5750600d8613155b80156113a2575060016002876113a09190613091565b145b6113e1576040517f08c379a00000000000000000000000000000000000000000000000000000000081526004016113d8906128e8565b60405180910390fd5b86600160006101000a81548173ffffffffffffffffffffffffffffffffffffffff021916908373ffffffffffffffffffffffffffffffffffffffff16021790555082600260006101000a81548173ffffffffffffffffffffffffffffffffffffffff021916908373ffffffffffffffffffffffffffffffffffffffff16021790555081600360006101000a81548173ffffffffffffffffffffffffffffffffffffffff021916908373ffffffffffffffffffffffffffffffffffffffff16021790555080600460006101000a81548173ffffffffffffffffffffffffffffffffffffffff021916908373ffffffffffffffffffffffffffffffffffffffff16021790555085600581905550846006819055508360079080519060200190611509929190611f39565b5085856115169190612c34565b60088190555060016009819055506000600a819055506001600d60006101000a81548160ff0219169083151502179055506000600d60016101000a81548160ff02191690831515021790555050505050505050565b600160009054906101000a900473ffffffffffffffffffffffffffffffffffffffff1681565b60085481565b600b5481565b600080600260009054906101000a900473ffffffffffffffffffffffffffffffffffffffff1673ffffffffffffffffffffffffffffffffffffffff166127106008546115e99190612c9e565b6040516024016040516020818303038152906040527fa6f2ae3a000000000000000000000000000000000000000000000000000000007bffffffffffffffffffffffffffffffffffffffffffffffffffffffff19166020820180517bffffffffffffffffffffffffffffffffffffffffffffffffffffffff83818316178352505050506040516116799190612653565b60006040518083038185875af1925050503d80600081146116b6576040519150601f19603f3d011682016040523d82523d6000602084013e6116bb565b606091505b50915091507f5721e6559c8de1c1f387af1634e9f30eced11790cfa1ff2b9faa65a3ed3e904f82826040516116f192919061279e565b60405180910390a15050565b600160009054906101000a900473ffffffffffffffffffffffffffffffffffffffff1673ffffffffffffffffffffffffffffffffffffffff1663a9059cbb600e6000600160095461174e9190612de6565b815260200190815260200160002060000160009054906101000a900473ffffffffffffffffffffffffffffffffffffffff166064600e600060016009546117959190612de6565b81526020019081526020016000206001015460646117b39190612b4a565b6006546117c09190612ccf565b6117ca9190612c34565b6040518363ffffffff1660e01b81526004016117e79291906126d8565b602060405180830381600087803b15801561180157600080fd5b505af1158015611815573d6000803e3d6000fd5b505050506040513d601f19601f82011682018060405250810190611839919061218b565b506009600081548092919061184d90612fff565b91905055506000600a8190555060005b6005548112156118a9576000600e600083815260200190815260200160002060030160006101000a81548160ff02191690831515021790555080806118a190612fff565b91505061185d565b5060055460016009546118bc9190612de6565b1415611a38576000600d60006101000a81548160ff021916908315150217905550600080600460009054906101000a900473ffffffffffffffffffffffffffffffffffffffff1673ffffffffffffffffffffffffffffffffffffffff16600760405160240161192b9190612826565b6040516020818303038152906040527f83588a92000000000000000000000000000000000000000000000000000000007bffffffffffffffffffffffffffffffffffffffffffffffffffffffff19166020820180517bffffffffffffffffffffffffffffffffffffffffffffffffffffffff83818316178352505050506040516119b59190612653565b6000604051808303816000865af19150503d80600081146119f2576040519150601f19603f3d011682016040523d82523d6000602084013e6119f7565b606091505b50915091507f2dbb38a6a943c4f61dfa90dcee112197adad60b0992c0f863ebe6f9bb30771ab8282604051611a2d92919061279e565b60405180910390a150505b565b60011515600e6000600184611a4f9190612de6565b815260200190815260200160002060000160149054906101000a900460ff16151514611ab0576040517f08c379a0000000000000000000000000000000000000000000000000000000008152600401611aa7906129c8565b60405180910390fd5b60001515600e6000600184611ac59190612de6565b815260200190815260200160002060030160009054906101000a900460ff16151514611b26576040517f08c379a0000000000000000000000000000000000000000000000000000000008152600401611b1d90612a08565b60405180910390fd5b6000600160009054906101000a900473ffffffffffffffffffffffffffffffffffffffff1673ffffffffffffffffffffffffffffffffffffffff1663dd62ed3e33306040518363ffffffff1660e01b8152600401611b85929190612701565b60206040518083038186803b158015611b9d57600080fd5b505afa158015611bb1573d6000803e3d6000fd5b505050506040513d601f19601f82011682018060405250810190611bd591906121e5565b9050600854811015611c1c576040517f08c379a0000000000000000000000000000000000000000000000000000000008152600401611c1390612948565b60405180910390fd5b600160009054906101000a900473ffffffffffffffffffffffffffffffffffffffff1673ffffffffffffffffffffffffffffffffffffffff166323b872dd33306008546040518463ffffffff1660e01b8152600401611c7d9392919061272a565b602060405180830381600087803b158015611c9757600080fd5b505af1158015611cab573d6000803e3d6000fd5b505050506040513d601f19601f82011682018060405250810190611ccf919061218b565b50611cd8611ee1565b6001600e6000600185611ceb9190612de6565b815260200190815260200160002060030160006101000a81548160ff021916908315150217905550600a6000815480929190611d2690613048565b9190505550600554600a541415611edd5760016009541415611e9d57600080600460009054906101000a900473ffffffffffffffffffffffffffffffffffffffff1673ffffffffffffffffffffffffffffffffffffffff166007604051602401611d909190612826565b6040516020818303038152906040527f92338ac9000000000000000000000000000000000000000000000000000000007bffffffffffffffffffffffffffffffffffffffffffffffffffffffff19166020820180517bffffffffffffffffffffffffffffffffffffffffffffffffffffffff8381831617835250505050604051611e1a9190612653565b6000604051808303816000865af19150503d8060008114611e57576040519150601f19603f3d011682016040523d82523d6000602084013e611e5c565b606091505b50915091507feb721d50a784497a7959c40e2723f0343c8e195929b9b6ad62e810852b1fc54f8282604051611e9292919061279e565b60405180910390a150505b6001600d60016101000a81548160ff02191690831515021790555042600b8190555060b4600b54611ece9190612bde565b600c81905550611edc6116fd565b5b5050565b3373ffffffffffffffffffffffffffffffffffffffff166108fc612710600854611f0b9190612c9e565b9081150290604051600060405180830381858888f19350505050158015611f36573d6000803e3d6000fd5b50565b828054611f4590612f9c565b90600052602060002090601f016020900481019282611f675760008555611fae565b82601f10611f8057805160ff1916838001178555611fae565b82800160010185558215611fae579182015b82811115611fad578251825591602001919060010190611f92565b5b509050611fbb9190611fbf565b5090565b5b80821115611fd8576000816000905550600101611fc0565b5090565b6000611fef611fea84612a88565b612a63565b90508281526020810184848401111561200b5761200a6131b2565b5b612016848285612f5a565b509392505050565b60008135905061202d81613520565b92915050565b60008151905061204281613537565b92915050565b6000813590506120578161354e565b92915050565b600082601f830112612072576120716131ad565b5b8135612082848260208601611fdc565b91505092915050565b60008151905061209a81613565565b92915050565b6000602082840312156120b6576120b56131bc565b5b60006120c48482850161201e565b91505092915050565b600080600080600080600060e0888a0312156120ec576120eb6131bc565b5b60006120fa8a828b0161201e565b975050602061210b8a828b01612048565b965050604061211c8a828b01612048565b955050606088013567ffffffffffffffff81111561213d5761213c6131b7565b5b6121498a828b0161205d565b945050608061215a8a828b0161201e565b93505060a061216b8a828b0161201e565b92505060c061217c8a828b0161201e565b91505092959891949750929550565b6000602082840312156121a1576121a06131bc565b5b60006121af84828501612033565b91505092915050565b6000602082840312156121ce576121cd6131bc565b5b60006121dc84828501612048565b91505092915050565b6000602082840312156121fb576121fa6131bc565b5b60006122098482850161208b565b91505092915050565b600061221e8383612635565b60208301905092915050565b61223381612f12565b82525050565b61224281612ec0565b82525050565b61225181612eae565b82525050565b600061226282612ade565b61226c8185612b0c565b935061227783612ab9565b8060005b838110156122a857815161228f8882612212565b975061229a83612aff565b92505060018101905061227b565b5085935050505092915050565b6122be81612ed2565b82525050565b60006122cf82612ae9565b6122d98185612b1d565b93506122e9818560208601612f69565b6122f2816131c1565b840191505092915050565b600061230882612ae9565b6123128185612b2e565b9350612322818560208601612f69565b80840191505092915050565b61233781612f24565b82525050565b61234681612ede565b82525050565b600061235782612af4565b6123618185612b39565b9350612371818560208601612f69565b61237a816131c1565b840191505092915050565b6000815461239281612f9c565b61239c8186612b39565b945060018216600081146123b757600181146123c9576123fc565b60ff19831686526020860193506123fc565b6123d285612ac9565b60005b838110156123f4578154818901526001820191506020810190506123d5565b808801955050505b50505092915050565b6000612412600a83612b39565b915061241d826131d2565b602082019050919050565b6000612435603183612b39565b9150612440826131fb565b604082019050919050565b6000612458602d83612b39565b91506124638261324a565b604082019050919050565b600061247b601383612b39565b915061248682613299565b602082019050919050565b600061249e601483612b39565b91506124a9826132c2565b602082019050919050565b60006124c1603383612b39565b91506124cc826132eb565b604082019050919050565b60006124e4600e83612b39565b91506124ef8261333a565b602082019050919050565b6000612507601c83612b39565b915061251282613363565b602082019050919050565b600061252a601983612b39565b91506125358261338c565b602082019050919050565b600061254d600d83612b39565b9150612558826133b5565b602082019050919050565b6000612570602583612b39565b915061257b826133de565b604082019050919050565b6000612593601383612b39565b915061259e8261342d565b602082019050919050565b60006125b6601f83612b39565b91506125c182613456565b602082019050919050565b60006125d9600e83612b39565b91506125e48261347f565b602082019050919050565b60006125fc602183612b39565b9150612607826134a8565b604082019050919050565b600061261f601983612b39565b915061262a826134f7565b602082019050919050565b61263e81612f08565b82525050565b61264d81612f08565b82525050565b600061265f82846122fd565b915081905092915050565b600060208201905061267f6000830184612248565b92915050565b600060a08201905061269a6000830188612239565b6126a760208301876122b5565b6126b4604083018661233d565b6126c1606083018561233d565b6126ce60808301846122b5565b9695505050505050565b60006040820190506126ed600083018561222a565b6126fa6020830184612644565b9392505050565b60006040820190506127166000830185612248565b6127236020830184612248565b9392505050565b600060608201905061273f6000830186612248565b61274c6020830185612248565b6127596040830184612644565b949350505050565b6000602082019050818103600083015261277b8184612257565b905092915050565b600060208201905061279860008301846122b5565b92915050565b60006040820190506127b360008301856122b5565b81810360208301526127c581846122c4565b90509392505050565b60006020820190506127e3600083018461232e565b92915050565b60006020820190506127fe600083018461233d565b92915050565b6000602082019050818103600083015261281e818461234c565b905092915050565b600060208201905081810360008301526128408184612385565b905092915050565b6000602082019050818103600083015261286181612405565b9050919050565b6000602082019050818103600083015261288181612428565b9050919050565b600060208201905081810360008301526128a18161244b565b9050919050565b600060208201905081810360008301526128c18161246e565b9050919050565b600060208201905081810360008301526128e181612491565b9050919050565b60006020820190508181036000830152612901816124b4565b9050919050565b60006020820190508181036000830152612921816124d7565b9050919050565b60006020820190508181036000830152612941816124fa565b9050919050565b600060208201905081810360008301526129618161251d565b9050919050565b6000602082019050818103600083015261298181612540565b9050919050565b600060208201905081810360008301526129a181612563565b9050919050565b600060208201905081810360008301526129c181612586565b9050919050565b600060208201905081810360008301526129e1816125a9565b9050919050565b60006020820190508181036000830152612a01816125cc565b9050919050565b60006020820190508181036000830152612a21816125ef565b9050919050565b60006020820190508181036000830152612a4181612612565b9050919050565b6000602082019050612a5d6000830184612644565b92915050565b6000612a6d612a7e565b9050612a798282612fce565b919050565b6000604051905090565b600067ffffffffffffffff821115612aa357612aa261317e565b5b612aac826131c1565b9050602081019050919050565b6000819050602082019050919050565b60008190508160005260206000209050919050565b600081519050919050565b600081519050919050565b600081519050919050565b6000602082019050919050565b600082825260208201905092915050565b600082825260208201905092915050565b600081905092915050565b600082825260208201905092915050565b6000612b5582612ede565b9150612b6083612ede565b9250817f7fffffffffffffffffffffffffffffffffffffffffffffffffffffffffffffff03831360008312151615612b9b57612b9a6130c2565b5b817f8000000000000000000000000000000000000000000000000000000000000000038312600083121615612bd357612bd26130c2565b5b828201905092915050565b6000612be982612f08565b9150612bf483612f08565b9250827fffffffffffffffffffffffffffffffffffffffffffffffffffffffffffffffff03821115612c2957612c286130c2565b5b828201905092915050565b6000612c3f82612ede565b9150612c4a83612ede565b925082612c5a57612c596130f1565b5b600160000383147f800000000000000000000000000000000000000000000000000000000000000083141615612c9357612c926130c2565b5b828205905092915050565b6000612ca982612f08565b9150612cb483612f08565b925082612cc457612cc36130f1565b5b828204905092915050565b6000612cda82612ede565b9150612ce583612ede565b9250827f7fffffffffffffffffffffffffffffffffffffffffffffffffffffffffffffff0482116000841360008413161615612d2457612d236130c2565b5b817f80000000000000000000000000000000000000000000000000000000000000000583126000841260008413161615612d6157612d606130c2565b5b827f80000000000000000000000000000000000000000000000000000000000000000582126000841360008412161615612d9e57612d9d6130c2565b5b827f7fffffffffffffffffffffffffffffffffffffffffffffffffffffffffffffff0582126000841260008412161615612ddb57612dda6130c2565b5b828202905092915050565b6000612df182612ede565b9150612dfc83612ede565b9250827f800000000000000000000000000000000000000000000000000000000000000001821260008412151615612e3757612e366130c2565b5b827f7fffffffffffffffffffffffffffffffffffffffffffffffffffffffffffffff018213600084121615612e6f57612e6e6130c2565b5b828203905092915050565b6000612e8582612f08565b9150612e9083612f08565b925082821015612ea357612ea26130c2565b5b828203905092915050565b6000612eb982612ee8565b9050919050565b6000612ecb82612ee8565b9050919050565b60008115159050919050565b6000819050919050565b600073ffffffffffffffffffffffffffffffffffffffff82169050919050565b6000819050919050565b6000612f1d82612f36565b9050919050565b6000612f2f82612f36565b9050919050565b6000612f4182612f48565b9050919050565b6000612f5382612ee8565b9050919050565b82818337600083830152505050565b60005b83811015612f87578082015181840152602081019050612f6c565b83811115612f96576000848401525b50505050565b60006002820490506001821680612fb457607f821691505b60208210811415612fc857612fc7613120565b5b50919050565b612fd7826131c1565b810181811067ffffffffffffffff82111715612ff657612ff561317e565b5b80604052505050565b600061300a82612ede565b91507f7fffffffffffffffffffffffffffffffffffffffffffffffffffffffffffffff82141561303d5761303c6130c2565b5b600182019050919050565b600061305382612f08565b91507fffffffffffffffffffffffffffffffffffffffffffffffffffffffffffffffff821415613086576130856130c2565b5b600182019050919050565b600061309c82612ede565b91506130a783612ede565b9250826130b7576130b66130f1565b5b828207905092915050565b7f4e487b7100000000000000000000000000000000000000000000000000000000600052601160045260246000fd5b7f4e487b7100000000000000000000000000000000000000000000000000000000600052601260045260246000fd5b7f4e487b7100000000000000000000000000000000000000000000000000000000600052602260045260246000fd5b7f4e487b7100000000000000000000000000000000000000000000000000000000600052603260045260246000fd5b7f4e487b7100000000000000000000000000000000000000000000000000000000600052604160045260246000fd5b600080fd5b600080fd5b600080fd5b600080fd5b6000601f19601f8301169050919050565b7f46756c6c20556e696f6e00000000000000000000000000000000000000000000600082015250565b7f4f72646572206d75737420626967676572207468616e203020616e64206c657360008201527f73207468616e206d61782070656f706c65000000000000000000000000000000602082015250565b7f70617274696369706174696e672061646472657373206d757374206d6174636860008201527f65732077697468206f7264657200000000000000000000000000000000000000602082015250565b7f416c7265616479206578697374206f7264657200000000000000000000000000600082015250565b7f6d696e696d756d20616d6f756e743a2031204355000000000000000000000000600082015250565b7f6d696e696d756d2070656f706c653a20332026206d61782070656f706c653a2060008201527f31332c206f6e6c79206f6464206e756d62657200000000000000000000000000602082015250565b7f4e6f7420417574686f72697a6564000000000000000000000000000000000000600082015250565b7f596f752063616e206465706f73697420657861637420706572696f6400000000600082015250565b7f436865636b2074686520746f6b656e20616c6c6f77616e636500000000000000600082015250565b7f4e6f7420796f7572207475726e00000000000000000000000000000000000000600082015250565b7f657468657227732076616c7565206973206d75737420657175616c204355206160008201527f6d6f756e74000000000000000000000000000000000000000000000000000000602082015250565b7f416c726561647920706172746963697061746500000000000000000000000000600082015250565b7f506c65617365206465706f73697420636f6c6c61746572616c20666972737400600082015250565b7f5965742072656365697665204355000000000000000000000000000000000000600082015250565b7f596f7520616c7265616479206465706f73697420696e207468697320726f756e60008201527f6400000000000000000000000000000000000000000000000000000000000000602082015250565b7f416c7265616479207375626d697420636f6c6c61746572616c00000000000000600082015250565b61352981612eae565b811461353457600080fd5b50565b61354081612ed2565b811461354b57600080fd5b50565b61355781612ede565b811461356257600080fd5b50565b61356e81612f08565b811461357957600080fd5b5056fea2646970667358221220032f6b3f690b376485a4b9671952eecab80e47d7f0130fd9ac800b26d871341d64736f6c63430008070033a264697066735822122061dd29cfef7f4b6022c0f191ee5d8612a6f7d3f73de66c4c96b10a8d6f5337b064736f6c63430008070033",
  "linkReferences": {},
  "deployedLinkReferences": {}
}