{
  "_format": "hh-sol-artifact-1",
  "contractName": "UnionFactory",
  "sourceName": "contracts/UnionFactory.sol",
  "abi": [
    {
      "inputs": [],
      "stateMutability": "nonpayable",
      "type": "constructor"
    },
    {
      "anonymous": false,
      "inputs": [
        {
          "indexed": false,
          "internalType": "int256",
          "name": "people",
          "type": "int256"
        },
        {
          "indexed": false,
          "internalType": "int256",
          "name": "price",
          "type": "int256"
        },
        {
          "indexed": false,
          "internalType": "string",
          "name": "name",
          "type": "string"
        }
      ],
      "name": "UnionCreated",
      "type": "event"
    },
    {
      "inputs": [
        {
          "internalType": "uint256",
          "name": "",
          "type": "uint256"
        }
      ],
      "name": "allUnions",
      "outputs": [
        {
          "internalType": "address",
          "name": "",
          "type": "address"
        }
      ],
      "stateMutability": "view",
      "type": "function"
    },
    {
      "inputs": [
        {
          "internalType": "address",
          "name": "token",
          "type": "address"
        },
        {
          "internalType": "int256",
          "name": "people",
          "type": "int256"
        },
        {
          "internalType": "int256",
          "name": "amount",
          "type": "int256"
        },
        {
          "internalType": "string",
          "name": "name",
          "type": "string"
        }
      ],
      "name": "createUnion",
      "outputs": [
        {
          "internalType": "address",
          "name": "union",
          "type": "address"
        }
      ],
      "stateMutability": "nonpayable",
      "type": "function"
    },
    {
      "inputs": [
        {
          "internalType": "string",
          "name": "",
          "type": "string"
        }
      ],
      "name": "getUnion",
      "outputs": [
        {
          "internalType": "address",
          "name": "",
          "type": "address"
        }
      ],
      "stateMutability": "view",
      "type": "function"
    }
  ],
  "bytecode": "0x608060405234801561001057600080fd5b506133cc806100206000396000f3fe608060405234801561001057600080fd5b50600436106100415760003560e01c806321a8dcd11461004657806393380239146100765780639381551c146100a6575b600080fd5b610060600480360381019061005b9190610524565b6100d6565b60405161006d91906106ac565b60405180910390f35b610090600480360381019061008b91906104a1565b61011f565b60405161009d91906106ac565b60405180910390f35b6100c060048036038101906100bb919061056d565b6103a6565b6040516100cd91906106ac565b60405180910390f35b6000818051602081018201805184825260208301602085012081835280955050505050506000915054906101000a900473ffffffffffffffffffffffffffffffffffffffff1681565b60008073ffffffffffffffffffffffffffffffffffffffff166000836040516101489190610695565b908152602001604051809103902060009054906101000a900473ffffffffffffffffffffffffffffffffffffffff1673ffffffffffffffffffffffffffffffffffffffff16146101cd576040517f08c379a00000000000000000000000000000000000000000000000000000000081526004016101c490610751565b60405180910390fd5b6000604051806020016101df906103e5565b6020820181038252601f19601f820116604052509050600085858560405160200161020c9392919061065c565b604051602081830303815290604052805190602001209050808251602084016000f592508273ffffffffffffffffffffffffffffffffffffffff1663e40f8526888888886040518563ffffffff1660e01b815260040161026f94939291906106c7565b600060405180830381600087803b15801561028957600080fd5b505af115801561029d573d6000803e3d6000fd5b50505050826000856040516102b29190610695565b908152602001604051809103902060006101000a81548173ffffffffffffffffffffffffffffffffffffffff021916908373ffffffffffffffffffffffffffffffffffffffff1602179055506001839080600181540180825580915050600190039060005260206000200160009091909190916101000a81548173ffffffffffffffffffffffffffffffffffffffff021916908373ffffffffffffffffffffffffffffffffffffffff1602179055507f772a86d7c3b720aea41abcd3eb293674d2481090103a42f670d177df2640df7486868660405161039493929190610713565b60405180910390a15050949350505050565b600181815481106103b657600080fd5b906000526020600020016000915054906101000a900473ffffffffffffffffffffffffffffffffffffffff1681565b612a238061097483390190565b600061040561040084610796565b610771565b905082815260208101848484011115610421576104206108e5565b5b61042c848285610834565b509392505050565b6000813590506104438161092e565b92915050565b60008135905061045881610945565b92915050565b600082601f830112610473576104726108e0565b5b81356104838482602086016103f2565b91505092915050565b60008135905061049b8161095c565b92915050565b600080600080608085870312156104bb576104ba6108ef565b5b60006104c987828801610434565b94505060206104da87828801610449565b93505060406104eb87828801610449565b925050606085013567ffffffffffffffff81111561050c5761050b6108ea565b5b6105188782880161045e565b91505092959194509250565b60006020828403121561053a576105396108ef565b5b600082013567ffffffffffffffff811115610558576105576108ea565b5b6105648482850161045e565b91505092915050565b600060208284031215610583576105826108ef565b5b60006105918482850161048c565b91505092915050565b6105a3816107ee565b82525050565b6105b281610800565b82525050565b6105c96105c482610800565b6108a7565b82525050565b60006105da826107c7565b6105e481856107d2565b93506105f4818560208601610843565b6105fd816108f4565b840191505092915050565b6000610613826107c7565b61061d81856107e3565b935061062d818560208601610843565b80840191505092915050565b6000610646600c836107d2565b915061065182610905565b602082019050919050565b600061066882866105b8565b60208201915061067882856105b8565b6020820191506106888284610608565b9150819050949350505050565b60006106a18284610608565b915081905092915050565b60006020820190506106c1600083018461059a565b92915050565b60006080820190506106dc600083018761059a565b6106e960208301866105a9565b6106f660408301856105a9565b818103606083015261070881846105cf565b905095945050505050565b600060608201905061072860008301866105a9565b61073560208301856105a9565b818103604083015261074781846105cf565b9050949350505050565b6000602082019050818103600083015261076a81610639565b9050919050565b600061077b61078c565b90506107878282610876565b919050565b6000604051905090565b600067ffffffffffffffff8211156107b1576107b06108b1565b5b6107ba826108f4565b9050602081019050919050565b600081519050919050565b600082825260208201905092915050565b600081905092915050565b60006107f98261080a565b9050919050565b6000819050919050565b600073ffffffffffffffffffffffffffffffffffffffff82169050919050565b6000819050919050565b82818337600083830152505050565b60005b83811015610861578082015181840152602081019050610846565b83811115610870576000848401525b50505050565b61087f826108f4565b810181811067ffffffffffffffff8211171561089e5761089d6108b1565b5b80604052505050565b6000819050919050565b7f4e487b7100000000000000000000000000000000000000000000000000000000600052604160045260246000fd5b600080fd5b600080fd5b600080fd5b600080fd5b6000601f19601f8301169050919050565b7f554e494f4e5f4558495354530000000000000000000000000000000000000000600082015250565b610937816107ee565b811461094257600080fd5b50565b61094e81610800565b811461095957600080fd5b50565b6109658161082a565b811461097057600080fd5b5056fe608060405234801561001057600080fd5b50336000806101000a81548173ffffffffffffffffffffffffffffffffffffffff021916908373ffffffffffffffffffffffffffffffffffffffff1602179055506129c3806100606000396000f3fe6080604052600436106101095760003560e01c8063a194cf3311610095578063e2b1886811610064578063e2b1886814610354578063e40f852614610391578063fc0c546a146103ba578063fd2f9118146103e5578063ffa688391461041057610109565b8063a194cf3314610294578063aa8c217c146102d5578063c45a015514610300578063d7885e8c1461032b57610109565b80636eba2b13116100dc5780636eba2b13146101ab5780636fe830da146101e8578063722713f714610213578063783f6af51461023e578063786716fe1461026957610109565b806306661abd1461010e57806306fdde0314610139578063146ca531146101645780632d8a91501461018f575b600080fd5b34801561011a57600080fd5b5061012361043b565b6040516101309190611f77565b60405180910390f35b34801561014557600080fd5b5061014e610441565b60405161015b9190611db5565b60405180910390f35b34801561017057600080fd5b506101796104cf565b6040516101869190611d9a565b60405180910390f35b6101a960048036038101906101a491906118e6565b6104d5565b005b3480156101b757600080fd5b506101d260048036038101906101cd91906117dc565b610ae2565b6040516101df9190611d9a565b60405180910390f35b3480156101f457600080fd5b506101fd610b9b565b60405161020a9190611d34565b60405180910390f35b34801561021f57600080fd5b50610228610bae565b6040516102359190611f77565b60405180910390f35b34801561024a57600080fd5b50610253610bb6565b6040516102609190611d9a565b60405180910390f35b34801561027557600080fd5b5061027e610bbc565b60405161028b9190611f77565b60405180910390f35b3480156102a057600080fd5b506102bb60048036038101906102b691906118b9565b610bc2565b6040516102cc959493929190611c58565b60405180910390f35b3480156102e157600080fd5b506102ea610c32565b6040516102f79190611d9a565b60405180910390f35b34801561030c57600080fd5b50610315610c38565b6040516103229190611c3d565b60405180910390f35b34801561033757600080fd5b50610352600480360381019061034d91906117dc565b610c5c565b005b34801561036057600080fd5b5061037b600480360381019061037691906117dc565b610d98565b6040516103889190611d34565b60405180910390f35b34801561039d57600080fd5b506103b860048036038101906103b39190611809565b610db8565b005b3480156103c657600080fd5b506103cf610fa3565b6040516103dc9190611d7f565b60405180910390f35b3480156103f157600080fd5b506103fa610fc9565b6040516104079190611d9a565b60405180910390f35b34801561041c57600080fd5b50610425610fcf565b6040516104329190611f77565b60405180910390f35b60075481565b6004805461044e9061247d565b80601f016020809104026020016040519081016040528092919081815260200182805461047a9061247d565b80156104c75780601f1061049c576101008083540402835291602001916104c7565b820191906000526020600020905b8154815290600101906020018083116104aa57829003601f168201915b505050505081565b60065481565b6000821380156104e757506002548213155b610526576040517f08c379a000000000000000000000000000000000000000000000000000000000815260040161051d90611dd7565b60405180910390fd5b600073ffffffffffffffffffffffffffffffffffffffff16600b600060018561054f91906122c7565b815260200190815260200160002060000160009054906101000a900473ffffffffffffffffffffffffffffffffffffffff1673ffffffffffffffffffffffffffffffffffffffff16146105d7576040517f08c379a00000000000000000000000000000000000000000000000000000000081526004016105ce90611e17565b60405180910390fd5b60001515600c60003373ffffffffffffffffffffffffffffffffffffffff1673ffffffffffffffffffffffffffffffffffffffff16815260200190815260200160002060009054906101000a900460ff1615151461066a576040517f08c379a000000000000000000000000000000000000000000000000000000000815260040161066190611ef7565b60405180910390fd5b6040518060a001604052803373ffffffffffffffffffffffffffffffffffffffff16815260200160001515815260200160016002546106a991906122c7565b6001856106b691906122c7565b60026106c291906121b0565b6106cc91906122c7565b815260200183815260200160001515815250600b60006001856106ef91906122c7565b815260200190815260200160002060008201518160000160006101000a81548173ffffffffffffffffffffffffffffffffffffffff021916908373ffffffffffffffffffffffffffffffffffffffff16021790555060208201518160000160146101000a81548160ff021916908315150217905550604082015181600101556060820151816002015560808201518160030160006101000a81548160ff0219169083151502179055509050506001600c60003373ffffffffffffffffffffffffffffffffffffffff1673ffffffffffffffffffffffffffffffffffffffff16815260200190815260200160002060006101000a81548160ff0219169083151502179055506000808273ffffffffffffffffffffffffffffffffffffffff163330604051602401610820929190611cd4565b6040516020818303038152906040527f52c28fab000000000000000000000000000000000000000000000000000000007bffffffffffffffffffffffffffffffffffffffffffffffffffffffff19166020820180517bffffffffffffffffffffffffffffffffffffffffffffffffffffffff83818316178352505050506040516108aa9190611c26565b6000604051808303816000865af19150503d80600081146108e7576040519150601f19603f3d011682016040523d82523d6000602084013e6108ec565b606091505b50915091507f2e51dff673f3c99ee1a8a6be6ffbc9b0fa03ae5d63402abd233234d4b8e49c868282604051610922929190611d4f565b60405180910390a1600b600060018661093b91906122c7565b815260200190815260200160002060000160009054906101000a900473ffffffffffffffffffffffffffffffffffffffff1673ffffffffffffffffffffffffffffffffffffffff163373ffffffffffffffffffffffffffffffffffffffff16146109da576040517f08c379a00000000000000000000000000000000000000000000000000000000081526004016109d190611df7565b60405180910390fd5b60001515600b60006001876109ef91906122c7565b815260200190815260200160002060000160149054906101000a900460ff16151514610a50576040517f08c379a0000000000000000000000000000000000000000000000000000000008152600401610a4790611f57565b60405180910390fd5b612710600354610a609190612115565b3414610aa1576040517f08c379a0000000000000000000000000000000000000000000000000000000008152600401610a9890611ed7565b60405180910390fd5b6001600b6000600187610ab491906122c7565b815260200190815260200160002060000160146101000a81548160ff02191690831515021790555050505050565b600080600090505b600254811215610b90578273ffffffffffffffffffffffffffffffffffffffff16600b600083815260200190815260200160002060000160009054906101000a900473ffffffffffffffffffffffffffffffffffffffff1673ffffffffffffffffffffffffffffffffffffffff161415610b7d57600b600082815260200190815260200160002060020154915050610b96565b8080610b88906124e0565b915050610aea565b50600090505b919050565b600a60009054906101000a900460ff1681565b600047905090565b60025481565b60095481565b600b6020528060005260406000206000915090508060000160009054906101000a900473ffffffffffffffffffffffffffffffffffffffff16908060000160149054906101000a900460ff16908060010154908060020154908060030160009054906101000a900460ff16905085565b60035481565b60008054906101000a900473ffffffffffffffffffffffffffffffffffffffff1681565b6000610c6733610ae2565b905060016006541315610d7e57600954421115610d1057610c8782610fd5565b6001600b6000600184610c9a91906122c7565b815260200190815260200160002060030160006101000a81548160ff02191690831515021790555060076000815480929190610cd590612529565b91905055506002546007541415610d0b574260088190555060b4600854610cfc91906120bf565b600981905550610d0a611114565b5b610d79565b6009544211158015610d3057506078600954610d2c919061235b565b4210155b610d6f576040517f08c379a0000000000000000000000000000000000000000000000000000000008152600401610d6690611e97565b60405180910390fd5b610d78816112f7565b5b610d94565b60016006541415610d9357610d92816112f7565b5b5b5050565b600c6020528060005260406000206000915054906101000a900460ff1681565b60008054906101000a900473ffffffffffffffffffffffffffffffffffffffff1673ffffffffffffffffffffffffffffffffffffffff163373ffffffffffffffffffffffffffffffffffffffff1614610e46576040517f08c379a0000000000000000000000000000000000000000000000000000000008152600401610e3d90611e77565b60405180910390fd5b670de0b6b3a7640000821215610e91576040517f08c379a0000000000000000000000000000000000000000000000000000000008152600401610e8890611e37565b60405180910390fd5b60038312158015610ea35750600d8313155b8015610ebb57506001600284610eb99190612572565b145b610efa576040517f08c379a0000000000000000000000000000000000000000000000000000000008152600401610ef190611e57565b60405180910390fd5b83600160006101000a81548173ffffffffffffffffffffffffffffffffffffffff021916908373ffffffffffffffffffffffffffffffffffffffff16021790555082600281905550816003819055508060049080519060200190610f5f929190611675565b508282610f6c9190612115565b600581905550600160068190555060006007819055506001600a60006101000a81548160ff02191690831515021790555050505050565b600160009054906101000a900473ffffffffffffffffffffffffffffffffffffffff1681565b60055481565b60085481565b6000808273ffffffffffffffffffffffffffffffffffffffff16612710600554610fff919061217f565b6040516024016040516020818303038152906040527fa6f2ae3a000000000000000000000000000000000000000000000000000000007bffffffffffffffffffffffffffffffffffffffffffffffffffffffff19166020820180517bffffffffffffffffffffffffffffffffffffffffffffffffffffffff838183161783525050505060405161108f9190611c26565b60006040518083038185875af1925050503d80600081146110cc576040519150601f19603f3d011682016040523d82523d6000602084013e6110d1565b606091505b50915091507f5721e6559c8de1c1f387af1634e9f30eced11790cfa1ff2b9faa65a3ed3e904f8282604051611107929190611d4f565b60405180910390a1505050565b600160009054906101000a900473ffffffffffffffffffffffffffffffffffffffff1673ffffffffffffffffffffffffffffffffffffffff1663a9059cbb600b6000600160065461116591906122c7565b815260200190815260200160002060000160009054906101000a900473ffffffffffffffffffffffffffffffffffffffff166064600b600060016006546111ac91906122c7565b81526020019081526020016000206001015460646111ca919061202b565b6003546111d791906121b0565b6111e19190612115565b6040518363ffffffff1660e01b81526004016111fe929190611cab565b602060405180830381600087803b15801561121857600080fd5b505af115801561122c573d6000803e3d6000fd5b505050506040513d601f19601f82011682018060405250810190611250919061188c565b5060066000815480929190611264906124e0565b9190505550600060078190555060005b6002548112156112c0576000600b600083815260200190815260200160002060030160006101000a81548160ff02191690831515021790555080806112b8906124e0565b915050611274565b5060025460016006546112d391906122c7565b14156112f5576000600a60006101000a81548160ff0219169083151502179055505b565b60011515600b600060018461130c91906122c7565b815260200190815260200160002060000160149054906101000a900460ff1615151461136d576040517f08c379a000000000000000000000000000000000000000000000000000000000815260040161136490611f17565b60405180910390fd5b60001515600b600060018461138291906122c7565b815260200190815260200160002060030160009054906101000a900460ff161515146113e3576040517f08c379a00000000000000000000000000000000000000000000000000000000081526004016113da90611f37565b60405180910390fd5b6000600160009054906101000a900473ffffffffffffffffffffffffffffffffffffffff1673ffffffffffffffffffffffffffffffffffffffff1663dd62ed3e33306040518363ffffffff1660e01b8152600401611442929190611cd4565b60206040518083038186803b15801561145a57600080fd5b505afa15801561146e573d6000803e3d6000fd5b505050506040513d601f19601f820116820180604052508101906114929190611926565b90506005548110156114d9576040517f08c379a00000000000000000000000000000000000000000000000000000000081526004016114d090611eb7565b60405180910390fd5b600160009054906101000a900473ffffffffffffffffffffffffffffffffffffffff1673ffffffffffffffffffffffffffffffffffffffff166323b872dd33306005546040518463ffffffff1660e01b815260040161153a93929190611cfd565b602060405180830381600087803b15801561155457600080fd5b505af1158015611568573d6000803e3d6000fd5b505050506040513d601f19601f8201168201806040525081019061158c919061188c565b5061159561161d565b6001600b60006001856115a891906122c7565b815260200190815260200160002060030160006101000a81548160ff021916908315150217905550600760008154809291906115e390612529565b91905055506002546007541415611619574260088190555060b460085461160a91906120bf565b600981905550611618611114565b5b5050565b3373ffffffffffffffffffffffffffffffffffffffff166108fc612710600554611647919061217f565b9081150290604051600060405180830381858888f19350505050158015611672573d6000803e3d6000fd5b50565b8280546116819061247d565b90600052602060002090601f0160209004810192826116a357600085556116ea565b82601f106116bc57805160ff19168380011785556116ea565b828001600101855582156116ea579182015b828111156116e95782518255916020019190600101906116ce565b5b5090506116f791906116fb565b5090565b5b808211156117145760008160009055506001016116fc565b5090565b600061172b61172684611fb7565b611f92565b90508281526020810184848401111561174757611746612664565b5b61175284828561243b565b509392505050565b60008135905061176981612931565b92915050565b60008151905061177e81612948565b92915050565b6000813590506117938161295f565b92915050565b600082601f8301126117ae576117ad61265f565b5b81356117be848260208601611718565b91505092915050565b6000815190506117d681612976565b92915050565b6000602082840312156117f2576117f161266e565b5b60006118008482850161175a565b91505092915050565b600080600080608085870312156118235761182261266e565b5b60006118318782880161175a565b945050602061184287828801611784565b935050604061185387828801611784565b925050606085013567ffffffffffffffff81111561187457611873612669565b5b61188087828801611799565b91505092959194509250565b6000602082840312156118a2576118a161266e565b5b60006118b08482850161176f565b91505092915050565b6000602082840312156118cf576118ce61266e565b5b60006118dd84828501611784565b91505092915050565b600080604083850312156118fd576118fc61266e565b5b600061190b85828601611784565b925050602061191c8582860161175a565b9150509250929050565b60006020828403121561193c5761193b61266e565b5b600061194a848285016117c7565b91505092915050565b61195c816123f3565b82525050565b61196b816123a1565b82525050565b61197a8161238f565b82525050565b611989816123b3565b82525050565b600061199a82611fe8565b6119a48185611ffe565b93506119b481856020860161244a565b6119bd81612673565b840191505092915050565b60006119d382611fe8565b6119dd818561200f565b93506119ed81856020860161244a565b80840191505092915050565b611a0281612405565b82525050565b611a11816123bf565b82525050565b6000611a2282611ff3565b611a2c818561201a565b9350611a3c81856020860161244a565b611a4581612673565b840191505092915050565b6000611a5d600a8361201a565b9150611a6882612684565b602082019050919050565b6000611a80602d8361201a565b9150611a8b826126ad565b604082019050919050565b6000611aa360138361201a565b9150611aae826126fc565b602082019050919050565b6000611ac660148361201a565b9150611ad182612725565b602082019050919050565b6000611ae960338361201a565b9150611af48261274e565b604082019050919050565b6000611b0c600e8361201a565b9150611b178261279d565b602082019050919050565b6000611b2f601c8361201a565b9150611b3a826127c6565b602082019050919050565b6000611b5260198361201a565b9150611b5d826127ef565b602082019050919050565b6000611b7560258361201a565b9150611b8082612818565b604082019050919050565b6000611b9860138361201a565b9150611ba382612867565b602082019050919050565b6000611bbb601f8361201a565b9150611bc682612890565b602082019050919050565b6000611bde60218361201a565b9150611be9826128b9565b604082019050919050565b6000611c0160198361201a565b9150611c0c82612908565b602082019050919050565b611c20816123e9565b82525050565b6000611c3282846119c8565b915081905092915050565b6000602082019050611c526000830184611971565b92915050565b600060a082019050611c6d6000830188611962565b611c7a6020830187611980565b611c876040830186611a08565b611c946060830185611a08565b611ca16080830184611980565b9695505050505050565b6000604082019050611cc06000830185611953565b611ccd6020830184611c17565b9392505050565b6000604082019050611ce96000830185611971565b611cf66020830184611971565b9392505050565b6000606082019050611d126000830186611971565b611d1f6020830185611971565b611d2c6040830184611c17565b949350505050565b6000602082019050611d496000830184611980565b92915050565b6000604082019050611d646000830185611980565b8181036020830152611d76818461198f565b90509392505050565b6000602082019050611d9460008301846119f9565b92915050565b6000602082019050611daf6000830184611a08565b92915050565b60006020820190508181036000830152611dcf8184611a17565b905092915050565b60006020820190508181036000830152611df081611a50565b9050919050565b60006020820190508181036000830152611e1081611a73565b9050919050565b60006020820190508181036000830152611e3081611a96565b9050919050565b60006020820190508181036000830152611e5081611ab9565b9050919050565b60006020820190508181036000830152611e7081611adc565b9050919050565b60006020820190508181036000830152611e9081611aff565b9050919050565b60006020820190508181036000830152611eb081611b22565b9050919050565b60006020820190508181036000830152611ed081611b45565b9050919050565b60006020820190508181036000830152611ef081611b68565b9050919050565b60006020820190508181036000830152611f1081611b8b565b9050919050565b60006020820190508181036000830152611f3081611bae565b9050919050565b60006020820190508181036000830152611f5081611bd1565b9050919050565b60006020820190508181036000830152611f7081611bf4565b9050919050565b6000602082019050611f8c6000830184611c17565b92915050565b6000611f9c611fad565b9050611fa882826124af565b919050565b6000604051905090565b600067ffffffffffffffff821115611fd257611fd1612630565b5b611fdb82612673565b9050602081019050919050565b600081519050919050565b600081519050919050565b600082825260208201905092915050565b600081905092915050565b600082825260208201905092915050565b6000612036826123bf565b9150612041836123bf565b9250817f7fffffffffffffffffffffffffffffffffffffffffffffffffffffffffffffff0383136000831215161561207c5761207b6125a3565b5b817f80000000000000000000000000000000000000000000000000000000000000000383126000831216156120b4576120b36125a3565b5b828201905092915050565b60006120ca826123e9565b91506120d5836123e9565b9250827fffffffffffffffffffffffffffffffffffffffffffffffffffffffffffffffff0382111561210a576121096125a3565b5b828201905092915050565b6000612120826123bf565b915061212b836123bf565b92508261213b5761213a6125d2565b5b600160000383147f800000000000000000000000000000000000000000000000000000000000000083141615612174576121736125a3565b5b828205905092915050565b600061218a826123e9565b9150612195836123e9565b9250826121a5576121a46125d2565b5b828204905092915050565b60006121bb826123bf565b91506121c6836123bf565b9250827f7fffffffffffffffffffffffffffffffffffffffffffffffffffffffffffffff0482116000841360008413161615612205576122046125a3565b5b817f80000000000000000000000000000000000000000000000000000000000000000583126000841260008413161615612242576122416125a3565b5b827f8000000000000000000000000000000000000000000000000000000000000000058212600084136000841216161561227f5761227e6125a3565b5b827f7fffffffffffffffffffffffffffffffffffffffffffffffffffffffffffffff05821260008412600084121616156122bc576122bb6125a3565b5b828202905092915050565b60006122d2826123bf565b91506122dd836123bf565b9250827f800000000000000000000000000000000000000000000000000000000000000001821260008412151615612318576123176125a3565b5b827f7fffffffffffffffffffffffffffffffffffffffffffffffffffffffffffffff0182136000841216156123505761234f6125a3565b5b828203905092915050565b6000612366826123e9565b9150612371836123e9565b925082821015612384576123836125a3565b5b828203905092915050565b600061239a826123c9565b9050919050565b60006123ac826123c9565b9050919050565b60008115159050919050565b6000819050919050565b600073ffffffffffffffffffffffffffffffffffffffff82169050919050565b6000819050919050565b60006123fe82612417565b9050919050565b600061241082612417565b9050919050565b600061242282612429565b9050919050565b6000612434826123c9565b9050919050565b82818337600083830152505050565b60005b8381101561246857808201518184015260208101905061244d565b83811115612477576000848401525b50505050565b6000600282049050600182168061249557607f821691505b602082108114156124a9576124a8612601565b5b50919050565b6124b882612673565b810181811067ffffffffffffffff821117156124d7576124d6612630565b5b80604052505050565b60006124eb826123bf565b91507f7fffffffffffffffffffffffffffffffffffffffffffffffffffffffffffffff82141561251e5761251d6125a3565b5b600182019050919050565b6000612534826123e9565b91507fffffffffffffffffffffffffffffffffffffffffffffffffffffffffffffffff821415612567576125666125a3565b5b600182019050919050565b600061257d826123bf565b9150612588836123bf565b925082612598576125976125d2565b5b828207905092915050565b7f4e487b7100000000000000000000000000000000000000000000000000000000600052601160045260246000fd5b7f4e487b7100000000000000000000000000000000000000000000000000000000600052601260045260246000fd5b7f4e487b7100000000000000000000000000000000000000000000000000000000600052602260045260246000fd5b7f4e487b7100000000000000000000000000000000000000000000000000000000600052604160045260246000fd5b600080fd5b600080fd5b600080fd5b600080fd5b6000601f19601f8301169050919050565b7f46756c6c20556e696f6e00000000000000000000000000000000000000000000600082015250565b7f70617274696369706174696e672061646472657373206d757374206d6174636860008201527f65732077697468206f7264657200000000000000000000000000000000000000602082015250565b7f416c7265616479206578697374206f7264657200000000000000000000000000600082015250565b7f6d696e696d756d20616d6f756e743a2031204355000000000000000000000000600082015250565b7f6d696e696d756d2070656f706c653a20332026206d61782070656f706c653a2060008201527f31332c206f6e6c79206f6464206e756d62657200000000000000000000000000602082015250565b7f4e6f7420417574686f72697a6564000000000000000000000000000000000000600082015250565b7f596f752063616e206465706f73697420657861637420706572696f6400000000600082015250565b7f436865636b2074686520746f6b656e20616c6c6f77616e636500000000000000600082015250565b7f657468657227732076616c7565206973206d75737420657175616c204355206160008201527f6d6f756e74000000000000000000000000000000000000000000000000000000602082015250565b7f416c726561647920706172746963697061746500000000000000000000000000600082015250565b7f506c65617365206465706f73697420636f6c6c61746572616c20666972737400600082015250565b7f596f7520616c7265616479206465706f73697420696e207468697320726f756e60008201527f6400000000000000000000000000000000000000000000000000000000000000602082015250565b7f416c7265616479207375626d697420636f6c6c61746572616c00000000000000600082015250565b61293a8161238f565b811461294557600080fd5b50565b612951816123b3565b811461295c57600080fd5b50565b612968816123bf565b811461297357600080fd5b50565b61297f816123e9565b811461298a57600080fd5b5056fea2646970667358221220572840d8f8ebc5045d9d582d1aa6fe41eb4070356ac945af524be8cbfd8235ff64736f6c63430008070033a2646970667358221220209d426cac83409e31123c6228441d1955e6f187b0152a72550871b8f9233c9864736f6c63430008070033",
  "linkReferences": {},
  "deployedLinkReferences": {}
}