{
  "_format": "hh-sol-artifact-1",
  "contractName": "Union",
  "sourceName": "contracts/Union.sol",
  "abi": [
    {
      "inputs": [],
      "stateMutability": "nonpayable",
      "type": "constructor"
    },
    {
      "anonymous": false,
      "inputs": [
        {
          "indexed": false,
          "internalType": "bool",
          "name": "success",
          "type": "bool"
        },
        {
          "indexed": false,
          "internalType": "bytes",
          "name": "data",
          "type": "bytes"
        }
      ],
      "name": "Add",
      "type": "event"
    },
    {
      "anonymous": false,
      "inputs": [
        {
          "indexed": true,
          "internalType": "address",
          "name": "sender",
          "type": "address"
        },
        {
          "indexed": false,
          "internalType": "uint256",
          "name": "amount",
          "type": "uint256"
        }
      ],
      "name": "Deposit",
      "type": "event"
    },
    {
      "anonymous": false,
      "inputs": [
        {
          "indexed": false,
          "internalType": "bool",
          "name": "success",
          "type": "bool"
        },
        {
          "indexed": false,
          "internalType": "bytes",
          "name": "data",
          "type": "bytes"
        }
      ],
      "name": "Exit",
      "type": "event"
    },
    {
      "anonymous": false,
      "inputs": [
        {
          "indexed": false,
          "internalType": "bool",
          "name": "success",
          "type": "bool"
        },
        {
          "indexed": false,
          "internalType": "bytes",
          "name": "data",
          "type": "bytes"
        }
      ],
      "name": "Finish",
      "type": "event"
    },
    {
      "anonymous": false,
      "inputs": [
        {
          "indexed": false,
          "internalType": "bool",
          "name": "success",
          "type": "bool"
        },
        {
          "indexed": false,
          "internalType": "bytes",
          "name": "data",
          "type": "bytes"
        }
      ],
      "name": "Full",
      "type": "event"
    },
    {
      "anonymous": false,
      "inputs": [
        {
          "indexed": false,
          "internalType": "bool",
          "name": "success",
          "type": "bool"
        },
        {
          "indexed": false,
          "internalType": "bytes",
          "name": "data",
          "type": "bytes"
        }
      ],
      "name": "Slash",
      "type": "event"
    },
    {
      "anonymous": false,
      "inputs": [
        {
          "indexed": true,
          "internalType": "address",
          "name": "receiver",
          "type": "address"
        },
        {
          "indexed": false,
          "internalType": "uint256",
          "name": "amount",
          "type": "uint256"
        }
      ],
      "name": "Withdrawl",
      "type": "event"
    },
    {
      "inputs": [],
      "name": "CUDeposit",
      "outputs": [],
      "stateMutability": "nonpayable",
      "type": "function"
    },
    {
      "inputs": [],
      "name": "CUReceive",
      "outputs": [],
      "stateMutability": "nonpayable",
      "type": "function"
    },
    {
      "inputs": [],
      "name": "amount",
      "outputs": [
        {
          "internalType": "int256",
          "name": "",
          "type": "int256"
        }
      ],
      "stateMutability": "view",
      "type": "function"
    },
    {
      "inputs": [],
      "name": "balanceOf",
      "outputs": [
        {
          "internalType": "uint256",
          "name": "",
          "type": "uint256"
        }
      ],
      "stateMutability": "view",
      "type": "function"
    },
    {
      "inputs": [],
      "name": "count",
      "outputs": [
        {
          "internalType": "uint256",
          "name": "",
          "type": "uint256"
        }
      ],
      "stateMutability": "view",
      "type": "function"
    },
    {
      "inputs": [],
      "name": "dueDate",
      "outputs": [
        {
          "internalType": "uint256",
          "name": "",
          "type": "uint256"
        }
      ],
      "stateMutability": "view",
      "type": "function"
    },
    {
      "inputs": [
        {
          "internalType": "int256",
          "name": "order",
          "type": "int256"
        }
      ],
      "name": "exit",
      "outputs": [],
      "stateMutability": "nonpayable",
      "type": "function"
    },
    {
      "inputs": [],
      "name": "factory",
      "outputs": [
        {
          "internalType": "address",
          "name": "",
          "type": "address"
        }
      ],
      "stateMutability": "view",
      "type": "function"
    },
    {
      "inputs": [],
      "name": "factoryCont",
      "outputs": [
        {
          "internalType": "address",
          "name": "",
          "type": "address"
        }
      ],
      "stateMutability": "view",
      "type": "function"
    },
    {
      "inputs": [
        {
          "internalType": "address",
          "name": "participant",
          "type": "address"
        }
      ],
      "name": "getOrder",
      "outputs": [
        {
          "internalType": "int256",
          "name": "order",
          "type": "int256"
        }
      ],
      "stateMutability": "view",
      "type": "function"
    },
    {
      "inputs": [],
      "name": "getUnionOrder",
      "outputs": [
        {
          "internalType": "uint256[]",
          "name": "",
          "type": "uint256[]"
        }
      ],
      "stateMutability": "view",
      "type": "function"
    },
    {
      "inputs": [],
      "name": "initDate",
      "outputs": [
        {
          "internalType": "uint256",
          "name": "",
          "type": "uint256"
        }
      ],
      "stateMutability": "view",
      "type": "function"
    },
    {
      "inputs": [
        {
          "internalType": "address",
          "name": "_token",
          "type": "address"
        },
        {
          "internalType": "int256",
          "name": "_people",
          "type": "int256"
        },
        {
          "internalType": "int256",
          "name": "_amount",
          "type": "int256"
        },
        {
          "internalType": "string",
          "name": "_name",
          "type": "string"
        },
        {
          "internalType": "address",
          "name": "_swapCont",
          "type": "address"
        },
        {
          "internalType": "address",
          "name": "_listCont",
          "type": "address"
        },
        {
          "internalType": "address",
          "name": "_factoryCont",
          "type": "address"
        }
      ],
      "name": "initialize",
      "outputs": [],
      "stateMutability": "nonpayable",
      "type": "function"
    },
    {
      "inputs": [],
      "name": "isActivate",
      "outputs": [
        {
          "internalType": "bool",
          "name": "",
          "type": "bool"
        }
      ],
      "stateMutability": "view",
      "type": "function"
    },
    {
      "inputs": [],
      "name": "isFull",
      "outputs": [
        {
          "internalType": "bool",
          "name": "",
          "type": "bool"
        }
      ],
      "stateMutability": "view",
      "type": "function"
    },
    {
      "inputs": [
        {
          "internalType": "address",
          "name": "",
          "type": "address"
        }
      ],
      "name": "isParticipate",
      "outputs": [
        {
          "internalType": "bool",
          "name": "",
          "type": "bool"
        }
      ],
      "stateMutability": "view",
      "type": "function"
    },
    {
      "inputs": [],
      "name": "listCont",
      "outputs": [
        {
          "internalType": "address",
          "name": "",
          "type": "address"
        }
      ],
      "stateMutability": "view",
      "type": "function"
    },
    {
      "inputs": [],
      "name": "name",
      "outputs": [
        {
          "internalType": "string",
          "name": "",
          "type": "string"
        }
      ],
      "stateMutability": "view",
      "type": "function"
    },
    {
      "inputs": [],
      "name": "participantCount",
      "outputs": [
        {
          "internalType": "uint256",
          "name": "",
          "type": "uint256"
        }
      ],
      "stateMutability": "view",
      "type": "function"
    },
    {
      "inputs": [
        {
          "internalType": "int256",
          "name": "",
          "type": "int256"
        }
      ],
      "name": "participants",
      "outputs": [
        {
          "internalType": "address payable",
          "name": "joiner",
          "type": "address"
        },
        {
          "internalType": "bool",
          "name": "hasCollateral",
          "type": "bool"
        },
        {
          "internalType": "int256",
          "name": "interest",
          "type": "int256"
        },
        {
          "internalType": "int256",
          "name": "order",
          "type": "int256"
        },
        {
          "internalType": "bool",
          "name": "isDeposit",
          "type": "bool"
        }
      ],
      "stateMutability": "view",
      "type": "function"
    },
    {
      "inputs": [
        {
          "internalType": "int256",
          "name": "order",
          "type": "int256"
        }
      ],
      "name": "participate",
      "outputs": [],
      "stateMutability": "payable",
      "type": "function"
    },
    {
      "inputs": [],
      "name": "people",
      "outputs": [
        {
          "internalType": "int256",
          "name": "",
          "type": "int256"
        }
      ],
      "stateMutability": "view",
      "type": "function"
    },
    {
      "inputs": [],
      "name": "periodicPayment",
      "outputs": [
        {
          "internalType": "int256",
          "name": "",
          "type": "int256"
        }
      ],
      "stateMutability": "view",
      "type": "function"
    },
    {
      "inputs": [],
      "name": "round",
      "outputs": [
        {
          "internalType": "int256",
          "name": "",
          "type": "int256"
        }
      ],
      "stateMutability": "view",
      "type": "function"
    },
    {
      "inputs": [],
      "name": "swapCont",
      "outputs": [
        {
          "internalType": "address",
          "name": "",
          "type": "address"
        }
      ],
      "stateMutability": "view",
      "type": "function"
    },
    {
      "inputs": [],
      "name": "token",
      "outputs": [
        {
          "internalType": "contract ERC20",
          "name": "",
          "type": "address"
        }
      ],
      "stateMutability": "view",
      "type": "function"
    }
  ],
  "bytecode": "0x608060405234801561001057600080fd5b50336000806101000a81548173ffffffffffffffffffffffffffffffffffffffff021916908373ffffffffffffffffffffffffffffffffffffffff160217905550613e61806100606000396000f3fe6080604052600436106101815760003560e01c8063786716fe116100d1578063c4908bd01161008a578063e512b11411610064578063e512b11414610539578063fc0c546a14610562578063fd2f91181461058d578063ffa68839146105b857610181565b8063c4908bd0146104ba578063ca0cc621146104d1578063e2b18868146104fc57610181565b8063786716fe146103a2578063a194cf33146103cd578063aa8c217c1461040e578063babd3d9a14610439578063c233d30c14610464578063c45a01551461048f57610181565b8063362f04c01161013e5780636eba2b13116101185780636eba2b13146102e45780636fe830da14610321578063722713f71461034c578063783f6af51461037757610181565b8063362f04c014610286578063438e2444146102b15780636eb4a30c146102cd57610181565b806306661abd1461018657806306fdde03146101b1578063146ca531146101dc57806314e1db5c146102075780632e388be414610232578063311fdd351461025d575b600080fd5b34801561019257600080fd5b5061019b6105e3565b6040516101a89190613229565b60405180910390f35b3480156101bd57600080fd5b506101c66105e9565b6040516101d39190612f65565b60405180910390f35b3480156101e857600080fd5b506101f1610677565b6040516101fe9190612f4a565b60405180910390f35b34801561021357600080fd5b5061021c61067d565b6040516102299190612ec2565b60405180910390f35b34801561023e57600080fd5b50610247610782565b6040516102549190612da2565b60405180910390f35b34801561026957600080fd5b50610284600480360381019061027f9190612864565b6107a8565b005b34801561029257600080fd5b5061029b610d07565b6040516102a89190613229565b60405180910390f35b6102cb60048036038101906102c69190612864565b610d0d565b005b3480156102d957600080fd5b506102e26113a9565b005b3480156102f057600080fd5b5061030b6004803603810190610306919061274c565b6115c9565b6040516103189190612f4a565b60405180910390f35b34801561032d57600080fd5b50610336611682565b6040516103439190612ee4565b60405180910390f35b34801561035857600080fd5b50610361611695565b60405161036e9190613229565b60405180910390f35b34801561038357600080fd5b5061038c61169d565b6040516103999190612f4a565b60405180910390f35b3480156103ae57600080fd5b506103b76116a3565b6040516103c49190613229565b60405180910390f35b3480156103d957600080fd5b506103f460048036038101906103ef9190612864565b6116a9565b604051610405959493929190612dbd565b60405180910390f35b34801561041a57600080fd5b50610423611719565b6040516104309190612f4a565b60405180910390f35b34801561044557600080fd5b5061044e61171f565b60405161045b9190612ee4565b60405180910390f35b34801561047057600080fd5b50610479611732565b6040516104869190612da2565b60405180910390f35b34801561049b57600080fd5b506104a4611758565b6040516104b19190612da2565b60405180910390f35b3480156104c657600080fd5b506104cf61177c565b005b3480156104dd57600080fd5b506104e66118fd565b6040516104f39190612da2565b60405180910390f35b34801561050857600080fd5b50610523600480360381019061051e919061274c565b611923565b6040516105309190612ee4565b60405180910390f35b34801561054557600080fd5b50610560600480360381019061055b9190612779565b611943565b005b34801561056e57600080fd5b50610577611c17565b6040516105849190612f2f565b60405180910390f35b34801561059957600080fd5b506105a2611c3d565b6040516105af9190612f4a565b60405180910390f35b3480156105c457600080fd5b506105cd611c43565b6040516105da9190613229565b60405180910390f35b600a5481565b600780546105f6906137a7565b80601f0160208091040260200160405190810160405280929190818152602001828054610622906137a7565b801561066f5780601f106106445761010080835404028352916020019161066f565b820191906000526020600020905b81548152906001019060200180831161065257829003601f168201915b505050505081565b60095481565b6060600060055467ffffffffffffffff81111561069d5761069c613989565b5b6040519080825280602002602001820160405280156106cb5781602001602082028036833780820191505090505b50905060005b60055481121561077a57600073ffffffffffffffffffffffffffffffffffffffff16600f600083815260200190815260200160002060000160009054906101000a900473ffffffffffffffffffffffffffffffffffffffff1673ffffffffffffffffffffffffffffffffffffffff161461076757600182828151811061075a5761075961395a565b5b6020026020010181815250505b80806107729061380a565b9150506106d1565b508091505090565b600360009054906101000a900473ffffffffffffffffffffffffffffffffffffffff1681565b6000811380156107ba57506005548113155b6107f9576040517f08c379a00000000000000000000000000000000000000000000000000000000081526004016107f090612fc9565b60405180910390fd5b3373ffffffffffffffffffffffffffffffffffffffff16600f600060018461082191906135c7565b815260200190815260200160002060000160009054906101000a900473ffffffffffffffffffffffffffffffffffffffff1673ffffffffffffffffffffffffffffffffffffffff16146108a9576040517f08c379a00000000000000000000000000000000000000000000000000000000081526004016108a0906130e9565b60405180910390fd5b60001515600e60019054906101000a900460ff161515146108ff576040517f08c379a00000000000000000000000000000000000000000000000000000000081526004016108f690613029565b60405180910390fd5b60001515600f600060018461091491906135c7565b815260200190815260200160002060030160009054906101000a900460ff1615151415610996573373ffffffffffffffffffffffffffffffffffffffff166108fc6127106006546109659190613415565b9081150290604051600060405180830381858888f19350505050158015610990573d6000803e3d6000fd5b50610ab8565b3373ffffffffffffffffffffffffffffffffffffffff166108fc61271060016005546109c291906135c7565b6008546109cf91906134b0565b6109d99190613415565b9081150290604051600060405180830381858888f19350505050158015610a04573d6000803e3d6000fd5b50600160009054906101000a900473ffffffffffffffffffffffffffffffffffffffff1673ffffffffffffffffffffffffffffffffffffffff1663a9059cbb336008546040518363ffffffff1660e01b8152600401610a64929190612e99565b602060405180830381600087803b158015610a7e57600080fd5b505af1158015610a92573d6000803e3d6000fd5b505050506040513d601f19601f82011682018060405250810190610ab69190612837565b505b600080600360009054906101000a900473ffffffffffffffffffffffffffffffffffffffff1673ffffffffffffffffffffffffffffffffffffffff163330604051602401610b07929190612e39565b6040516020818303038152906040527fa625403a000000000000000000000000000000000000000000000000000000007bffffffffffffffffffffffffffffffffffffffffffffffffffffffff19166020820180517bffffffffffffffffffffffffffffffffffffffffffffffffffffffff8381831617835250505050604051610b919190612d8b565b6000604051808303816000865af19150503d8060008114610bce576040519150601f19603f3d011682016040523d82523d6000602084013e610bd3565b606091505b50915091507f30cbeb4d094114a50e73a431e844ae3aef07696d0e960ae5b6e81cd3ccd9972a8282604051610c09929190612eff565b60405180910390a16000601060003373ffffffffffffffffffffffffffffffffffffffff1673ffffffffffffffffffffffffffffffffffffffff16815260200190815260200160002060006101000a81548160ff021916908315150217905550600f6000600185610c7a91906135c7565b8152602001908152602001600020600080820160006101000a81549073ffffffffffffffffffffffffffffffffffffffff02191690556000820160146101000a81549060ff0219169055600182016000905560028201600090556003820160006101000a81549060ff02191690555050600b6000815480929190610cfd9061377d565b9190505550505050565b600b5481565b600081138015610d1f57506005548113155b610d5e576040517f08c379a0000000000000000000000000000000000000000000000000000000008152600401610d5590612fc9565b60405180910390fd5b600073ffffffffffffffffffffffffffffffffffffffff16600f6000600184610d8791906135c7565b815260200190815260200160002060000160009054906101000a900473ffffffffffffffffffffffffffffffffffffffff1673ffffffffffffffffffffffffffffffffffffffff1614610e0f576040517f08c379a0000000000000000000000000000000000000000000000000000000008152600401610e0690613009565b60405180910390fd5b60001515601060003373ffffffffffffffffffffffffffffffffffffffff1673ffffffffffffffffffffffffffffffffffffffff16815260200190815260200160002060009054906101000a900460ff16151514610ea2576040517f08c379a0000000000000000000000000000000000000000000000000000000008152600401610e9990613189565b60405180910390fd5b60001515600e60019054906101000a900460ff16151514610ef8576040517f08c379a0000000000000000000000000000000000000000000000000000000008152600401610eef90612fa9565b60405180910390fd5b6040518060a001604052803373ffffffffffffffffffffffffffffffffffffffff1681526020016000151581526020016001600554610f3791906135c7565b600184610f4491906135c7565b6002610f5091906134b0565b610f5a91906135c7565b815260200182815260200160001515815250600f6000600184610f7d91906135c7565b815260200190815260200160002060008201518160000160006101000a81548173ffffffffffffffffffffffffffffffffffffffff021916908373ffffffffffffffffffffffffffffffffffffffff16021790555060208201518160000160146101000a81548160ff021916908315150217905550604082015181600101556060820151816002015560808201518160030160006101000a81548160ff0219169083151502179055509050506001601060003373ffffffffffffffffffffffffffffffffffffffff1673ffffffffffffffffffffffffffffffffffffffff16815260200190815260200160002060006101000a81548160ff021916908315150217905550600b600081548092919061109490613853565b9190505550600080600360009054906101000a900473ffffffffffffffffffffffffffffffffffffffff1673ffffffffffffffffffffffffffffffffffffffff1633306040516024016110e8929190612e39565b6040516020818303038152906040527f52c28fab000000000000000000000000000000000000000000000000000000007bffffffffffffffffffffffffffffffffffffffffffffffffffffffff19166020820180517bffffffffffffffffffffffffffffffffffffffffffffffffffffffff83818316178352505050506040516111729190612d8b565b6000604051808303816000865af19150503d80600081146111af576040519150601f19603f3d011682016040523d82523d6000602084013e6111b4565b606091505b50915091507f2e51dff673f3c99ee1a8a6be6ffbc9b0fa03ae5d63402abd233234d4b8e49c8682826040516111ea929190612eff565b60405180910390a1600f600060018561120391906135c7565b815260200190815260200160002060000160009054906101000a900473ffffffffffffffffffffffffffffffffffffffff1673ffffffffffffffffffffffffffffffffffffffff163373ffffffffffffffffffffffffffffffffffffffff16146112a2576040517f08c379a000000000000000000000000000000000000000000000000000000000815260040161129990612fe9565b60405180910390fd5b60001515600f60006001866112b791906135c7565b815260200190815260200160002060000160149054906101000a900460ff16151514611318576040517f08c379a000000000000000000000000000000000000000000000000000000000815260040161130f90613209565b60405180910390fd5b6127106006546113289190613415565b3414611369576040517f08c379a000000000000000000000000000000000000000000000000000000000815260040161136090613149565b60405180910390fd5b6001600f600060018661137c91906135c7565b815260200190815260200160002060000160146101000a81548160ff021916908315150217905550505050565b60011515600e60019054906101000a900460ff161515146113ff576040517f08c379a00000000000000000000000000000000000000000000000000000000081526004016113f690613069565b60405180910390fd5b3373ffffffffffffffffffffffffffffffffffffffff16600f6000600160095461142991906135c7565b815260200190815260200160002060000160009054906101000a900473ffffffffffffffffffffffffffffffffffffffff1673ffffffffffffffffffffffffffffffffffffffff16146114b1576040517f08c379a00000000000000000000000000000000000000000000000000000000081526004016114a890613129565b60405180910390fd5b600d5442116114f5576040517f08c379a00000000000000000000000000000000000000000000000000000000081526004016114ec906131c9565b60405180910390fd5b60005b6005548112156115c65760001515600f600083815260200190815260200160002060030160009054906101000a900460ff16151514156115b35761153a611c49565b6001600f600083815260200190815260200160002060030160006101000a81548160ff021916908315150217905550600a600081548092919061157c90613853565b9190505550600554600a5414156115b25742600c8190555060b4600c546115a391906133bf565b600d819055506115b1611da9565b5b5b80806115be9061380a565b9150506114f8565b50565b600080600090505b600554811215611677578273ffffffffffffffffffffffffffffffffffffffff16600f600083815260200190815260200160002060000160009054906101000a900473ffffffffffffffffffffffffffffffffffffffff1673ffffffffffffffffffffffffffffffffffffffff16141561166457600f60008281526020019081526020016000206002015491505061167d565b808061166f9061380a565b9150506115d1565b50600090505b919050565b600e60009054906101000a900460ff1681565b600047905090565b60055481565b600d5481565b600f6020528060005260406000206000915090508060000160009054906101000a900473ffffffffffffffffffffffffffffffffffffffff16908060000160149054906101000a900460ff16908060010154908060020154908060030160009054906101000a900460ff16905085565b60065481565b600e60019054906101000a900460ff1681565b600260009054906101000a900473ffffffffffffffffffffffffffffffffffffffff1681565b60008054906101000a900473ffffffffffffffffffffffffffffffffffffffff1681565b6000611787336115c9565b905060055460095413156117d0576040517f08c379a00000000000000000000000000000000000000000000000000000000081526004016117c790613169565b60405180910390fd5b600160095413156118e457600d54421115611876576117ed611c49565b6001600f600060018461180091906135c7565b815260200190815260200160002060030160006101000a81548160ff021916908315150217905550600a600081548092919061183b90613853565b9190505550600554600a5414156118715742600c8190555060b4600c5461186291906133bf565b600d81905550611870611da9565b5b6118df565b600d54421115801561189657506078600d54611892919061365b565b4210155b6118d5576040517f08c379a00000000000000000000000000000000000000000000000000000000081526004016118cc906130c9565b60405180910390fd5b6118de816120e6565b5b6118fa565b600160095414156118f9576118f8816120e6565b5b5b50565b600460009054906101000a900473ffffffffffffffffffffffffffffffffffffffff1681565b60106020528060005260406000206000915054906101000a900460ff1681565b60008054906101000a900473ffffffffffffffffffffffffffffffffffffffff1673ffffffffffffffffffffffffffffffffffffffff163373ffffffffffffffffffffffffffffffffffffffff16146119d1576040517f08c379a00000000000000000000000000000000000000000000000000000000081526004016119c8906130a9565b60405180910390fd5b670de0b6b3a7640000851215611a1c576040517f08c379a0000000000000000000000000000000000000000000000000000000008152600401611a1390613049565b60405180910390fd5b60038612158015611a2e5750600d8613155b8015611a4657506001600287611a44919061389c565b145b611a85576040517f08c379a0000000000000000000000000000000000000000000000000000000008152600401611a7c90613089565b60405180910390fd5b86600160006101000a81548173ffffffffffffffffffffffffffffffffffffffff021916908373ffffffffffffffffffffffffffffffffffffffff16021790555082600260006101000a81548173ffffffffffffffffffffffffffffffffffffffff021916908373ffffffffffffffffffffffffffffffffffffffff16021790555081600360006101000a81548173ffffffffffffffffffffffffffffffffffffffff021916908373ffffffffffffffffffffffffffffffffffffffff16021790555080600460006101000a81548173ffffffffffffffffffffffffffffffffffffffff021916908373ffffffffffffffffffffffffffffffffffffffff16021790555085600581905550846006819055508360079080519060200190611bad9291906125e5565b508585611bba9190613415565b60088190555060016009819055506000600a819055506000600b819055506001600e60006101000a81548160ff0219169083151502179055506000600e60016101000a81548160ff02191690831515021790555050505050505050565b600160009054906101000a900473ffffffffffffffffffffffffffffffffffffffff1681565b60085481565b600c5481565b600080600260009054906101000a900473ffffffffffffffffffffffffffffffffffffffff1673ffffffffffffffffffffffffffffffffffffffff16612710600854611c95919061347f565b6040516024016040516020818303038152906040527fa6f2ae3a000000000000000000000000000000000000000000000000000000007bffffffffffffffffffffffffffffffffffffffffffffffffffffffff19166020820180517bffffffffffffffffffffffffffffffffffffffffffffffffffffffff8381831617835250505050604051611d259190612d8b565b60006040518083038185875af1925050503d8060008114611d62576040519150601f19603f3d011682016040523d82523d6000602084013e611d67565b606091505b50915091507f5721e6559c8de1c1f387af1634e9f30eced11790cfa1ff2b9faa65a3ed3e904f8282604051611d9d929190612eff565b60405180910390a15050565b600160009054906101000a900473ffffffffffffffffffffffffffffffffffffffff1673ffffffffffffffffffffffffffffffffffffffff1663a9059cbb600f60006001600954611dfa91906135c7565b815260200190815260200160002060000160009054906101000a900473ffffffffffffffffffffffffffffffffffffffff166064600f60006001600954611e4191906135c7565b8152602001908152602001600020600101546064611e5f919061332b565b600654611e6c91906134b0565b611e769190613415565b6040518363ffffffff1660e01b8152600401611e93929190612e10565b602060405180830381600087803b158015611ead57600080fd5b505af1158015611ec1573d6000803e3d6000fd5b505050506040513d601f19601f82011682018060405250810190611ee59190612837565b5060096000815480929190611ef99061380a565b91905055506000600a8190555060005b600554811215611f55576000600f600083815260200190815260200160002060030160006101000a81548160ff0219169083151502179055508080611f4d9061380a565b915050611f09565b506005546001600954611f6891906135c7565b14156120e4576000600e60006101000a81548160ff021916908315150217905550600080600460009054906101000a900473ffffffffffffffffffffffffffffffffffffffff1673ffffffffffffffffffffffffffffffffffffffff166007604051602401611fd79190612f87565b6040516020818303038152906040527f83588a92000000000000000000000000000000000000000000000000000000007bffffffffffffffffffffffffffffffffffffffffffffffffffffffff19166020820180517bffffffffffffffffffffffffffffffffffffffffffffffffffffffff83818316178352505050506040516120619190612d8b565b6000604051808303816000865af19150503d806000811461209e576040519150601f19603f3d011682016040523d82523d6000602084013e6120a3565b606091505b50915091507f2dbb38a6a943c4f61dfa90dcee112197adad60b0992c0f863ebe6f9bb30771ab82826040516120d9929190612eff565b60405180910390a150505b565b60011515600f60006001846120fb91906135c7565b815260200190815260200160002060000160149054906101000a900460ff1615151461215c576040517f08c379a0000000000000000000000000000000000000000000000000000000008152600401612153906131a9565b60405180910390fd5b60001515600f600060018461217191906135c7565b815260200190815260200160002060030160009054906101000a900460ff161515146121d2576040517f08c379a00000000000000000000000000000000000000000000000000000000081526004016121c9906131e9565b60405180910390fd5b6000600160009054906101000a900473ffffffffffffffffffffffffffffffffffffffff1673ffffffffffffffffffffffffffffffffffffffff1663dd62ed3e33306040518363ffffffff1660e01b8152600401612231929190612e39565b60206040518083038186803b15801561224957600080fd5b505afa15801561225d573d6000803e3d6000fd5b505050506040513d601f19601f820116820180604052508101906122819190612891565b90506008548110156122c8576040517f08c379a00000000000000000000000000000000000000000000000000000000081526004016122bf90613109565b60405180910390fd5b600160009054906101000a900473ffffffffffffffffffffffffffffffffffffffff1673ffffffffffffffffffffffffffffffffffffffff166323b872dd33306008546040518463ffffffff1660e01b815260040161232993929190612e62565b602060405180830381600087803b15801561234357600080fd5b505af1158015612357573d6000803e3d6000fd5b505050506040513d601f19601f8201168201806040525081019061237b9190612837565b5061238461258d565b6001600f600060018561239791906135c7565b815260200190815260200160002060030160006101000a81548160ff021916908315150217905550600a60008154809291906123d290613853565b9190505550600554600a541415612589576001600954141561254957600080600460009054906101000a900473ffffffffffffffffffffffffffffffffffffffff1673ffffffffffffffffffffffffffffffffffffffff16600760405160240161243c9190612f87565b6040516020818303038152906040527f92338ac9000000000000000000000000000000000000000000000000000000007bffffffffffffffffffffffffffffffffffffffffffffffffffffffff19166020820180517bffffffffffffffffffffffffffffffffffffffffffffffffffffffff83818316178352505050506040516124c69190612d8b565b6000604051808303816000865af19150503d8060008114612503576040519150601f19603f3d011682016040523d82523d6000602084013e612508565b606091505b50915091507feb721d50a784497a7959c40e2723f0343c8e195929b9b6ad62e810852b1fc54f828260405161253e929190612eff565b60405180910390a150505b6001600e60016101000a81548160ff02191690831515021790555042600c8190555060b4600c5461257a91906133bf565b600d81905550612588611da9565b5b5050565b3373ffffffffffffffffffffffffffffffffffffffff166108fc6127106008546125b7919061347f565b9081150290604051600060405180830381858888f193505050501580156125e2573d6000803e3d6000fd5b50565b8280546125f1906137a7565b90600052602060002090601f016020900481019282612613576000855561265a565b82601f1061262c57805160ff191683800117855561265a565b8280016001018555821561265a579182015b8281111561265957825182559160200191906001019061263e565b5b509050612667919061266b565b5090565b5b8082111561268457600081600090555060010161266c565b5090565b600061269b61269684613269565b613244565b9050828152602081018484840111156126b7576126b66139bd565b5b6126c284828561373b565b509392505050565b6000813590506126d981613dcf565b92915050565b6000815190506126ee81613de6565b92915050565b60008135905061270381613dfd565b92915050565b600082601f83011261271e5761271d6139b8565b5b813561272e848260208601612688565b91505092915050565b60008151905061274681613e14565b92915050565b600060208284031215612762576127616139c7565b5b6000612770848285016126ca565b91505092915050565b600080600080600080600060e0888a031215612798576127976139c7565b5b60006127a68a828b016126ca565b97505060206127b78a828b016126f4565b96505060406127c88a828b016126f4565b955050606088013567ffffffffffffffff8111156127e9576127e86139c2565b5b6127f58a828b01612709565b94505060806128068a828b016126ca565b93505060a06128178a828b016126ca565b92505060c06128288a828b016126ca565b91505092959891949750929550565b60006020828403121561284d5761284c6139c7565b5b600061285b848285016126df565b91505092915050565b60006020828403121561287a576128796139c7565b5b6000612888848285016126f4565b91505092915050565b6000602082840312156128a7576128a66139c7565b5b60006128b584828501612737565b91505092915050565b60006128ca8383612d6d565b60208301905092915050565b6128df816136f3565b82525050565b6128ee816136a1565b82525050565b6128fd8161368f565b82525050565b600061290e826132bf565b61291881856132ed565b93506129238361329a565b8060005b8381101561295457815161293b88826128be565b9750612946836132e0565b925050600181019050612927565b5085935050505092915050565b61296a816136b3565b82525050565b600061297b826132ca565b61298581856132fe565b935061299581856020860161374a565b61299e816139cc565b840191505092915050565b60006129b4826132ca565b6129be818561330f565b93506129ce81856020860161374a565b80840191505092915050565b6129e381613705565b82525050565b6129f2816136bf565b82525050565b6000612a03826132d5565b612a0d818561331a565b9350612a1d81856020860161374a565b612a26816139cc565b840191505092915050565b60008154612a3e816137a7565b612a48818661331a565b94506001821660008114612a635760018114612a7557612aa8565b60ff1983168652602086019350612aa8565b612a7e856132aa565b60005b83811015612aa057815481890152600182019150602081019050612a81565b808801955050505b50505092915050565b6000612abe600a8361331a565b9150612ac9826139dd565b602082019050919050565b6000612ae160318361331a565b9150612aec82613a06565b604082019050919050565b6000612b04602d8361331a565b9150612b0f82613a55565b604082019050919050565b6000612b2760138361331a565b9150612b3282613aa4565b602082019050919050565b6000612b4a60168361331a565b9150612b5582613acd565b602082019050919050565b6000612b6d60148361331a565b9150612b7882613af6565b602082019050919050565b6000612b9060128361331a565b9150612b9b82613b1f565b602082019050919050565b6000612bb360338361331a565b9150612bbe82613b48565b604082019050919050565b6000612bd6600e8361331a565b9150612be182613b97565b602082019050919050565b6000612bf9601c8361331a565b9150612c0482613bc0565b602082019050919050565b6000612c1c600b8361331a565b9150612c2782613be9565b602082019050919050565b6000612c3f60198361331a565b9150612c4a82613c12565b602082019050919050565b6000612c62600d8361331a565b9150612c6d82613c3b565b602082019050919050565b6000612c8560258361331a565b9150612c9082613c64565b604082019050919050565b6000612ca860168361331a565b9150612cb382613cb3565b602082019050919050565b6000612ccb60138361331a565b9150612cd682613cdc565b602082019050919050565b6000612cee601f8361331a565b9150612cf982613d05565b602082019050919050565b6000612d11600e8361331a565b9150612d1c82613d2e565b602082019050919050565b6000612d3460218361331a565b9150612d3f82613d57565b604082019050919050565b6000612d5760198361331a565b9150612d6282613da6565b602082019050919050565b612d76816136e9565b82525050565b612d85816136e9565b82525050565b6000612d9782846129a9565b915081905092915050565b6000602082019050612db760008301846128f4565b92915050565b600060a082019050612dd260008301886128e5565b612ddf6020830187612961565b612dec60408301866129e9565b612df960608301856129e9565b612e066080830184612961565b9695505050505050565b6000604082019050612e2560008301856128d6565b612e326020830184612d7c565b9392505050565b6000604082019050612e4e60008301856128f4565b612e5b60208301846128f4565b9392505050565b6000606082019050612e7760008301866128f4565b612e8460208301856128f4565b612e916040830184612d7c565b949350505050565b6000604082019050612eae60008301856128f4565b612ebb6020830184612d7c565b9392505050565b60006020820190508181036000830152612edc8184612903565b905092915050565b6000602082019050612ef96000830184612961565b92915050565b6000604082019050612f146000830185612961565b8181036020830152612f268184612970565b90509392505050565b6000602082019050612f4460008301846129da565b92915050565b6000602082019050612f5f60008301846129e9565b92915050565b60006020820190508181036000830152612f7f81846129f8565b905092915050565b60006020820190508181036000830152612fa18184612a31565b905092915050565b60006020820190508181036000830152612fc281612ab1565b9050919050565b60006020820190508181036000830152612fe281612ad4565b9050919050565b6000602082019050818103600083015261300281612af7565b9050919050565b6000602082019050818103600083015261302281612b1a565b9050919050565b6000602082019050818103600083015261304281612b3d565b9050919050565b6000602082019050818103600083015261306281612b60565b9050919050565b6000602082019050818103600083015261308281612b83565b9050919050565b600060208201905081810360008301526130a281612ba6565b9050919050565b600060208201905081810360008301526130c281612bc9565b9050919050565b600060208201905081810360008301526130e281612bec565b9050919050565b6000602082019050818103600083015261310281612c0f565b9050919050565b6000602082019050818103600083015261312281612c32565b9050919050565b6000602082019050818103600083015261314281612c55565b9050919050565b6000602082019050818103600083015261316281612c78565b9050919050565b6000602082019050818103600083015261318281612c9b565b9050919050565b600060208201905081810360008301526131a281612cbe565b9050919050565b600060208201905081810360008301526131c281612ce1565b9050919050565b600060208201905081810360008301526131e281612d04565b9050919050565b6000602082019050818103600083015261320281612d27565b9050919050565b6000602082019050818103600083015261322281612d4a565b9050919050565b600060208201905061323e6000830184612d7c565b92915050565b600061324e61325f565b905061325a82826137d9565b919050565b6000604051905090565b600067ffffffffffffffff82111561328457613283613989565b5b61328d826139cc565b9050602081019050919050565b6000819050602082019050919050565b60008190508160005260206000209050919050565b600081519050919050565b600081519050919050565b600081519050919050565b6000602082019050919050565b600082825260208201905092915050565b600082825260208201905092915050565b600081905092915050565b600082825260208201905092915050565b6000613336826136bf565b9150613341836136bf565b9250817f7fffffffffffffffffffffffffffffffffffffffffffffffffffffffffffffff0383136000831215161561337c5761337b6138cd565b5b817f80000000000000000000000000000000000000000000000000000000000000000383126000831216156133b4576133b36138cd565b5b828201905092915050565b60006133ca826136e9565b91506133d5836136e9565b9250827fffffffffffffffffffffffffffffffffffffffffffffffffffffffffffffffff0382111561340a576134096138cd565b5b828201905092915050565b6000613420826136bf565b915061342b836136bf565b92508261343b5761343a6138fc565b5b600160000383147f800000000000000000000000000000000000000000000000000000000000000083141615613474576134736138cd565b5b828205905092915050565b600061348a826136e9565b9150613495836136e9565b9250826134a5576134a46138fc565b5b828204905092915050565b60006134bb826136bf565b91506134c6836136bf565b9250827f7fffffffffffffffffffffffffffffffffffffffffffffffffffffffffffffff0482116000841360008413161615613505576135046138cd565b5b817f80000000000000000000000000000000000000000000000000000000000000000583126000841260008413161615613542576135416138cd565b5b827f8000000000000000000000000000000000000000000000000000000000000000058212600084136000841216161561357f5761357e6138cd565b5b827f7fffffffffffffffffffffffffffffffffffffffffffffffffffffffffffffff05821260008412600084121616156135bc576135bb6138cd565b5b828202905092915050565b60006135d2826136bf565b91506135dd836136bf565b9250827f800000000000000000000000000000000000000000000000000000000000000001821260008412151615613618576136176138cd565b5b827f7fffffffffffffffffffffffffffffffffffffffffffffffffffffffffffffff0182136000841216156136505761364f6138cd565b5b828203905092915050565b6000613666826136e9565b9150613671836136e9565b925082821015613684576136836138cd565b5b828203905092915050565b600061369a826136c9565b9050919050565b60006136ac826136c9565b9050919050565b60008115159050919050565b6000819050919050565b600073ffffffffffffffffffffffffffffffffffffffff82169050919050565b6000819050919050565b60006136fe82613717565b9050919050565b600061371082613717565b9050919050565b600061372282613729565b9050919050565b6000613734826136c9565b9050919050565b82818337600083830152505050565b60005b8381101561376857808201518184015260208101905061374d565b83811115613777576000848401525b50505050565b6000613788826136e9565b9150600082141561379c5761379b6138cd565b5b600182039050919050565b600060028204905060018216806137bf57607f821691505b602082108114156137d3576137d261392b565b5b50919050565b6137e2826139cc565b810181811067ffffffffffffffff8211171561380157613800613989565b5b80604052505050565b6000613815826136bf565b91507f7fffffffffffffffffffffffffffffffffffffffffffffffffffffffffffffff821415613848576138476138cd565b5b600182019050919050565b600061385e826136e9565b91507fffffffffffffffffffffffffffffffffffffffffffffffffffffffffffffffff821415613891576138906138cd565b5b600182019050919050565b60006138a7826136bf565b91506138b2836136bf565b9250826138c2576138c16138fc565b5b828207905092915050565b7f4e487b7100000000000000000000000000000000000000000000000000000000600052601160045260246000fd5b7f4e487b7100000000000000000000000000000000000000000000000000000000600052601260045260246000fd5b7f4e487b7100000000000000000000000000000000000000000000000000000000600052602260045260246000fd5b7f4e487b7100000000000000000000000000000000000000000000000000000000600052603260045260246000fd5b7f4e487b7100000000000000000000000000000000000000000000000000000000600052604160045260246000fd5b600080fd5b600080fd5b600080fd5b600080fd5b6000601f19601f8301169050919050565b7f46756c6c20556e696f6e00000000000000000000000000000000000000000000600082015250565b7f4f72646572206d75737420626967676572207468616e203020616e64206c657360008201527f73207468616e206d61782070656f706c65000000000000000000000000000000602082015250565b7f70617274696369706174696e672061646472657373206d757374206d6174636860008201527f65732077697468206f7264657200000000000000000000000000000000000000602082015250565b7f416c7265616479206578697374206f7264657200000000000000000000000000600082015250565b7f46756c6c20756e696f6e206973206e6f74206578697400000000000000000000600082015250565b7f6d696e696d756d20616d6f756e743a2031204355000000000000000000000000600082015250565b7f4e6f7420696e69746961746520756e696f6e0000000000000000000000000000600082015250565b7f6d696e696d756d2070656f706c653a20332026206d61782070656f706c653a2060008201527f31332c206f6e6c79206f6464206e756d62657200000000000000000000000000602082015250565b7f4e6f7420417574686f72697a6564000000000000000000000000000000000000600082015250565b7f596f752063616e206465706f73697420657861637420706572696f6400000000600082015250565b7f57726f6e67204f72646572000000000000000000000000000000000000000000600082015250565b7f436865636b2074686520746f6b656e20616c6c6f77616e636500000000000000600082015250565b7f4e6f7420796f7572207475726e00000000000000000000000000000000000000600082015250565b7f657468657227732076616c7565206973206d75737420657175616c204355206160008201527f6d6f756e74000000000000000000000000000000000000000000000000000000602082015250565b7f5468697320756e696f6e2069732066696e697368656400000000000000000000600082015250565b7f416c726561647920706172746963697061746500000000000000000000000000600082015250565b7f506c65617365206465706f73697420636f6c6c61746572616c20666972737400600082015250565b7f5965742072656365697665204355000000000000000000000000000000000000600082015250565b7f596f7520616c7265616479206465706f73697420696e207468697320726f756e60008201527f6400000000000000000000000000000000000000000000000000000000000000602082015250565b7f416c7265616479207375626d697420636f6c6c61746572616c00000000000000600082015250565b613dd88161368f565b8114613de357600080fd5b50565b613def816136b3565b8114613dfa57600080fd5b50565b613e06816136bf565b8114613e1157600080fd5b50565b613e1d816136e9565b8114613e2857600080fd5b5056fea26469706673582212206497314b5340ac2906f2cf9521641445a822f074a86d8ada53676c22b2fdca2f64736f6c63430008070033",
  "linkReferences": {},
  "deployedLinkReferences": {}
}