{
  "_format": "hh-sol-artifact-1",
  "contractName": "Union",
  "sourceName": "contracts/Union.sol",
  "abi": [
    {
      "inputs": [],
      "stateMutability": "nonpayable",
      "type": "constructor"
    },
    {
      "anonymous": false,
      "inputs": [
        {
          "indexed": false,
          "internalType": "bool",
          "name": "success",
          "type": "bool"
        },
        {
          "indexed": false,
          "internalType": "bytes",
          "name": "data",
          "type": "bytes"
        }
      ],
      "name": "Add",
      "type": "event"
    },
    {
      "anonymous": false,
      "inputs": [
        {
          "indexed": true,
          "internalType": "address",
          "name": "sender",
          "type": "address"
        },
        {
          "indexed": false,
          "internalType": "uint256",
          "name": "amount",
          "type": "uint256"
        }
      ],
      "name": "Deposit",
      "type": "event"
    },
    {
      "anonymous": false,
      "inputs": [
        {
          "indexed": false,
          "internalType": "bool",
          "name": "success",
          "type": "bool"
        },
        {
          "indexed": false,
          "internalType": "bytes",
          "name": "data",
          "type": "bytes"
        }
      ],
      "name": "Exit",
      "type": "event"
    },
    {
      "anonymous": false,
      "inputs": [
        {
          "indexed": false,
          "internalType": "bool",
          "name": "success",
          "type": "bool"
        },
        {
          "indexed": false,
          "internalType": "bytes",
          "name": "data",
          "type": "bytes"
        }
      ],
      "name": "Finish",
      "type": "event"
    },
    {
      "anonymous": false,
      "inputs": [
        {
          "indexed": false,
          "internalType": "bool",
          "name": "success",
          "type": "bool"
        },
        {
          "indexed": false,
          "internalType": "bytes",
          "name": "data",
          "type": "bytes"
        }
      ],
      "name": "Full",
      "type": "event"
    },
    {
      "anonymous": false,
      "inputs": [
        {
          "indexed": false,
          "internalType": "bool",
          "name": "success",
          "type": "bool"
        },
        {
          "indexed": false,
          "internalType": "bytes",
          "name": "data",
          "type": "bytes"
        }
      ],
      "name": "Slash",
      "type": "event"
    },
    {
      "anonymous": false,
      "inputs": [
        {
          "indexed": true,
          "internalType": "address",
          "name": "receiver",
          "type": "address"
        },
        {
          "indexed": false,
          "internalType": "uint256",
          "name": "amount",
          "type": "uint256"
        }
      ],
      "name": "Withdrawl",
      "type": "event"
    },
    {
      "inputs": [],
      "name": "CUDeposit",
      "outputs": [],
      "stateMutability": "nonpayable",
      "type": "function"
    },
    {
      "inputs": [],
      "name": "CUReceive",
      "outputs": [],
      "stateMutability": "nonpayable",
      "type": "function"
    },
    {
      "inputs": [],
      "name": "amount",
      "outputs": [
        {
          "internalType": "int256",
          "name": "",
          "type": "int256"
        }
      ],
      "stateMutability": "view",
      "type": "function"
    },
    {
      "inputs": [],
      "name": "balanceOf",
      "outputs": [
        {
          "internalType": "uint256",
          "name": "",
          "type": "uint256"
        }
      ],
      "stateMutability": "view",
      "type": "function"
    },
    {
      "inputs": [],
      "name": "count",
      "outputs": [
        {
          "internalType": "uint256",
          "name": "",
          "type": "uint256"
        }
      ],
      "stateMutability": "view",
      "type": "function"
    },
    {
      "inputs": [],
      "name": "dueDate",
      "outputs": [
        {
          "internalType": "uint256",
          "name": "",
          "type": "uint256"
        }
      ],
      "stateMutability": "view",
      "type": "function"
    },
    {
      "inputs": [
        {
          "internalType": "int256",
          "name": "order",
          "type": "int256"
        }
      ],
      "name": "exit",
      "outputs": [],
      "stateMutability": "nonpayable",
      "type": "function"
    },
    {
      "inputs": [],
      "name": "factory",
      "outputs": [
        {
          "internalType": "address",
          "name": "",
          "type": "address"
        }
      ],
      "stateMutability": "view",
      "type": "function"
    },
    {
      "inputs": [],
      "name": "factoryCont",
      "outputs": [
        {
          "internalType": "address",
          "name": "",
          "type": "address"
        }
      ],
      "stateMutability": "view",
      "type": "function"
    },
    {
      "inputs": [
        {
          "internalType": "address",
          "name": "participant",
          "type": "address"
        }
      ],
      "name": "getOrder",
      "outputs": [
        {
          "internalType": "int256",
          "name": "order",
          "type": "int256"
        }
      ],
      "stateMutability": "view",
      "type": "function"
    },
    {
      "inputs": [],
      "name": "getUnionOrder",
      "outputs": [
        {
          "internalType": "uint256[]",
          "name": "",
          "type": "uint256[]"
        }
      ],
      "stateMutability": "view",
      "type": "function"
    },
    {
      "inputs": [],
      "name": "initDate",
      "outputs": [
        {
          "internalType": "uint256",
          "name": "",
          "type": "uint256"
        }
      ],
      "stateMutability": "view",
      "type": "function"
    },
    {
      "inputs": [
        {
          "internalType": "address",
          "name": "_token",
          "type": "address"
        },
        {
          "internalType": "int256",
          "name": "_people",
          "type": "int256"
        },
        {
          "internalType": "int256",
          "name": "_amount",
          "type": "int256"
        },
        {
          "internalType": "string",
          "name": "_name",
          "type": "string"
        },
        {
          "internalType": "address",
          "name": "_swapCont",
          "type": "address"
        },
        {
          "internalType": "address",
          "name": "_listCont",
          "type": "address"
        },
        {
          "internalType": "address",
          "name": "_factoryCont",
          "type": "address"
        }
      ],
      "name": "initialize",
      "outputs": [],
      "stateMutability": "nonpayable",
      "type": "function"
    },
    {
      "inputs": [],
      "name": "isActivate",
      "outputs": [
        {
          "internalType": "bool",
          "name": "",
          "type": "bool"
        }
      ],
      "stateMutability": "view",
      "type": "function"
    },
    {
      "inputs": [],
      "name": "isFull",
      "outputs": [
        {
          "internalType": "bool",
          "name": "",
          "type": "bool"
        }
      ],
      "stateMutability": "view",
      "type": "function"
    },
    {
      "inputs": [
        {
          "internalType": "address",
          "name": "",
          "type": "address"
        }
      ],
      "name": "isParticipate",
      "outputs": [
        {
          "internalType": "bool",
          "name": "",
          "type": "bool"
        }
      ],
      "stateMutability": "view",
      "type": "function"
    },
    {
      "inputs": [],
      "name": "listCont",
      "outputs": [
        {
          "internalType": "address",
          "name": "",
          "type": "address"
        }
      ],
      "stateMutability": "view",
      "type": "function"
    },
    {
      "inputs": [],
      "name": "name",
      "outputs": [
        {
          "internalType": "string",
          "name": "",
          "type": "string"
        }
      ],
      "stateMutability": "view",
      "type": "function"
    },
    {
      "inputs": [],
      "name": "participantCount",
      "outputs": [
        {
          "internalType": "uint256",
          "name": "",
          "type": "uint256"
        }
      ],
      "stateMutability": "view",
      "type": "function"
    },
    {
      "inputs": [
        {
          "internalType": "int256",
          "name": "",
          "type": "int256"
        }
      ],
      "name": "participants",
      "outputs": [
        {
          "internalType": "address payable",
          "name": "joiner",
          "type": "address"
        },
        {
          "internalType": "bool",
          "name": "hasCollateral",
          "type": "bool"
        },
        {
          "internalType": "int256",
          "name": "interest",
          "type": "int256"
        },
        {
          "internalType": "int256",
          "name": "order",
          "type": "int256"
        },
        {
          "internalType": "bool",
          "name": "isDeposit",
          "type": "bool"
        }
      ],
      "stateMutability": "view",
      "type": "function"
    },
    {
      "inputs": [
        {
          "internalType": "int256",
          "name": "order",
          "type": "int256"
        }
      ],
      "name": "participate",
      "outputs": [],
      "stateMutability": "payable",
      "type": "function"
    },
    {
      "inputs": [],
      "name": "people",
      "outputs": [
        {
          "internalType": "int256",
          "name": "",
          "type": "int256"
        }
      ],
      "stateMutability": "view",
      "type": "function"
    },
    {
      "inputs": [],
      "name": "periodicPayment",
      "outputs": [
        {
          "internalType": "int256",
          "name": "",
          "type": "int256"
        }
      ],
      "stateMutability": "view",
      "type": "function"
    },
    {
      "inputs": [],
      "name": "round",
      "outputs": [
        {
          "internalType": "int256",
          "name": "",
          "type": "int256"
        }
      ],
      "stateMutability": "view",
      "type": "function"
    },
    {
      "inputs": [],
      "name": "swapCont",
      "outputs": [
        {
          "internalType": "address",
          "name": "",
          "type": "address"
        }
      ],
      "stateMutability": "view",
      "type": "function"
    },
    {
      "inputs": [],
      "name": "token",
      "outputs": [
        {
          "internalType": "contract ERC20",
          "name": "",
          "type": "address"
        }
      ],
      "stateMutability": "view",
      "type": "function"
    }
  ],
  "bytecode": "0x608060405234801561001057600080fd5b50336000806101000a81548173ffffffffffffffffffffffffffffffffffffffff021916908373ffffffffffffffffffffffffffffffffffffffff1602179055506140a1806100606000396000f3fe6080604052600436106101815760003560e01c8063786716fe116100d1578063c4908bd01161008a578063e512b11411610064578063e512b11414610539578063fc0c546a14610562578063fd2f91181461058d578063ffa68839146105b857610181565b8063c4908bd0146104ba578063ca0cc621146104d1578063e2b18868146104fc57610181565b8063786716fe146103a2578063a194cf33146103cd578063aa8c217c1461040e578063babd3d9a14610439578063c233d30c14610464578063c45a01551461048f57610181565b8063362f04c01161013e5780636eba2b13116101185780636eba2b13146102e45780636fe830da14610321578063722713f71461034c578063783f6af51461037757610181565b8063362f04c014610286578063438e2444146102b15780636eb4a30c146102cd57610181565b806306661abd1461018657806306fdde03146101b1578063146ca531146101dc57806314e1db5c146102075780632e388be414610232578063311fdd351461025d575b600080fd5b34801561019257600080fd5b5061019b6105e3565b6040516101a89190613469565b60405180910390f35b3480156101bd57600080fd5b506101c66105e9565b6040516101d391906131a5565b60405180910390f35b3480156101e857600080fd5b506101f1610677565b6040516101fe919061318a565b60405180910390f35b34801561021357600080fd5b5061021c61067d565b6040516102299190613102565b60405180910390f35b34801561023e57600080fd5b50610247610782565b6040516102549190612fe2565b60405180910390f35b34801561026957600080fd5b50610284600480360381019061027f9190612aa4565b6107a8565b005b34801561029257600080fd5b5061029b610f47565b6040516102a89190613469565b60405180910390f35b6102cb60048036038101906102c69190612aa4565b610f4d565b005b3480156102d957600080fd5b506102e26115e9565b005b3480156102f057600080fd5b5061030b6004803603810190610306919061298c565b611809565b604051610318919061318a565b60405180910390f35b34801561032d57600080fd5b506103366118c2565b6040516103439190613124565b60405180910390f35b34801561035857600080fd5b506103616118d5565b60405161036e9190613469565b60405180910390f35b34801561038357600080fd5b5061038c6118dd565b604051610399919061318a565b60405180910390f35b3480156103ae57600080fd5b506103b76118e3565b6040516103c49190613469565b60405180910390f35b3480156103d957600080fd5b506103f460048036038101906103ef9190612aa4565b6118e9565b604051610405959493929190612ffd565b60405180910390f35b34801561041a57600080fd5b50610423611959565b604051610430919061318a565b60405180910390f35b34801561044557600080fd5b5061044e61195f565b60405161045b9190613124565b60405180910390f35b34801561047057600080fd5b50610479611972565b6040516104869190612fe2565b60405180910390f35b34801561049b57600080fd5b506104a4611998565b6040516104b19190612fe2565b60405180910390f35b3480156104c657600080fd5b506104cf6119bc565b005b3480156104dd57600080fd5b506104e6611b3d565b6040516104f39190612fe2565b60405180910390f35b34801561050857600080fd5b50610523600480360381019061051e919061298c565b611b63565b6040516105309190613124565b60405180910390f35b34801561054557600080fd5b50610560600480360381019061055b91906129b9565b611b83565b005b34801561056e57600080fd5b50610577611e57565b604051610584919061316f565b60405180910390f35b34801561059957600080fd5b506105a2611e7d565b6040516105af919061318a565b60405180910390f35b3480156105c457600080fd5b506105cd611e83565b6040516105da9190613469565b60405180910390f35b600a5481565b600780546105f6906139e7565b80601f0160208091040260200160405190810160405280929190818152602001828054610622906139e7565b801561066f5780601f106106445761010080835404028352916020019161066f565b820191906000526020600020905b81548152906001019060200180831161065257829003601f168201915b505050505081565b60095481565b6060600060055467ffffffffffffffff81111561069d5761069c613bc9565b5b6040519080825280602002602001820160405280156106cb5781602001602082028036833780820191505090505b50905060005b60055481121561077a57600073ffffffffffffffffffffffffffffffffffffffff16600f600083815260200190815260200160002060000160009054906101000a900473ffffffffffffffffffffffffffffffffffffffff1673ffffffffffffffffffffffffffffffffffffffff161461076757600182828151811061075a57610759613b9a565b5b6020026020010181815250505b808061077290613a4a565b9150506106d1565b508091505090565b600360009054906101000a900473ffffffffffffffffffffffffffffffffffffffff1681565b6000811380156107ba57506005548113155b6107f9576040517f08c379a00000000000000000000000000000000000000000000000000000000081526004016107f090613209565b60405180910390fd5b3373ffffffffffffffffffffffffffffffffffffffff16600f60006001846108219190613807565b815260200190815260200160002060000160009054906101000a900473ffffffffffffffffffffffffffffffffffffffff1673ffffffffffffffffffffffffffffffffffffffff16146108a9576040517f08c379a00000000000000000000000000000000000000000000000000000000081526004016108a090613329565b60405180910390fd5b60001515600e60019054906101000a900460ff161515146108ff576040517f08c379a00000000000000000000000000000000000000000000000000000000081526004016108f690613269565b60405180910390fd5b60001515600f60006001846109149190613807565b815260200190815260200160002060030160009054906101000a900460ff1615151415610996573373ffffffffffffffffffffffffffffffffffffffff166108fc6127106006546109659190613655565b9081150290604051600060405180830381858888f19350505050158015610990573d6000803e3d6000fd5b50610ab8565b3373ffffffffffffffffffffffffffffffffffffffff166108fc61271060016005546109c29190613807565b6008546109cf91906136f0565b6109d99190613655565b9081150290604051600060405180830381858888f19350505050158015610a04573d6000803e3d6000fd5b50600160009054906101000a900473ffffffffffffffffffffffffffffffffffffffff1673ffffffffffffffffffffffffffffffffffffffff1663a9059cbb336008546040518363ffffffff1660e01b8152600401610a649291906130d9565b602060405180830381600087803b158015610a7e57600080fd5b505af1158015610a92573d6000803e3d6000fd5b505050506040513d601f19601f82011682018060405250810190610ab69190612a77565b505b600080600360009054906101000a900473ffffffffffffffffffffffffffffffffffffffff1673ffffffffffffffffffffffffffffffffffffffff163330604051602401610b07929190613079565b6040516020818303038152906040527fa625403a000000000000000000000000000000000000000000000000000000007bffffffffffffffffffffffffffffffffffffffffffffffffffffffff19166020820180517bffffffffffffffffffffffffffffffffffffffffffffffffffffffff8381831617835250505050604051610b919190612fcb565b6000604051808303816000865af19150503d8060008114610bce576040519150601f19603f3d011682016040523d82523d6000602084013e610bd3565b606091505b50915091507f30cbeb4d094114a50e73a431e844ae3aef07696d0e960ae5b6e81cd3ccd9972a8282604051610c0992919061313f565b60405180910390a16000601060003373ffffffffffffffffffffffffffffffffffffffff1673ffffffffffffffffffffffffffffffffffffffff16815260200190815260200160002060006101000a81548160ff021916908315150217905550600f6000600185610c7a9190613807565b8152602001908152602001600020600080820160006101000a81549073ffffffffffffffffffffffffffffffffffffffff02191690556000820160146101000a81549060ff0219169055600182016000905560028201600090556003820160006101000a81549060ff02191690555050600b6000815480929190610cfd906139bd565b91905055506000600b541415610f4257600460009054906101000a900473ffffffffffffffffffffffffffffffffffffffff1673ffffffffffffffffffffffffffffffffffffffff166007604051602401610d5891906131c7565b6040516020818303038152906040527f92338ac9000000000000000000000000000000000000000000000000000000007bffffffffffffffffffffffffffffffffffffffffffffffffffffffff19166020820180517bffffffffffffffffffffffffffffffffffffffffffffffffffffffff8381831617835250505050604051610de29190612fcb565b6000604051808303816000865af19150503d8060008114610e1f576040519150601f19603f3d011682016040523d82523d6000602084013e610e24565b606091505b505050600460009054906101000a900473ffffffffffffffffffffffffffffffffffffffff1673ffffffffffffffffffffffffffffffffffffffff166007604051602401610e7291906131c7565b6040516020818303038152906040527f83588a92000000000000000000000000000000000000000000000000000000007bffffffffffffffffffffffffffffffffffffffffffffffffffffffff19166020820180517bffffffffffffffffffffffffffffffffffffffffffffffffffffffff8381831617835250505050604051610efc9190612fcb565b6000604051808303816000865af19150503d8060008114610f39576040519150601f19603f3d011682016040523d82523d6000602084013e610f3e565b606091505b5050505b505050565b600b5481565b600081138015610f5f57506005548113155b610f9e576040517f08c379a0000000000000000000000000000000000000000000000000000000008152600401610f9590613209565b60405180910390fd5b600073ffffffffffffffffffffffffffffffffffffffff16600f6000600184610fc79190613807565b815260200190815260200160002060000160009054906101000a900473ffffffffffffffffffffffffffffffffffffffff1673ffffffffffffffffffffffffffffffffffffffff161461104f576040517f08c379a000000000000000000000000000000000000000000000000000000000815260040161104690613249565b60405180910390fd5b60001515601060003373ffffffffffffffffffffffffffffffffffffffff1673ffffffffffffffffffffffffffffffffffffffff16815260200190815260200160002060009054906101000a900460ff161515146110e2576040517f08c379a00000000000000000000000000000000000000000000000000000000081526004016110d9906133c9565b60405180910390fd5b60001515600e60019054906101000a900460ff16151514611138576040517f08c379a000000000000000000000000000000000000000000000000000000000815260040161112f906131e9565b60405180910390fd5b6040518060a001604052803373ffffffffffffffffffffffffffffffffffffffff16815260200160001515815260200160016005546111779190613807565b6001846111849190613807565b600261119091906136f0565b61119a9190613807565b815260200182815260200160001515815250600f60006001846111bd9190613807565b815260200190815260200160002060008201518160000160006101000a81548173ffffffffffffffffffffffffffffffffffffffff021916908373ffffffffffffffffffffffffffffffffffffffff16021790555060208201518160000160146101000a81548160ff021916908315150217905550604082015181600101556060820151816002015560808201518160030160006101000a81548160ff0219169083151502179055509050506001601060003373ffffffffffffffffffffffffffffffffffffffff1673ffffffffffffffffffffffffffffffffffffffff16815260200190815260200160002060006101000a81548160ff021916908315150217905550600b60008154809291906112d490613a93565b9190505550600080600360009054906101000a900473ffffffffffffffffffffffffffffffffffffffff1673ffffffffffffffffffffffffffffffffffffffff163330604051602401611328929190613079565b6040516020818303038152906040527f52c28fab000000000000000000000000000000000000000000000000000000007bffffffffffffffffffffffffffffffffffffffffffffffffffffffff19166020820180517bffffffffffffffffffffffffffffffffffffffffffffffffffffffff83818316178352505050506040516113b29190612fcb565b6000604051808303816000865af19150503d80600081146113ef576040519150601f19603f3d011682016040523d82523d6000602084013e6113f4565b606091505b50915091507f2e51dff673f3c99ee1a8a6be6ffbc9b0fa03ae5d63402abd233234d4b8e49c86828260405161142a92919061313f565b60405180910390a1600f60006001856114439190613807565b815260200190815260200160002060000160009054906101000a900473ffffffffffffffffffffffffffffffffffffffff1673ffffffffffffffffffffffffffffffffffffffff163373ffffffffffffffffffffffffffffffffffffffff16146114e2576040517f08c379a00000000000000000000000000000000000000000000000000000000081526004016114d990613229565b60405180910390fd5b60001515600f60006001866114f79190613807565b815260200190815260200160002060000160149054906101000a900460ff16151514611558576040517f08c379a000000000000000000000000000000000000000000000000000000000815260040161154f90613449565b60405180910390fd5b6127106006546115689190613655565b34146115a9576040517f08c379a00000000000000000000000000000000000000000000000000000000081526004016115a090613389565b60405180910390fd5b6001600f60006001866115bc9190613807565b815260200190815260200160002060000160146101000a81548160ff021916908315150217905550505050565b60011515600e60019054906101000a900460ff1615151461163f576040517f08c379a0000000000000000000000000000000000000000000000000000000008152600401611636906132a9565b60405180910390fd5b3373ffffffffffffffffffffffffffffffffffffffff16600f600060016009546116699190613807565b815260200190815260200160002060000160009054906101000a900473ffffffffffffffffffffffffffffffffffffffff1673ffffffffffffffffffffffffffffffffffffffff16146116f1576040517f08c379a00000000000000000000000000000000000000000000000000000000081526004016116e890613369565b60405180910390fd5b600d544211611735576040517f08c379a000000000000000000000000000000000000000000000000000000000815260040161172c90613409565b60405180910390fd5b60005b6005548112156118065760001515600f600083815260200190815260200160002060030160009054906101000a900460ff16151514156117f35761177a611e89565b6001600f600083815260200190815260200160002060030160006101000a81548160ff021916908315150217905550600a60008154809291906117bc90613a93565b9190505550600554600a5414156117f25742600c8190555060b4600c546117e391906135ff565b600d819055506117f1611fe9565b5b5b80806117fe90613a4a565b915050611738565b50565b600080600090505b6005548112156118b7578273ffffffffffffffffffffffffffffffffffffffff16600f600083815260200190815260200160002060000160009054906101000a900473ffffffffffffffffffffffffffffffffffffffff1673ffffffffffffffffffffffffffffffffffffffff1614156118a457600f6000828152602001908152602001600020600201549150506118bd565b80806118af90613a4a565b915050611811565b50600090505b919050565b600e60009054906101000a900460ff1681565b600047905090565b60055481565b600d5481565b600f6020528060005260406000206000915090508060000160009054906101000a900473ffffffffffffffffffffffffffffffffffffffff16908060000160149054906101000a900460ff16908060010154908060020154908060030160009054906101000a900460ff16905085565b60065481565b600e60019054906101000a900460ff1681565b600260009054906101000a900473ffffffffffffffffffffffffffffffffffffffff1681565b60008054906101000a900473ffffffffffffffffffffffffffffffffffffffff1681565b60006119c733611809565b90506005546009541315611a10576040517f08c379a0000000000000000000000000000000000000000000000000000000008152600401611a07906133a9565b60405180910390fd5b60016009541315611b2457600d54421115611ab657611a2d611e89565b6001600f6000600184611a409190613807565b815260200190815260200160002060030160006101000a81548160ff021916908315150217905550600a6000815480929190611a7b90613a93565b9190505550600554600a541415611ab15742600c8190555060b4600c54611aa291906135ff565b600d81905550611ab0611fe9565b5b611b1f565b600d544211158015611ad657506078600d54611ad2919061389b565b4210155b611b15576040517f08c379a0000000000000000000000000000000000000000000000000000000008152600401611b0c90613309565b60405180910390fd5b611b1e81612326565b5b611b3a565b60016009541415611b3957611b3881612326565b5b5b50565b600460009054906101000a900473ffffffffffffffffffffffffffffffffffffffff1681565b60106020528060005260406000206000915054906101000a900460ff1681565b60008054906101000a900473ffffffffffffffffffffffffffffffffffffffff1673ffffffffffffffffffffffffffffffffffffffff163373ffffffffffffffffffffffffffffffffffffffff1614611c11576040517f08c379a0000000000000000000000000000000000000000000000000000000008152600401611c08906132e9565b60405180910390fd5b670de0b6b3a7640000851215611c5c576040517f08c379a0000000000000000000000000000000000000000000000000000000008152600401611c5390613289565b60405180910390fd5b60038612158015611c6e5750600d8613155b8015611c8657506001600287611c849190613adc565b145b611cc5576040517f08c379a0000000000000000000000000000000000000000000000000000000008152600401611cbc906132c9565b60405180910390fd5b86600160006101000a81548173ffffffffffffffffffffffffffffffffffffffff021916908373ffffffffffffffffffffffffffffffffffffffff16021790555082600260006101000a81548173ffffffffffffffffffffffffffffffffffffffff021916908373ffffffffffffffffffffffffffffffffffffffff16021790555081600360006101000a81548173ffffffffffffffffffffffffffffffffffffffff021916908373ffffffffffffffffffffffffffffffffffffffff16021790555080600460006101000a81548173ffffffffffffffffffffffffffffffffffffffff021916908373ffffffffffffffffffffffffffffffffffffffff16021790555085600581905550846006819055508360079080519060200190611ded929190612825565b508585611dfa9190613655565b60088190555060016009819055506000600a819055506000600b819055506001600e60006101000a81548160ff0219169083151502179055506000600e60016101000a81548160ff02191690831515021790555050505050505050565b600160009054906101000a900473ffffffffffffffffffffffffffffffffffffffff1681565b60085481565b600c5481565b600080600260009054906101000a900473ffffffffffffffffffffffffffffffffffffffff1673ffffffffffffffffffffffffffffffffffffffff16612710600854611ed591906136bf565b6040516024016040516020818303038152906040527fa6f2ae3a000000000000000000000000000000000000000000000000000000007bffffffffffffffffffffffffffffffffffffffffffffffffffffffff19166020820180517bffffffffffffffffffffffffffffffffffffffffffffffffffffffff8381831617835250505050604051611f659190612fcb565b60006040518083038185875af1925050503d8060008114611fa2576040519150601f19603f3d011682016040523d82523d6000602084013e611fa7565b606091505b50915091507f5721e6559c8de1c1f387af1634e9f30eced11790cfa1ff2b9faa65a3ed3e904f8282604051611fdd92919061313f565b60405180910390a15050565b600160009054906101000a900473ffffffffffffffffffffffffffffffffffffffff1673ffffffffffffffffffffffffffffffffffffffff1663a9059cbb600f6000600160095461203a9190613807565b815260200190815260200160002060000160009054906101000a900473ffffffffffffffffffffffffffffffffffffffff166064600f600060016009546120819190613807565b815260200190815260200160002060010154606461209f919061356b565b6006546120ac91906136f0565b6120b69190613655565b6040518363ffffffff1660e01b81526004016120d3929190613050565b602060405180830381600087803b1580156120ed57600080fd5b505af1158015612101573d6000803e3d6000fd5b505050506040513d601f19601f820116820180604052508101906121259190612a77565b506009600081548092919061213990613a4a565b91905055506000600a8190555060005b600554811215612195576000600f600083815260200190815260200160002060030160006101000a81548160ff021916908315150217905550808061218d90613a4a565b915050612149565b5060055460016009546121a89190613807565b1415612324576000600e60006101000a81548160ff021916908315150217905550600080600460009054906101000a900473ffffffffffffffffffffffffffffffffffffffff1673ffffffffffffffffffffffffffffffffffffffff16600760405160240161221791906131c7565b6040516020818303038152906040527f83588a92000000000000000000000000000000000000000000000000000000007bffffffffffffffffffffffffffffffffffffffffffffffffffffffff19166020820180517bffffffffffffffffffffffffffffffffffffffffffffffffffffffff83818316178352505050506040516122a19190612fcb565b6000604051808303816000865af19150503d80600081146122de576040519150601f19603f3d011682016040523d82523d6000602084013e6122e3565b606091505b50915091507f2dbb38a6a943c4f61dfa90dcee112197adad60b0992c0f863ebe6f9bb30771ab828260405161231992919061313f565b60405180910390a150505b565b60011515600f600060018461233b9190613807565b815260200190815260200160002060000160149054906101000a900460ff1615151461239c576040517f08c379a0000000000000000000000000000000000000000000000000000000008152600401612393906133e9565b60405180910390fd5b60001515600f60006001846123b19190613807565b815260200190815260200160002060030160009054906101000a900460ff16151514612412576040517f08c379a000000000000000000000000000000000000000000000000000000000815260040161240990613429565b60405180910390fd5b6000600160009054906101000a900473ffffffffffffffffffffffffffffffffffffffff1673ffffffffffffffffffffffffffffffffffffffff1663dd62ed3e33306040518363ffffffff1660e01b8152600401612471929190613079565b60206040518083038186803b15801561248957600080fd5b505afa15801561249d573d6000803e3d6000fd5b505050506040513d601f19601f820116820180604052508101906124c19190612ad1565b9050600854811015612508576040517f08c379a00000000000000000000000000000000000000000000000000000000081526004016124ff90613349565b60405180910390fd5b600160009054906101000a900473ffffffffffffffffffffffffffffffffffffffff1673ffffffffffffffffffffffffffffffffffffffff166323b872dd33306008546040518463ffffffff1660e01b8152600401612569939291906130a2565b602060405180830381600087803b15801561258357600080fd5b505af1158015612597573d6000803e3d6000fd5b505050506040513d601f19601f820116820180604052508101906125bb9190612a77565b506125c46127cd565b6001600f60006001856125d79190613807565b815260200190815260200160002060030160006101000a81548160ff021916908315150217905550600a600081548092919061261290613a93565b9190505550600554600a5414156127c9576001600954141561278957600080600460009054906101000a900473ffffffffffffffffffffffffffffffffffffffff1673ffffffffffffffffffffffffffffffffffffffff16600760405160240161267c91906131c7565b6040516020818303038152906040527f92338ac9000000000000000000000000000000000000000000000000000000007bffffffffffffffffffffffffffffffffffffffffffffffffffffffff19166020820180517bffffffffffffffffffffffffffffffffffffffffffffffffffffffff83818316178352505050506040516127069190612fcb565b6000604051808303816000865af19150503d8060008114612743576040519150601f19603f3d011682016040523d82523d6000602084013e612748565b606091505b50915091507feb721d50a784497a7959c40e2723f0343c8e195929b9b6ad62e810852b1fc54f828260405161277e92919061313f565b60405180910390a150505b6001600e60016101000a81548160ff02191690831515021790555042600c8190555060b4600c546127ba91906135ff565b600d819055506127c8611fe9565b5b5050565b3373ffffffffffffffffffffffffffffffffffffffff166108fc6127106008546127f791906136bf565b9081150290604051600060405180830381858888f19350505050158015612822573d6000803e3d6000fd5b50565b828054612831906139e7565b90600052602060002090601f016020900481019282612853576000855561289a565b82601f1061286c57805160ff191683800117855561289a565b8280016001018555821561289a579182015b8281111561289957825182559160200191906001019061287e565b5b5090506128a791906128ab565b5090565b5b808211156128c45760008160009055506001016128ac565b5090565b60006128db6128d6846134a9565b613484565b9050828152602081018484840111156128f7576128f6613bfd565b5b61290284828561397b565b509392505050565b6000813590506129198161400f565b92915050565b60008151905061292e81614026565b92915050565b6000813590506129438161403d565b92915050565b600082601f83011261295e5761295d613bf8565b5b813561296e8482602086016128c8565b91505092915050565b60008151905061298681614054565b92915050565b6000602082840312156129a2576129a1613c07565b5b60006129b08482850161290a565b91505092915050565b600080600080600080600060e0888a0312156129d8576129d7613c07565b5b60006129e68a828b0161290a565b97505060206129f78a828b01612934565b9650506040612a088a828b01612934565b955050606088013567ffffffffffffffff811115612a2957612a28613c02565b5b612a358a828b01612949565b9450506080612a468a828b0161290a565b93505060a0612a578a828b0161290a565b92505060c0612a688a828b0161290a565b91505092959891949750929550565b600060208284031215612a8d57612a8c613c07565b5b6000612a9b8482850161291f565b91505092915050565b600060208284031215612aba57612ab9613c07565b5b6000612ac884828501612934565b91505092915050565b600060208284031215612ae757612ae6613c07565b5b6000612af584828501612977565b91505092915050565b6000612b0a8383612fad565b60208301905092915050565b612b1f81613933565b82525050565b612b2e816138e1565b82525050565b612b3d816138cf565b82525050565b6000612b4e826134ff565b612b58818561352d565b9350612b63836134da565b8060005b83811015612b94578151612b7b8882612afe565b9750612b8683613520565b925050600181019050612b67565b5085935050505092915050565b612baa816138f3565b82525050565b6000612bbb8261350a565b612bc5818561353e565b9350612bd581856020860161398a565b612bde81613c0c565b840191505092915050565b6000612bf48261350a565b612bfe818561354f565b9350612c0e81856020860161398a565b80840191505092915050565b612c2381613945565b82525050565b612c32816138ff565b82525050565b6000612c4382613515565b612c4d818561355a565b9350612c5d81856020860161398a565b612c6681613c0c565b840191505092915050565b60008154612c7e816139e7565b612c88818661355a565b94506001821660008114612ca35760018114612cb557612ce8565b60ff1983168652602086019350612ce8565b612cbe856134ea565b60005b83811015612ce057815481890152600182019150602081019050612cc1565b808801955050505b50505092915050565b6000612cfe600a8361355a565b9150612d0982613c1d565b602082019050919050565b6000612d2160318361355a565b9150612d2c82613c46565b604082019050919050565b6000612d44602d8361355a565b9150612d4f82613c95565b604082019050919050565b6000612d6760138361355a565b9150612d7282613ce4565b602082019050919050565b6000612d8a60168361355a565b9150612d9582613d0d565b602082019050919050565b6000612dad60148361355a565b9150612db882613d36565b602082019050919050565b6000612dd060128361355a565b9150612ddb82613d5f565b602082019050919050565b6000612df360338361355a565b9150612dfe82613d88565b604082019050919050565b6000612e16600e8361355a565b9150612e2182613dd7565b602082019050919050565b6000612e39601c8361355a565b9150612e4482613e00565b602082019050919050565b6000612e5c600b8361355a565b9150612e6782613e29565b602082019050919050565b6000612e7f60198361355a565b9150612e8a82613e52565b602082019050919050565b6000612ea2600d8361355a565b9150612ead82613e7b565b602082019050919050565b6000612ec560258361355a565b9150612ed082613ea4565b604082019050919050565b6000612ee860168361355a565b9150612ef382613ef3565b602082019050919050565b6000612f0b60138361355a565b9150612f1682613f1c565b602082019050919050565b6000612f2e601f8361355a565b9150612f3982613f45565b602082019050919050565b6000612f51600e8361355a565b9150612f5c82613f6e565b602082019050919050565b6000612f7460218361355a565b9150612f7f82613f97565b604082019050919050565b6000612f9760198361355a565b9150612fa282613fe6565b602082019050919050565b612fb681613929565b82525050565b612fc581613929565b82525050565b6000612fd78284612be9565b915081905092915050565b6000602082019050612ff76000830184612b34565b92915050565b600060a0820190506130126000830188612b25565b61301f6020830187612ba1565b61302c6040830186612c29565b6130396060830185612c29565b6130466080830184612ba1565b9695505050505050565b60006040820190506130656000830185612b16565b6130726020830184612fbc565b9392505050565b600060408201905061308e6000830185612b34565b61309b6020830184612b34565b9392505050565b60006060820190506130b76000830186612b34565b6130c46020830185612b34565b6130d16040830184612fbc565b949350505050565b60006040820190506130ee6000830185612b34565b6130fb6020830184612fbc565b9392505050565b6000602082019050818103600083015261311c8184612b43565b905092915050565b60006020820190506131396000830184612ba1565b92915050565b60006040820190506131546000830185612ba1565b81810360208301526131668184612bb0565b90509392505050565b60006020820190506131846000830184612c1a565b92915050565b600060208201905061319f6000830184612c29565b92915050565b600060208201905081810360008301526131bf8184612c38565b905092915050565b600060208201905081810360008301526131e18184612c71565b905092915050565b6000602082019050818103600083015261320281612cf1565b9050919050565b6000602082019050818103600083015261322281612d14565b9050919050565b6000602082019050818103600083015261324281612d37565b9050919050565b6000602082019050818103600083015261326281612d5a565b9050919050565b6000602082019050818103600083015261328281612d7d565b9050919050565b600060208201905081810360008301526132a281612da0565b9050919050565b600060208201905081810360008301526132c281612dc3565b9050919050565b600060208201905081810360008301526132e281612de6565b9050919050565b6000602082019050818103600083015261330281612e09565b9050919050565b6000602082019050818103600083015261332281612e2c565b9050919050565b6000602082019050818103600083015261334281612e4f565b9050919050565b6000602082019050818103600083015261336281612e72565b9050919050565b6000602082019050818103600083015261338281612e95565b9050919050565b600060208201905081810360008301526133a281612eb8565b9050919050565b600060208201905081810360008301526133c281612edb565b9050919050565b600060208201905081810360008301526133e281612efe565b9050919050565b6000602082019050818103600083015261340281612f21565b9050919050565b6000602082019050818103600083015261342281612f44565b9050919050565b6000602082019050818103600083015261344281612f67565b9050919050565b6000602082019050818103600083015261346281612f8a565b9050919050565b600060208201905061347e6000830184612fbc565b92915050565b600061348e61349f565b905061349a8282613a19565b919050565b6000604051905090565b600067ffffffffffffffff8211156134c4576134c3613bc9565b5b6134cd82613c0c565b9050602081019050919050565b6000819050602082019050919050565b60008190508160005260206000209050919050565b600081519050919050565b600081519050919050565b600081519050919050565b6000602082019050919050565b600082825260208201905092915050565b600082825260208201905092915050565b600081905092915050565b600082825260208201905092915050565b6000613576826138ff565b9150613581836138ff565b9250817f7fffffffffffffffffffffffffffffffffffffffffffffffffffffffffffffff038313600083121516156135bc576135bb613b0d565b5b817f80000000000000000000000000000000000000000000000000000000000000000383126000831216156135f4576135f3613b0d565b5b828201905092915050565b600061360a82613929565b915061361583613929565b9250827fffffffffffffffffffffffffffffffffffffffffffffffffffffffffffffffff0382111561364a57613649613b0d565b5b828201905092915050565b6000613660826138ff565b915061366b836138ff565b92508261367b5761367a613b3c565b5b600160000383147f8000000000000000000000000000000000000000000000000000000000000000831416156136b4576136b3613b0d565b5b828205905092915050565b60006136ca82613929565b91506136d583613929565b9250826136e5576136e4613b3c565b5b828204905092915050565b60006136fb826138ff565b9150613706836138ff565b9250827f7fffffffffffffffffffffffffffffffffffffffffffffffffffffffffffffff048211600084136000841316161561374557613744613b0d565b5b817f8000000000000000000000000000000000000000000000000000000000000000058312600084126000841316161561378257613781613b0d565b5b827f800000000000000000000000000000000000000000000000000000000000000005821260008413600084121616156137bf576137be613b0d565b5b827f7fffffffffffffffffffffffffffffffffffffffffffffffffffffffffffffff05821260008412600084121616156137fc576137fb613b0d565b5b828202905092915050565b6000613812826138ff565b915061381d836138ff565b9250827f80000000000000000000000000000000000000000000000000000000000000000182126000841215161561385857613857613b0d565b5b827f7fffffffffffffffffffffffffffffffffffffffffffffffffffffffffffffff0182136000841216156138905761388f613b0d565b5b828203905092915050565b60006138a682613929565b91506138b183613929565b9250828210156138c4576138c3613b0d565b5b828203905092915050565b60006138da82613909565b9050919050565b60006138ec82613909565b9050919050565b60008115159050919050565b6000819050919050565b600073ffffffffffffffffffffffffffffffffffffffff82169050919050565b6000819050919050565b600061393e82613957565b9050919050565b600061395082613957565b9050919050565b600061396282613969565b9050919050565b600061397482613909565b9050919050565b82818337600083830152505050565b60005b838110156139a857808201518184015260208101905061398d565b838111156139b7576000848401525b50505050565b60006139c882613929565b915060008214156139dc576139db613b0d565b5b600182039050919050565b600060028204905060018216806139ff57607f821691505b60208210811415613a1357613a12613b6b565b5b50919050565b613a2282613c0c565b810181811067ffffffffffffffff82111715613a4157613a40613bc9565b5b80604052505050565b6000613a55826138ff565b91507f7fffffffffffffffffffffffffffffffffffffffffffffffffffffffffffffff821415613a8857613a87613b0d565b5b600182019050919050565b6000613a9e82613929565b91507fffffffffffffffffffffffffffffffffffffffffffffffffffffffffffffffff821415613ad157613ad0613b0d565b5b600182019050919050565b6000613ae7826138ff565b9150613af2836138ff565b925082613b0257613b01613b3c565b5b828207905092915050565b7f4e487b7100000000000000000000000000000000000000000000000000000000600052601160045260246000fd5b7f4e487b7100000000000000000000000000000000000000000000000000000000600052601260045260246000fd5b7f4e487b7100000000000000000000000000000000000000000000000000000000600052602260045260246000fd5b7f4e487b7100000000000000000000000000000000000000000000000000000000600052603260045260246000fd5b7f4e487b7100000000000000000000000000000000000000000000000000000000600052604160045260246000fd5b600080fd5b600080fd5b600080fd5b600080fd5b6000601f19601f8301169050919050565b7f46756c6c20556e696f6e00000000000000000000000000000000000000000000600082015250565b7f4f72646572206d75737420626967676572207468616e203020616e64206c657360008201527f73207468616e206d61782070656f706c65000000000000000000000000000000602082015250565b7f70617274696369706174696e672061646472657373206d757374206d6174636860008201527f65732077697468206f7264657200000000000000000000000000000000000000602082015250565b7f416c7265616479206578697374206f7264657200000000000000000000000000600082015250565b7f46756c6c20756e696f6e206973206e6f74206578697400000000000000000000600082015250565b7f6d696e696d756d20616d6f756e743a2031204355000000000000000000000000600082015250565b7f4e6f7420696e69746961746520756e696f6e0000000000000000000000000000600082015250565b7f6d696e696d756d2070656f706c653a20332026206d61782070656f706c653a2060008201527f31332c206f6e6c79206f6464206e756d62657200000000000000000000000000602082015250565b7f4e6f7420417574686f72697a6564000000000000000000000000000000000000600082015250565b7f596f752063616e206465706f73697420657861637420706572696f6400000000600082015250565b7f57726f6e67204f72646572000000000000000000000000000000000000000000600082015250565b7f436865636b2074686520746f6b656e20616c6c6f77616e636500000000000000600082015250565b7f4e6f7420796f7572207475726e00000000000000000000000000000000000000600082015250565b7f657468657227732076616c7565206973206d75737420657175616c204355206160008201527f6d6f756e74000000000000000000000000000000000000000000000000000000602082015250565b7f5468697320756e696f6e2069732066696e697368656400000000000000000000600082015250565b7f416c726561647920706172746963697061746500000000000000000000000000600082015250565b7f506c65617365206465706f73697420636f6c6c61746572616c20666972737400600082015250565b7f5965742072656365697665204355000000000000000000000000000000000000600082015250565b7f596f7520616c7265616479206465706f73697420696e207468697320726f756e60008201527f6400000000000000000000000000000000000000000000000000000000000000602082015250565b7f416c7265616479207375626d697420636f6c6c61746572616c00000000000000600082015250565b614018816138cf565b811461402357600080fd5b50565b61402f816138f3565b811461403a57600080fd5b50565b614046816138ff565b811461405157600080fd5b50565b61405d81613929565b811461406857600080fd5b5056fea2646970667358221220b63706d165235844ad006991ba9f07f32905918bc98755abc0c1c82f3995f15864736f6c63430008070033",
  "linkReferences": {},
  "deployedLinkReferences": {}
}