{
  "_format": "hh-sol-artifact-1",
  "contractName": "UnionFactory",
  "sourceName": "contracts/UnionFactory.sol",
  "abi": [
    {
      "inputs": [],
      "stateMutability": "nonpayable",
      "type": "constructor"
    },
    {
      "anonymous": false,
      "inputs": [
        {
          "indexed": false,
          "internalType": "int256",
          "name": "people",
          "type": "int256"
        },
        {
          "indexed": false,
          "internalType": "int256",
          "name": "price",
          "type": "int256"
        },
        {
          "indexed": false,
          "internalType": "string",
          "name": "name",
          "type": "string"
        }
      ],
      "name": "UnionCreated",
      "type": "event"
    },
    {
      "inputs": [
        {
          "internalType": "uint256",
          "name": "",
          "type": "uint256"
        }
      ],
      "name": "allUnions",
      "outputs": [
        {
          "internalType": "address",
          "name": "",
          "type": "address"
        }
      ],
      "stateMutability": "view",
      "type": "function"
    },
    {
      "inputs": [
        {
          "internalType": "address",
          "name": "token",
          "type": "address"
        },
        {
          "internalType": "int256",
          "name": "people",
          "type": "int256"
        },
        {
          "internalType": "int256",
          "name": "amount",
          "type": "int256"
        },
        {
          "internalType": "string",
          "name": "name",
          "type": "string"
        },
        {
          "internalType": "address",
          "name": "swap_cont",
          "type": "address"
        },
        {
          "internalType": "address",
          "name": "list_cont",
          "type": "address"
        },
        {
          "internalType": "address",
          "name": "factory_cont",
          "type": "address"
        }
      ],
      "name": "createUnion",
      "outputs": [
        {
          "internalType": "address",
          "name": "",
          "type": "address"
        }
      ],
      "stateMutability": "nonpayable",
      "type": "function"
    },
    {
      "inputs": [
        {
          "internalType": "string",
          "name": "name",
          "type": "string"
        }
      ],
      "name": "deleteUnion",
      "outputs": [],
      "stateMutability": "nonpayable",
      "type": "function"
    },
    {
      "inputs": [],
      "name": "getAllUnions",
      "outputs": [
        {
          "internalType": "address[]",
          "name": "",
          "type": "address[]"
        }
      ],
      "stateMutability": "view",
      "type": "function"
    },
    {
      "inputs": [
        {
          "internalType": "string",
          "name": "",
          "type": "string"
        }
      ],
      "name": "getUnion",
      "outputs": [
        {
          "internalType": "address",
          "name": "",
          "type": "address"
        }
      ],
      "stateMutability": "view",
      "type": "function"
    }
  ],
  "bytecode": "0x608060405234801561001057600080fd5b50614398806100206000396000f3fe608060405234801561001057600080fd5b50600436106100575760003560e01c806321a8dcd11461005c5780633dd3b4be1461008c5780634f64b797146100aa5780637ed27afa146100da5780639381551c146100f6575b600080fd5b61007660048036038101906100719190610857565b610126565b6040516100839190610a14565b60405180910390f35b61009461016f565b6040516100a19190610aa5565b60405180910390f35b6100c460048036038101906100bf9190610799565b6101fd565b6040516100d19190610a14565b60405180910390f35b6100f460048036038101906100ef9190610857565b610459565b005b610110600480360381019061010b91906108a0565b61069e565b60405161011d9190610a14565b60405180910390f35b6000818051602081018201805184825260208301602085012081835280955050505050506000915054906101000a900473ffffffffffffffffffffffffffffffffffffffff1681565b606060018054806020026020016040519081016040528092919081815260200182805480156101f357602002820191906000526020600020905b8160009054906101000a900473ffffffffffffffffffffffffffffffffffffffff1673ffffffffffffffffffffffffffffffffffffffff16815260200190600101908083116101a9575b5050505050905090565b60008073ffffffffffffffffffffffffffffffffffffffff1660008660405161022691906109fd565b908152602001604051809103902060009054906101000a900473ffffffffffffffffffffffffffffffffffffffff1673ffffffffffffffffffffffffffffffffffffffff16146102ab576040517f08c379a00000000000000000000000000000000000000000000000000000000081526004016102a290610b05565b60405180910390fd5b60006040516102b9906106dd565b604051809103906000f0801580156102d5573d6000803e3d6000fd5b5090508073ffffffffffffffffffffffffffffffffffffffff1663e512b1148a8a8a8a8a8a8a6040518863ffffffff1660e01b815260040161031d9796959493929190610a2f565b600060405180830381600087803b15801561033757600080fd5b505af115801561034b573d6000803e3d6000fd5b505050508060008760405161036091906109fd565b908152602001604051809103902060006101000a81548173ffffffffffffffffffffffffffffffffffffffff021916908373ffffffffffffffffffffffffffffffffffffffff1602179055506001819080600181540180825580915050600190039060005260206000200160009091909190916101000a81548173ffffffffffffffffffffffffffffffffffffffff021916908373ffffffffffffffffffffffffffffffffffffffff1602179055507f772a86d7c3b720aea41abcd3eb293674d2481090103a42f670d177df2640df7488888860405161044293929190610ac7565b60405180910390a180915050979650505050505050565b600080600090505b6001805490508110156105395760008360405161047e91906109fd565b908152602001604051809103902060009054906101000a900473ffffffffffffffffffffffffffffffffffffffff1673ffffffffffffffffffffffffffffffffffffffff16600182815481106104d7576104d6610dc5565b5b9060005260206000200160009054906101000a900473ffffffffffffffffffffffffffffffffffffffff1673ffffffffffffffffffffffffffffffffffffffff16141561052657809150610539565b808061053190610d1e565b915050610461565b5060008190505b600180805490506105519190610c31565b81101561061157600180826105669190610bdb565b8154811061057757610576610dc5565b5b9060005260206000200160009054906101000a900473ffffffffffffffffffffffffffffffffffffffff16600182815481106105b6576105b5610dc5565b5b9060005260206000200160006101000a81548173ffffffffffffffffffffffffffffffffffffffff021916908373ffffffffffffffffffffffffffffffffffffffff160217905550808061060990610d1e565b915050610540565b50600180548061062457610623610d96565b5b6001900381819060005260206000200160006101000a81549073ffffffffffffffffffffffffffffffffffffffff0219169055905560008260405161066991906109fd565b908152602001604051809103902060006101000a81549073ffffffffffffffffffffffffffffffffffffffff02191690555050565b600181815481106106ae57600080fd5b906000526020600020016000915054906101000a900473ffffffffffffffffffffffffffffffffffffffff1681565b6134ac80610eb783390190565b60006106fd6106f884610b4a565b610b25565b90508281526020810184848401111561071957610718610e28565b5b610724848285610cab565b509392505050565b60008135905061073b81610e71565b92915050565b60008135905061075081610e88565b92915050565b600082601f83011261076b5761076a610e23565b5b813561077b8482602086016106ea565b91505092915050565b60008135905061079381610e9f565b92915050565b600080600080600080600060e0888a0312156107b8576107b7610e32565b5b60006107c68a828b0161072c565b97505060206107d78a828b01610741565b96505060406107e88a828b01610741565b955050606088013567ffffffffffffffff81111561080957610808610e2d565b5b6108158a828b01610756565b94505060806108268a828b0161072c565b93505060a06108378a828b0161072c565b92505060c06108488a828b0161072c565b91505092959891949750929550565b60006020828403121561086d5761086c610e32565b5b600082013567ffffffffffffffff81111561088b5761088a610e2d565b5b61089784828501610756565b91505092915050565b6000602082840312156108b6576108b5610e32565b5b60006108c484828501610784565b91505092915050565b60006108d983836108e5565b60208301905092915050565b6108ee81610c65565b82525050565b6108fd81610c65565b82525050565b600061090e82610b8b565b6109188185610bae565b935061092383610b7b565b8060005b8381101561095457815161093b88826108cd565b975061094683610ba1565b925050600181019050610927565b5085935050505092915050565b61096a81610c77565b82525050565b600061097b82610b96565b6109858185610bbf565b9350610995818560208601610cba565b61099e81610e37565b840191505092915050565b60006109b482610b96565b6109be8185610bd0565b93506109ce818560208601610cba565b80840191505092915050565b60006109e7600c83610bbf565b91506109f282610e48565b602082019050919050565b6000610a0982846109a9565b915081905092915050565b6000602082019050610a2960008301846108f4565b92915050565b600060e082019050610a44600083018a6108f4565b610a516020830189610961565b610a5e6040830188610961565b8181036060830152610a708187610970565b9050610a7f60808301866108f4565b610a8c60a08301856108f4565b610a9960c08301846108f4565b98975050505050505050565b60006020820190508181036000830152610abf8184610903565b905092915050565b6000606082019050610adc6000830186610961565b610ae96020830185610961565b8181036040830152610afb8184610970565b9050949350505050565b60006020820190508181036000830152610b1e816109da565b9050919050565b6000610b2f610b40565b9050610b3b8282610ced565b919050565b6000604051905090565b600067ffffffffffffffff821115610b6557610b64610df4565b5b610b6e82610e37565b9050602081019050919050565b6000819050602082019050919050565b600081519050919050565b600081519050919050565b6000602082019050919050565b600082825260208201905092915050565b600082825260208201905092915050565b600081905092915050565b6000610be682610ca1565b9150610bf183610ca1565b9250827fffffffffffffffffffffffffffffffffffffffffffffffffffffffffffffffff03821115610c2657610c25610d67565b5b828201905092915050565b6000610c3c82610ca1565b9150610c4783610ca1565b925082821015610c5a57610c59610d67565b5b828203905092915050565b6000610c7082610c81565b9050919050565b6000819050919050565b600073ffffffffffffffffffffffffffffffffffffffff82169050919050565b6000819050919050565b82818337600083830152505050565b60005b83811015610cd8578082015181840152602081019050610cbd565b83811115610ce7576000848401525b50505050565b610cf682610e37565b810181811067ffffffffffffffff82111715610d1557610d14610df4565b5b80604052505050565b6000610d2982610ca1565b91507fffffffffffffffffffffffffffffffffffffffffffffffffffffffffffffffff821415610d5c57610d5b610d67565b5b600182019050919050565b7f4e487b7100000000000000000000000000000000000000000000000000000000600052601160045260246000fd5b7f4e487b7100000000000000000000000000000000000000000000000000000000600052603160045260246000fd5b7f4e487b7100000000000000000000000000000000000000000000000000000000600052603260045260246000fd5b7f4e487b7100000000000000000000000000000000000000000000000000000000600052604160045260246000fd5b600080fd5b600080fd5b600080fd5b600080fd5b6000601f19601f8301169050919050565b7f554e494f4e5f4558495354530000000000000000000000000000000000000000600082015250565b610e7a81610c65565b8114610e8557600080fd5b50565b610e9181610c77565b8114610e9c57600080fd5b50565b610ea881610ca1565b8114610eb357600080fd5b5056fe608060405234801561001057600080fd5b50336000806101000a81548173ffffffffffffffffffffffffffffffffffffffff021916908373ffffffffffffffffffffffffffffffffffffffff16021790555061344c806100606000396000f3fe60806040526004361061014b5760003560e01c8063a194cf33116100b6578063ca0cc6211161006f578063ca0cc62114610447578063e2b1886814610472578063e512b114146104af578063fc0c546a146104d8578063fd2f911814610503578063ffa688391461052e5761014b565b8063a194cf3314610343578063aa8c217c14610384578063babd3d9a146103af578063c233d30c146103da578063c45a015514610405578063c4908bd0146104305761014b565b80636eb4a30c116101085780636eb4a30c146102435780636eba2b131461025a5780636fe830da14610297578063722713f7146102c2578063783f6af5146102ed578063786716fe146103185761014b565b806306661abd1461015057806306fdde031461017b578063146ca531146101a657806314e1db5c146101d15780632e388be4146101fc578063438e244414610227575b600080fd5b34801561015c57600080fd5b50610165610559565b60405161017291906128e2565b60405180910390f35b34801561018757600080fd5b5061019061055f565b60405161019d919061269e565b60405180910390f35b3480156101b257600080fd5b506101bb6105ed565b6040516101c89190612683565b60405180910390f35b3480156101dd57600080fd5b506101e66105f3565b6040516101f391906125fb565b60405180910390f35b34801561020857600080fd5b506102116106f8565b60405161021e9190612504565b60405180910390f35b610241600480360381019061023c9190612052565b61071e565b005b34801561024f57600080fd5b50610258610da2565b005b34801561026657600080fd5b50610281600480360381019061027c9190611f3a565b610f6c565b60405161028e9190612683565b60405180910390f35b3480156102a357600080fd5b506102ac611025565b6040516102b9919061261d565b60405180910390f35b3480156102ce57600080fd5b506102d7611038565b6040516102e491906128e2565b60405180910390f35b3480156102f957600080fd5b50610302611040565b60405161030f9190612683565b60405180910390f35b34801561032457600080fd5b5061032d611046565b60405161033a91906128e2565b60405180910390f35b34801561034f57600080fd5b5061036a60048036038101906103659190612052565b61104c565b60405161037b95949392919061251f565b60405180910390f35b34801561039057600080fd5b506103996110bc565b6040516103a69190612683565b60405180910390f35b3480156103bb57600080fd5b506103c46110c2565b6040516103d1919061261d565b60405180910390f35b3480156103e657600080fd5b506103ef6110d5565b6040516103fc9190612504565b60405180910390f35b34801561041157600080fd5b5061041a6110fb565b6040516104279190612504565b60405180910390f35b34801561043c57600080fd5b5061044561111f565b005b34801561045357600080fd5b5061045c611259565b6040516104699190612504565b60405180910390f35b34801561047e57600080fd5b5061049960048036038101906104949190611f3a565b61127f565b6040516104a6919061261d565b60405180910390f35b3480156104bb57600080fd5b506104d660048036038101906104d19190611f67565b61129f565b005b3480156104e457600080fd5b506104ed61156b565b6040516104fa9190612668565b60405180910390f35b34801561050f57600080fd5b50610518611591565b6040516105259190612683565b60405180910390f35b34801561053a57600080fd5b50610543611597565b60405161055091906128e2565b60405180910390f35b600a5481565b6007805461056c90612e36565b80601f016020809104026020016040519081016040528092919081815260200182805461059890612e36565b80156105e55780601f106105ba576101008083540402835291602001916105e5565b820191906000526020600020905b8154815290600101906020018083116105c857829003601f168201915b505050505081565b60095481565b6060600060055467ffffffffffffffff81111561061357610612613018565b5b6040519080825280602002602001820160405280156106415781602001602082028036833780820191505090505b50905060005b6005548112156106f057600073ffffffffffffffffffffffffffffffffffffffff16600e600083815260200190815260200160002060000160009054906101000a900473ffffffffffffffffffffffffffffffffffffffff1673ffffffffffffffffffffffffffffffffffffffff16146106dd5760018282815181106106d0576106cf612fe9565b5b6020026020010181815250505b80806106e890612e99565b915050610647565b508091505090565b600360009054906101000a900473ffffffffffffffffffffffffffffffffffffffff1681565b60008113801561073057506005548113155b61076f576040517f08c379a000000000000000000000000000000000000000000000000000000000815260040161076690612702565b60405180910390fd5b600073ffffffffffffffffffffffffffffffffffffffff16600e60006001846107989190612c80565b815260200190815260200160002060000160009054906101000a900473ffffffffffffffffffffffffffffffffffffffff1673ffffffffffffffffffffffffffffffffffffffff1614610820576040517f08c379a000000000000000000000000000000000000000000000000000000000815260040161081790612742565b60405180910390fd5b60001515600f60003373ffffffffffffffffffffffffffffffffffffffff1673ffffffffffffffffffffffffffffffffffffffff16815260200190815260200160002060009054906101000a900460ff161515146108b3576040517f08c379a00000000000000000000000000000000000000000000000000000000081526004016108aa90612842565b60405180910390fd5b60001515600d60019054906101000a900460ff16151514610909576040517f08c379a0000000000000000000000000000000000000000000000000000000008152600401610900906126e2565b60405180910390fd5b6040518060a001604052803373ffffffffffffffffffffffffffffffffffffffff16815260200160001515815260200160016005546109489190612c80565b6001846109559190612c80565b60026109619190612b69565b61096b9190612c80565b815260200182815260200160001515815250600e600060018461098e9190612c80565b815260200190815260200160002060008201518160000160006101000a81548173ffffffffffffffffffffffffffffffffffffffff021916908373ffffffffffffffffffffffffffffffffffffffff16021790555060208201518160000160146101000a81548160ff021916908315150217905550604082015181600101556060820151816002015560808201518160030160006101000a81548160ff0219169083151502179055509050506001600f60003373ffffffffffffffffffffffffffffffffffffffff1673ffffffffffffffffffffffffffffffffffffffff16815260200190815260200160002060006101000a81548160ff021916908315150217905550600080600360009054906101000a900473ffffffffffffffffffffffffffffffffffffffff1673ffffffffffffffffffffffffffffffffffffffff163330604051602401610ae192919061259b565b6040516020818303038152906040527f52c28fab000000000000000000000000000000000000000000000000000000007bffffffffffffffffffffffffffffffffffffffffffffffffffffffff19166020820180517bffffffffffffffffffffffffffffffffffffffffffffffffffffffff8381831617835250505050604051610b6b91906124ed565b6000604051808303816000865af19150503d8060008114610ba8576040519150601f19603f3d011682016040523d82523d6000602084013e610bad565b606091505b50915091507f2e51dff673f3c99ee1a8a6be6ffbc9b0fa03ae5d63402abd233234d4b8e49c868282604051610be3929190612638565b60405180910390a1600e6000600185610bfc9190612c80565b815260200190815260200160002060000160009054906101000a900473ffffffffffffffffffffffffffffffffffffffff1673ffffffffffffffffffffffffffffffffffffffff163373ffffffffffffffffffffffffffffffffffffffff1614610c9b576040517f08c379a0000000000000000000000000000000000000000000000000000000008152600401610c9290612722565b60405180910390fd5b60001515600e6000600186610cb09190612c80565b815260200190815260200160002060000160149054906101000a900460ff16151514610d11576040517f08c379a0000000000000000000000000000000000000000000000000000000008152600401610d08906128c2565b60405180910390fd5b612710600654610d219190612ace565b3414610d62576040517f08c379a0000000000000000000000000000000000000000000000000000000008152600401610d5990612822565b60405180910390fd5b6001600e6000600186610d759190612c80565b815260200190815260200160002060000160146101000a81548160ff021916908315150217905550505050565b3373ffffffffffffffffffffffffffffffffffffffff16600e60006001600954610dcc9190612c80565b815260200190815260200160002060000160009054906101000a900473ffffffffffffffffffffffffffffffffffffffff1673ffffffffffffffffffffffffffffffffffffffff1614610e54576040517f08c379a0000000000000000000000000000000000000000000000000000000008152600401610e4b90612802565b60405180910390fd5b600c544211610e98576040517f08c379a0000000000000000000000000000000000000000000000000000000008152600401610e8f90612882565b60405180910390fd5b60005b600554811215610f695760001515600e600083815260200190815260200160002060030160009054906101000a900460ff1615151415610f5657610edd61159d565b6001600e600083815260200190815260200160002060030160006101000a81548160ff021916908315150217905550600a6000815480929190610f1f90612ee2565b9190505550600554600a541415610f555742600b8190555060b4600b54610f469190612a78565b600c81905550610f546116fd565b5b5b8080610f6190612e99565b915050610e9b565b50565b600080600090505b60055481121561101a578273ffffffffffffffffffffffffffffffffffffffff16600e600083815260200190815260200160002060000160009054906101000a900473ffffffffffffffffffffffffffffffffffffffff1673ffffffffffffffffffffffffffffffffffffffff16141561100757600e600082815260200190815260200160002060020154915050611020565b808061101290612e99565b915050610f74565b50600090505b919050565b600d60009054906101000a900460ff1681565b600047905090565b60055481565b600c5481565b600e6020528060005260406000206000915090508060000160009054906101000a900473ffffffffffffffffffffffffffffffffffffffff16908060000160149054906101000a900460ff16908060010154908060020154908060030160009054906101000a900460ff16905085565b60065481565b600d60019054906101000a900460ff1681565b600260009054906101000a900473ffffffffffffffffffffffffffffffffffffffff1681565b60008054906101000a900473ffffffffffffffffffffffffffffffffffffffff1681565b600061112a33610f6c565b90506001600954131561124057600c544211156111d25761114961159d565b6001600e600060018461115c9190612c80565b815260200190815260200160002060030160006101000a81548160ff021916908315150217905550600a600081548092919061119790612ee2565b9190505550600554600a5414156111cd5742600b8190555060b4600b546111be9190612a78565b600c819055506111cc6116fd565b5b61123b565b600c5442111580156111f257506078600c546111ee9190612d14565b4210155b611231576040517f08c379a0000000000000000000000000000000000000000000000000000000008152600401611228906127c2565b60405180910390fd5b61123a81611a3a565b5b611256565b600160095414156112555761125481611a3a565b5b5b50565b600460009054906101000a900473ffffffffffffffffffffffffffffffffffffffff1681565b600f6020528060005260406000206000915054906101000a900460ff1681565b60008054906101000a900473ffffffffffffffffffffffffffffffffffffffff1673ffffffffffffffffffffffffffffffffffffffff163373ffffffffffffffffffffffffffffffffffffffff161461132d576040517f08c379a0000000000000000000000000000000000000000000000000000000008152600401611324906127a2565b60405180910390fd5b670de0b6b3a7640000851215611378576040517f08c379a000000000000000000000000000000000000000000000000000000000815260040161136f90612762565b60405180910390fd5b6003861215801561138a5750600d8613155b80156113a2575060016002876113a09190612f2b565b145b6113e1576040517f08c379a00000000000000000000000000000000000000000000000000000000081526004016113d890612782565b60405180910390fd5b86600160006101000a81548173ffffffffffffffffffffffffffffffffffffffff021916908373ffffffffffffffffffffffffffffffffffffffff16021790555082600260006101000a81548173ffffffffffffffffffffffffffffffffffffffff021916908373ffffffffffffffffffffffffffffffffffffffff16021790555081600360006101000a81548173ffffffffffffffffffffffffffffffffffffffff021916908373ffffffffffffffffffffffffffffffffffffffff16021790555080600460006101000a81548173ffffffffffffffffffffffffffffffffffffffff021916908373ffffffffffffffffffffffffffffffffffffffff16021790555085600581905550846006819055508360079080519060200190611509929190611dd3565b5085856115169190612ace565b60088190555060016009819055506000600a819055506001600d60006101000a81548160ff0219169083151502179055506000600d60016101000a81548160ff02191690831515021790555050505050505050565b600160009054906101000a900473ffffffffffffffffffffffffffffffffffffffff1681565b60085481565b600b5481565b600080600260009054906101000a900473ffffffffffffffffffffffffffffffffffffffff1673ffffffffffffffffffffffffffffffffffffffff166127106008546115e99190612b38565b6040516024016040516020818303038152906040527fa6f2ae3a000000000000000000000000000000000000000000000000000000007bffffffffffffffffffffffffffffffffffffffffffffffffffffffff19166020820180517bffffffffffffffffffffffffffffffffffffffffffffffffffffffff838183161783525050505060405161167991906124ed565b60006040518083038185875af1925050503d80600081146116b6576040519150601f19603f3d011682016040523d82523d6000602084013e6116bb565b606091505b50915091507f5721e6559c8de1c1f387af1634e9f30eced11790cfa1ff2b9faa65a3ed3e904f82826040516116f1929190612638565b60405180910390a15050565b600160009054906101000a900473ffffffffffffffffffffffffffffffffffffffff1673ffffffffffffffffffffffffffffffffffffffff1663a9059cbb600e6000600160095461174e9190612c80565b815260200190815260200160002060000160009054906101000a900473ffffffffffffffffffffffffffffffffffffffff166064600e600060016009546117959190612c80565b81526020019081526020016000206001015460646117b391906129e4565b6006546117c09190612b69565b6117ca9190612ace565b6040518363ffffffff1660e01b81526004016117e7929190612572565b602060405180830381600087803b15801561180157600080fd5b505af1158015611815573d6000803e3d6000fd5b505050506040513d601f19601f820116820180604052508101906118399190612025565b506009600081548092919061184d90612e99565b91905055506000600a8190555060005b6005548112156118a9576000600e600083815260200190815260200160002060030160006101000a81548160ff02191690831515021790555080806118a190612e99565b91505061185d565b5060055460016009546118bc9190612c80565b1415611a38576000600d60006101000a81548160ff021916908315150217905550600080600460009054906101000a900473ffffffffffffffffffffffffffffffffffffffff1673ffffffffffffffffffffffffffffffffffffffff16600760405160240161192b91906126c0565b6040516020818303038152906040527f7ed27afa000000000000000000000000000000000000000000000000000000007bffffffffffffffffffffffffffffffffffffffffffffffffffffffff19166020820180517bffffffffffffffffffffffffffffffffffffffffffffffffffffffff83818316178352505050506040516119b591906124ed565b6000604051808303816000865af19150503d80600081146119f2576040519150601f19603f3d011682016040523d82523d6000602084013e6119f7565b606091505b50915091507f2dbb38a6a943c4f61dfa90dcee112197adad60b0992c0f863ebe6f9bb30771ab8282604051611a2d929190612638565b60405180910390a150505b565b60011515600e6000600184611a4f9190612c80565b815260200190815260200160002060000160149054906101000a900460ff16151514611ab0576040517f08c379a0000000000000000000000000000000000000000000000000000000008152600401611aa790612862565b60405180910390fd5b60001515600e6000600184611ac59190612c80565b815260200190815260200160002060030160009054906101000a900460ff16151514611b26576040517f08c379a0000000000000000000000000000000000000000000000000000000008152600401611b1d906128a2565b60405180910390fd5b6000600160009054906101000a900473ffffffffffffffffffffffffffffffffffffffff1673ffffffffffffffffffffffffffffffffffffffff1663dd62ed3e33306040518363ffffffff1660e01b8152600401611b8592919061259b565b60206040518083038186803b158015611b9d57600080fd5b505afa158015611bb1573d6000803e3d6000fd5b505050506040513d601f19601f82011682018060405250810190611bd5919061207f565b9050600854811015611c1c576040517f08c379a0000000000000000000000000000000000000000000000000000000008152600401611c13906127e2565b60405180910390fd5b600160009054906101000a900473ffffffffffffffffffffffffffffffffffffffff1673ffffffffffffffffffffffffffffffffffffffff166323b872dd33306008546040518463ffffffff1660e01b8152600401611c7d939291906125c4565b602060405180830381600087803b158015611c9757600080fd5b505af1158015611cab573d6000803e3d6000fd5b505050506040513d601f19601f82011682018060405250810190611ccf9190612025565b50611cd8611d7b565b6001600e6000600185611ceb9190612c80565b815260200190815260200160002060030160006101000a81548160ff021916908315150217905550600a6000815480929190611d2690612ee2565b9190505550600554600a541415611d77576001600d60016101000a81548160ff02191690831515021790555042600b8190555060b4600b54611d689190612a78565b600c81905550611d766116fd565b5b5050565b3373ffffffffffffffffffffffffffffffffffffffff166108fc612710600854611da59190612b38565b9081150290604051600060405180830381858888f19350505050158015611dd0573d6000803e3d6000fd5b50565b828054611ddf90612e36565b90600052602060002090601f016020900481019282611e015760008555611e48565b82601f10611e1a57805160ff1916838001178555611e48565b82800160010185558215611e48579182015b82811115611e47578251825591602001919060010190611e2c565b5b509050611e559190611e59565b5090565b5b80821115611e72576000816000905550600101611e5a565b5090565b6000611e89611e8484612922565b6128fd565b905082815260208101848484011115611ea557611ea461304c565b5b611eb0848285612df4565b509392505050565b600081359050611ec7816133ba565b92915050565b600081519050611edc816133d1565b92915050565b600081359050611ef1816133e8565b92915050565b600082601f830112611f0c57611f0b613047565b5b8135611f1c848260208601611e76565b91505092915050565b600081519050611f34816133ff565b92915050565b600060208284031215611f5057611f4f613056565b5b6000611f5e84828501611eb8565b91505092915050565b600080600080600080600060e0888a031215611f8657611f85613056565b5b6000611f948a828b01611eb8565b9750506020611fa58a828b01611ee2565b9650506040611fb68a828b01611ee2565b955050606088013567ffffffffffffffff811115611fd757611fd6613051565b5b611fe38a828b01611ef7565b9450506080611ff48a828b01611eb8565b93505060a06120058a828b01611eb8565b92505060c06120168a828b01611eb8565b91505092959891949750929550565b60006020828403121561203b5761203a613056565b5b600061204984828501611ecd565b91505092915050565b60006020828403121561206857612067613056565b5b600061207684828501611ee2565b91505092915050565b60006020828403121561209557612094613056565b5b60006120a384828501611f25565b91505092915050565b60006120b883836124cf565b60208301905092915050565b6120cd81612dac565b82525050565b6120dc81612d5a565b82525050565b6120eb81612d48565b82525050565b60006120fc82612978565b61210681856129a6565b935061211183612953565b8060005b8381101561214257815161212988826120ac565b975061213483612999565b925050600181019050612115565b5085935050505092915050565b61215881612d6c565b82525050565b600061216982612983565b61217381856129b7565b9350612183818560208601612e03565b61218c8161305b565b840191505092915050565b60006121a282612983565b6121ac81856129c8565b93506121bc818560208601612e03565b80840191505092915050565b6121d181612dbe565b82525050565b6121e081612d78565b82525050565b60006121f18261298e565b6121fb81856129d3565b935061220b818560208601612e03565b6122148161305b565b840191505092915050565b6000815461222c81612e36565b61223681866129d3565b94506001821660008114612251576001811461226357612296565b60ff1983168652602086019350612296565b61226c85612963565b60005b8381101561228e5781548189015260018201915060208101905061226f565b808801955050505b50505092915050565b60006122ac600a836129d3565b91506122b78261306c565b602082019050919050565b60006122cf6031836129d3565b91506122da82613095565b604082019050919050565b60006122f2602d836129d3565b91506122fd826130e4565b604082019050919050565b60006123156013836129d3565b915061232082613133565b602082019050919050565b60006123386014836129d3565b91506123438261315c565b602082019050919050565b600061235b6033836129d3565b915061236682613185565b604082019050919050565b600061237e600e836129d3565b9150612389826131d4565b602082019050919050565b60006123a1601c836129d3565b91506123ac826131fd565b602082019050919050565b60006123c46019836129d3565b91506123cf82613226565b602082019050919050565b60006123e7600d836129d3565b91506123f28261324f565b602082019050919050565b600061240a6025836129d3565b915061241582613278565b604082019050919050565b600061242d6013836129d3565b9150612438826132c7565b602082019050919050565b6000612450601f836129d3565b915061245b826132f0565b602082019050919050565b6000612473600e836129d3565b915061247e82613319565b602082019050919050565b60006124966021836129d3565b91506124a182613342565b604082019050919050565b60006124b96019836129d3565b91506124c482613391565b602082019050919050565b6124d881612da2565b82525050565b6124e781612da2565b82525050565b60006124f98284612197565b915081905092915050565b600060208201905061251960008301846120e2565b92915050565b600060a08201905061253460008301886120d3565b612541602083018761214f565b61254e60408301866121d7565b61255b60608301856121d7565b612568608083018461214f565b9695505050505050565b600060408201905061258760008301856120c4565b61259460208301846124de565b9392505050565b60006040820190506125b060008301856120e2565b6125bd60208301846120e2565b9392505050565b60006060820190506125d960008301866120e2565b6125e660208301856120e2565b6125f360408301846124de565b949350505050565b6000602082019050818103600083015261261581846120f1565b905092915050565b6000602082019050612632600083018461214f565b92915050565b600060408201905061264d600083018561214f565b818103602083015261265f818461215e565b90509392505050565b600060208201905061267d60008301846121c8565b92915050565b600060208201905061269860008301846121d7565b92915050565b600060208201905081810360008301526126b881846121e6565b905092915050565b600060208201905081810360008301526126da818461221f565b905092915050565b600060208201905081810360008301526126fb8161229f565b9050919050565b6000602082019050818103600083015261271b816122c2565b9050919050565b6000602082019050818103600083015261273b816122e5565b9050919050565b6000602082019050818103600083015261275b81612308565b9050919050565b6000602082019050818103600083015261277b8161232b565b9050919050565b6000602082019050818103600083015261279b8161234e565b9050919050565b600060208201905081810360008301526127bb81612371565b9050919050565b600060208201905081810360008301526127db81612394565b9050919050565b600060208201905081810360008301526127fb816123b7565b9050919050565b6000602082019050818103600083015261281b816123da565b9050919050565b6000602082019050818103600083015261283b816123fd565b9050919050565b6000602082019050818103600083015261285b81612420565b9050919050565b6000602082019050818103600083015261287b81612443565b9050919050565b6000602082019050818103600083015261289b81612466565b9050919050565b600060208201905081810360008301526128bb81612489565b9050919050565b600060208201905081810360008301526128db816124ac565b9050919050565b60006020820190506128f760008301846124de565b92915050565b6000612907612918565b90506129138282612e68565b919050565b6000604051905090565b600067ffffffffffffffff82111561293d5761293c613018565b5b6129468261305b565b9050602081019050919050565b6000819050602082019050919050565b60008190508160005260206000209050919050565b600081519050919050565b600081519050919050565b600081519050919050565b6000602082019050919050565b600082825260208201905092915050565b600082825260208201905092915050565b600081905092915050565b600082825260208201905092915050565b60006129ef82612d78565b91506129fa83612d78565b9250817f7fffffffffffffffffffffffffffffffffffffffffffffffffffffffffffffff03831360008312151615612a3557612a34612f5c565b5b817f8000000000000000000000000000000000000000000000000000000000000000038312600083121615612a6d57612a6c612f5c565b5b828201905092915050565b6000612a8382612da2565b9150612a8e83612da2565b9250827fffffffffffffffffffffffffffffffffffffffffffffffffffffffffffffffff03821115612ac357612ac2612f5c565b5b828201905092915050565b6000612ad982612d78565b9150612ae483612d78565b925082612af457612af3612f8b565b5b600160000383147f800000000000000000000000000000000000000000000000000000000000000083141615612b2d57612b2c612f5c565b5b828205905092915050565b6000612b4382612da2565b9150612b4e83612da2565b925082612b5e57612b5d612f8b565b5b828204905092915050565b6000612b7482612d78565b9150612b7f83612d78565b9250827f7fffffffffffffffffffffffffffffffffffffffffffffffffffffffffffffff0482116000841360008413161615612bbe57612bbd612f5c565b5b817f80000000000000000000000000000000000000000000000000000000000000000583126000841260008413161615612bfb57612bfa612f5c565b5b827f80000000000000000000000000000000000000000000000000000000000000000582126000841360008412161615612c3857612c37612f5c565b5b827f7fffffffffffffffffffffffffffffffffffffffffffffffffffffffffffffff0582126000841260008412161615612c7557612c74612f5c565b5b828202905092915050565b6000612c8b82612d78565b9150612c9683612d78565b9250827f800000000000000000000000000000000000000000000000000000000000000001821260008412151615612cd157612cd0612f5c565b5b827f7fffffffffffffffffffffffffffffffffffffffffffffffffffffffffffffff018213600084121615612d0957612d08612f5c565b5b828203905092915050565b6000612d1f82612da2565b9150612d2a83612da2565b925082821015612d3d57612d3c612f5c565b5b828203905092915050565b6000612d5382612d82565b9050919050565b6000612d6582612d82565b9050919050565b60008115159050919050565b6000819050919050565b600073ffffffffffffffffffffffffffffffffffffffff82169050919050565b6000819050919050565b6000612db782612dd0565b9050919050565b6000612dc982612dd0565b9050919050565b6000612ddb82612de2565b9050919050565b6000612ded82612d82565b9050919050565b82818337600083830152505050565b60005b83811015612e21578082015181840152602081019050612e06565b83811115612e30576000848401525b50505050565b60006002820490506001821680612e4e57607f821691505b60208210811415612e6257612e61612fba565b5b50919050565b612e718261305b565b810181811067ffffffffffffffff82111715612e9057612e8f613018565b5b80604052505050565b6000612ea482612d78565b91507f7fffffffffffffffffffffffffffffffffffffffffffffffffffffffffffffff821415612ed757612ed6612f5c565b5b600182019050919050565b6000612eed82612da2565b91507fffffffffffffffffffffffffffffffffffffffffffffffffffffffffffffffff821415612f2057612f1f612f5c565b5b600182019050919050565b6000612f3682612d78565b9150612f4183612d78565b925082612f5157612f50612f8b565b5b828207905092915050565b7f4e487b7100000000000000000000000000000000000000000000000000000000600052601160045260246000fd5b7f4e487b7100000000000000000000000000000000000000000000000000000000600052601260045260246000fd5b7f4e487b7100000000000000000000000000000000000000000000000000000000600052602260045260246000fd5b7f4e487b7100000000000000000000000000000000000000000000000000000000600052603260045260246000fd5b7f4e487b7100000000000000000000000000000000000000000000000000000000600052604160045260246000fd5b600080fd5b600080fd5b600080fd5b600080fd5b6000601f19601f8301169050919050565b7f46756c6c20556e696f6e00000000000000000000000000000000000000000000600082015250565b7f4f72646572206d75737420626967676572207468616e203020616e64206c657360008201527f73207468616e206d61782070656f706c65000000000000000000000000000000602082015250565b7f70617274696369706174696e672061646472657373206d757374206d6174636860008201527f65732077697468206f7264657200000000000000000000000000000000000000602082015250565b7f416c7265616479206578697374206f7264657200000000000000000000000000600082015250565b7f6d696e696d756d20616d6f756e743a2031204355000000000000000000000000600082015250565b7f6d696e696d756d2070656f706c653a20332026206d61782070656f706c653a2060008201527f31332c206f6e6c79206f6464206e756d62657200000000000000000000000000602082015250565b7f4e6f7420417574686f72697a6564000000000000000000000000000000000000600082015250565b7f596f752063616e206465706f73697420657861637420706572696f6400000000600082015250565b7f436865636b2074686520746f6b656e20616c6c6f77616e636500000000000000600082015250565b7f4e6f7420796f7572207475726e00000000000000000000000000000000000000600082015250565b7f657468657227732076616c7565206973206d75737420657175616c204355206160008201527f6d6f756e74000000000000000000000000000000000000000000000000000000602082015250565b7f416c726561647920706172746963697061746500000000000000000000000000600082015250565b7f506c65617365206465706f73697420636f6c6c61746572616c20666972737400600082015250565b7f5965742072656365697665204355000000000000000000000000000000000000600082015250565b7f596f7520616c7265616479206465706f73697420696e207468697320726f756e60008201527f6400000000000000000000000000000000000000000000000000000000000000602082015250565b7f416c7265616479207375626d697420636f6c6c61746572616c00000000000000600082015250565b6133c381612d48565b81146133ce57600080fd5b50565b6133da81612d6c565b81146133e557600080fd5b50565b6133f181612d78565b81146133fc57600080fd5b50565b61340881612da2565b811461341357600080fd5b5056fea264697066735822122003994235ea927e13e68e5b9c96b0aeb1330dd58c21ffa43a607cdccb73b0a3ee64736f6c63430008070033a264697066735822122034d101ba0422c36237aa7c6925e3ba40a604d1fd79f74324e90bee948142db7364736f6c63430008070033",
  "linkReferences": {},
  "deployedLinkReferences": {}
}