{
  "_format": "hh-sol-artifact-1",
  "contractName": "UserParticipationList",
  "sourceName": "contracts/UserParticipationList.sol",
  "abi": [
    {
      "inputs": [],
      "stateMutability": "nonpayable",
      "type": "constructor"
    },
    {
      "inputs": [
        {
          "internalType": "address",
          "name": "user",
          "type": "address"
        },
        {
          "internalType": "address",
          "name": "union",
          "type": "address"
        }
      ],
      "name": "add",
      "outputs": [],
      "stateMutability": "nonpayable",
      "type": "function"
    },
    {
      "inputs": [
        {
          "internalType": "address",
          "name": "user",
          "type": "address"
        },
        {
          "internalType": "address",
          "name": "union",
          "type": "address"
        }
      ],
      "name": "exit",
      "outputs": [],
      "stateMutability": "nonpayable",
      "type": "function"
    },
    {
      "inputs": [
        {
          "internalType": "address",
          "name": "user",
          "type": "address"
        }
      ],
      "name": "get",
      "outputs": [
        {
          "internalType": "address[]",
          "name": "union",
          "type": "address[]"
        }
      ],
      "stateMutability": "view",
      "type": "function"
    },
    {
      "inputs": [
        {
          "internalType": "address",
          "name": "",
          "type": "address"
        },
        {
          "internalType": "uint256",
          "name": "",
          "type": "uint256"
        }
      ],
      "name": "getJoinUnion",
      "outputs": [
        {
          "internalType": "address",
          "name": "",
          "type": "address"
        }
      ],
      "stateMutability": "view",
      "type": "function"
    }
  ],
  "bytecode": "0x608060405234801561001057600080fd5b506109bd806100206000396000f3fe608060405234801561001057600080fd5b506004361061004c5760003560e01c80632558fde51461005157806352c28fab14610081578063a625403a1461009d578063c2bc2efc146100b9575b600080fd5b61006b6004803603810190610066919061066e565b6100e9565b6040516100789190610742565b60405180910390f35b61009b6004803603810190610096919061062e565b610137565b005b6100b760048036038101906100b2919061062e565b6101da565b005b6100d360048036038101906100ce9190610601565b61050b565b6040516100e0919061075d565b60405180910390f35b6000602052816000526040600020818154811061010557600080fd5b906000526020600020016000915091509054906101000a900473ffffffffffffffffffffffffffffffffffffffff1681565b6000808373ffffffffffffffffffffffffffffffffffffffff1673ffffffffffffffffffffffffffffffffffffffff168152602001908152602001600020819080600181540180825580915050600190039060005260206000200160009091909190916101000a81548173ffffffffffffffffffffffffffffffffffffffff021916908373ffffffffffffffffffffffffffffffffffffffff1602179055505050565b600080600090505b6000808573ffffffffffffffffffffffffffffffffffffffff1673ffffffffffffffffffffffffffffffffffffffff168152602001908152602001600020805490508110156102f4578273ffffffffffffffffffffffffffffffffffffffff166000808673ffffffffffffffffffffffffffffffffffffffff1673ffffffffffffffffffffffffffffffffffffffff168152602001908152602001600020828154811061029257610291610925565b5b9060005260206000200160009054906101000a900473ffffffffffffffffffffffffffffffffffffffff1673ffffffffffffffffffffffffffffffffffffffff1614156102e1578091506102f4565b80806102ec9061087e565b9150506101e2565b5060008190505b60016000808673ffffffffffffffffffffffffffffffffffffffff1673ffffffffffffffffffffffffffffffffffffffff16815260200190815260200160002080549050610349919061080e565b811015610482576000808573ffffffffffffffffffffffffffffffffffffffff1673ffffffffffffffffffffffffffffffffffffffff16815260200190815260200160002060018261039b91906107b8565b815481106103ac576103ab610925565b5b9060005260206000200160009054906101000a900473ffffffffffffffffffffffffffffffffffffffff166000808673ffffffffffffffffffffffffffffffffffffffff1673ffffffffffffffffffffffffffffffffffffffff168152602001908152602001600020828154811061042757610426610925565b5b9060005260206000200160006101000a81548173ffffffffffffffffffffffffffffffffffffffff021916908373ffffffffffffffffffffffffffffffffffffffff160217905550808061047a9061087e565b9150506102fb565b506000808473ffffffffffffffffffffffffffffffffffffffff1673ffffffffffffffffffffffffffffffffffffffff1681526020019081526020016000208054806104d1576104d06108f6565b5b6001900381819060005260206000200160006101000a81549073ffffffffffffffffffffffffffffffffffffffff02191690559055505050565b60606000808373ffffffffffffffffffffffffffffffffffffffff1673ffffffffffffffffffffffffffffffffffffffff1681526020019081526020016000208054806020026020016040519081016040528092919081815260200182805480156105cb57602002820191906000526020600020905b8160009054906101000a900473ffffffffffffffffffffffffffffffffffffffff1673ffffffffffffffffffffffffffffffffffffffff1681526020019060010190808311610581575b50505050509050919050565b6000813590506105e681610959565b92915050565b6000813590506105fb81610970565b92915050565b60006020828403121561061757610616610954565b5b6000610625848285016105d7565b91505092915050565b6000806040838503121561064557610644610954565b5b6000610653858286016105d7565b9250506020610664858286016105d7565b9150509250929050565b6000806040838503121561068557610684610954565b5b6000610693858286016105d7565b92505060206106a4858286016105ec565b9150509250929050565b60006106ba83836106c6565b60208301905092915050565b6106cf81610842565b82525050565b6106de81610842565b82525050565b60006106ef8261078f565b6106f981856107a7565b93506107048361077f565b8060005b8381101561073557815161071c88826106ae565b97506107278361079a565b925050600181019050610708565b5085935050505092915050565b600060208201905061075760008301846106d5565b92915050565b6000602082019050818103600083015261077781846106e4565b905092915050565b6000819050602082019050919050565b600081519050919050565b6000602082019050919050565b600082825260208201905092915050565b60006107c382610874565b91506107ce83610874565b9250827fffffffffffffffffffffffffffffffffffffffffffffffffffffffffffffffff03821115610803576108026108c7565b5b828201905092915050565b600061081982610874565b915061082483610874565b925082821015610837576108366108c7565b5b828203905092915050565b600061084d82610854565b9050919050565b600073ffffffffffffffffffffffffffffffffffffffff82169050919050565b6000819050919050565b600061088982610874565b91507fffffffffffffffffffffffffffffffffffffffffffffffffffffffffffffffff8214156108bc576108bb6108c7565b5b600182019050919050565b7f4e487b7100000000000000000000000000000000000000000000000000000000600052601160045260246000fd5b7f4e487b7100000000000000000000000000000000000000000000000000000000600052603160045260246000fd5b7f4e487b7100000000000000000000000000000000000000000000000000000000600052603260045260246000fd5b600080fd5b61096281610842565b811461096d57600080fd5b50565b61097981610874565b811461098457600080fd5b5056fea2646970667358221220b7c843f70c6cb84e8373a8c2fac461cb4f5f0d904a254c44cf3e6eb1f95c4bf564736f6c63430008070033",
  "linkReferences": {},
  "deployedLinkReferences": {}
}