{
  "_format": "hh-sol-artifact-1",
  "contractName": "UserParticipationList",
  "sourceName": "contracts/UserParticipationList.sol",
  "abi": [
    {
      "inputs": [],
      "stateMutability": "nonpayable",
      "type": "constructor"
    },
    {
      "inputs": [
        {
          "internalType": "address",
          "name": "user",
          "type": "address"
        },
        {
          "internalType": "address",
          "name": "union",
          "type": "address"
        }
      ],
      "name": "add",
      "outputs": [],
      "stateMutability": "nonpayable",
      "type": "function"
    },
    {
      "inputs": [
        {
          "internalType": "address",
          "name": "user",
          "type": "address"
        }
      ],
      "name": "get",
      "outputs": [
        {
          "internalType": "address[]",
          "name": "union",
          "type": "address[]"
        }
      ],
      "stateMutability": "view",
      "type": "function"
    },
    {
      "inputs": [
        {
          "internalType": "address",
          "name": "",
          "type": "address"
        },
        {
          "internalType": "uint256",
          "name": "",
          "type": "uint256"
        }
      ],
      "name": "getJoinUnion",
      "outputs": [
        {
          "internalType": "address",
          "name": "",
          "type": "address"
        }
      ],
      "stateMutability": "view",
      "type": "function"
    }
  ],
  "bytecode": "0x608060405234801561001057600080fd5b50610505806100206000396000f3fe608060405234801561001057600080fd5b50600436106100415760003560e01c80632558fde51461004657806352c28fab14610076578063c2bc2efc14610092575b600080fd5b610060600480360381019061005b9190610316565b6100c2565b60405161006d91906103ea565b60405180910390f35b610090600480360381019061008b91906102d6565b610110565b005b6100ac60048036038101906100a791906102a9565b6101b3565b6040516100b99190610405565b60405180910390f35b600060205281600052604060002081815481106100de57600080fd5b906000526020600020016000915091509054906101000a900473ffffffffffffffffffffffffffffffffffffffff1681565b6000808373ffffffffffffffffffffffffffffffffffffffff1673ffffffffffffffffffffffffffffffffffffffff168152602001908152602001600020819080600181540180825580915050600190039060005260206000200160009091909190916101000a81548173ffffffffffffffffffffffffffffffffffffffff021916908373ffffffffffffffffffffffffffffffffffffffff1602179055505050565b60606000808373ffffffffffffffffffffffffffffffffffffffff1673ffffffffffffffffffffffffffffffffffffffff16815260200190815260200160002080548060200260200160405190810160405280929190818152602001828054801561027357602002820191906000526020600020905b8160009054906101000a900473ffffffffffffffffffffffffffffffffffffffff1673ffffffffffffffffffffffffffffffffffffffff1681526020019060010190808311610229575b50505050509050919050565b60008135905061028e816104a1565b92915050565b6000813590506102a3816104b8565b92915050565b6000602082840312156102bf576102be61049c565b5b60006102cd8482850161027f565b91505092915050565b600080604083850312156102ed576102ec61049c565b5b60006102fb8582860161027f565b925050602061030c8582860161027f565b9150509250929050565b6000806040838503121561032d5761032c61049c565b5b600061033b8582860161027f565b925050602061034c85828601610294565b9150509250929050565b6000610362838361036e565b60208301905092915050565b61037781610460565b82525050565b61038681610460565b82525050565b600061039782610437565b6103a1818561044f565b93506103ac83610427565b8060005b838110156103dd5781516103c48882610356565b97506103cf83610442565b9250506001810190506103b0565b5085935050505092915050565b60006020820190506103ff600083018461037d565b92915050565b6000602082019050818103600083015261041f818461038c565b905092915050565b6000819050602082019050919050565b600081519050919050565b6000602082019050919050565b600082825260208201905092915050565b600061046b82610472565b9050919050565b600073ffffffffffffffffffffffffffffffffffffffff82169050919050565b6000819050919050565b600080fd5b6104aa81610460565b81146104b557600080fd5b50565b6104c181610492565b81146104cc57600080fd5b5056fea26469706673582212202f26c45447386cd5e04027d2ecde4937cd4bdf43a05b13a1f9c72bc5f75a339164736f6c63430008070033",
  "linkReferences": {},
  "deployedLinkReferences": {}
}