{
  "_format": "hh-sol-artifact-1",
  "contractName": "CUTokenSwap",
  "sourceName": "contracts/CUTokenSwap.sol",
  "abi": [
    {
      "inputs": [
        {
          "internalType": "address",
          "name": "_token",
          "type": "address"
        }
      ],
      "stateMutability": "nonpayable",
      "type": "constructor"
    },
    {
      "anonymous": false,
      "inputs": [
        {
          "indexed": false,
          "internalType": "uint256",
          "name": "amount",
          "type": "uint256"
        }
      ],
      "name": "Bought",
      "type": "event"
    },
    {
      "anonymous": false,
      "inputs": [
        {
          "indexed": false,
          "internalType": "uint256",
          "name": "amount",
          "type": "uint256"
        }
      ],
      "name": "Sold",
      "type": "event"
    },
    {
      "inputs": [],
      "name": "balanceOf",
      "outputs": [
        {
          "internalType": "uint256",
          "name": "",
          "type": "uint256"
        }
      ],
      "stateMutability": "view",
      "type": "function"
    },
    {
      "inputs": [],
      "name": "buy",
      "outputs": [],
      "stateMutability": "payable",
      "type": "function"
    },
    {
      "inputs": [
        {
          "internalType": "uint256",
          "name": "amount",
          "type": "uint256"
        }
      ],
      "name": "sell",
      "outputs": [],
      "stateMutability": "nonpayable",
      "type": "function"
    },
    {
      "inputs": [],
      "name": "token",
      "outputs": [
        {
          "internalType": "contract ERC20",
          "name": "",
          "type": "address"
        }
      ],
      "stateMutability": "view",
      "type": "function"
    },
    {
      "stateMutability": "payable",
      "type": "receive"
    }
  ],
  "bytecode": "0x60806040524760015534801561001457600080fd5b50604051610c2c380380610c2c83398181016040528101906100369190610091565b806000806101000a81548173ffffffffffffffffffffffffffffffffffffffff021916908373ffffffffffffffffffffffffffffffffffffffff1602179055505061010c565b60008151905061008b816100f5565b92915050565b6000602082840312156100a7576100a66100f0565b5b60006100b58482850161007c565b91505092915050565b60006100c9826100d0565b9050919050565b600073ffffffffffffffffffffffffffffffffffffffff82169050919050565b600080fd5b6100fe816100be565b811461010957600080fd5b50565b610b118061011b6000396000f3fe6080604052600436106100435760003560e01c8063722713f71461004f578063a6f2ae3a1461007a578063e4849b3214610084578063fc0c546a146100ad5761004a565b3661004a57005b600080fd5b34801561005b57600080fd5b506100646100d8565b6040516100719190610871565b60405180910390f35b6100826100e0565b005b34801561009057600080fd5b506100ab60048036038101906100a6919061061f565b610314565b005b3480156100b957600080fd5b506100c261058f565b6040516100cf91906107d6565b60405180910390f35b600047905090565b600034905060008060009054906101000a900473ffffffffffffffffffffffffffffffffffffffff1673ffffffffffffffffffffffffffffffffffffffff166370a08231306040518263ffffffff1660e01b81526004016101419190610732565b60206040518083038186803b15801561015957600080fd5b505afa15801561016d573d6000803e3d6000fd5b505050506040513d601f19601f82011682018060405250810190610191919061064c565b90506402540be4008210156101db576040517f08c379a00000000000000000000000000000000000000000000000000000000081526004016101d290610831565b60405180910390fd5b8082111561021e576040517f08c379a000000000000000000000000000000000000000000000000000000000815260040161021590610851565b60405180910390fd5b60008054906101000a900473ffffffffffffffffffffffffffffffffffffffff1673ffffffffffffffffffffffffffffffffffffffff1663a9059cbb336127108561026991906108ce565b6040518363ffffffff1660e01b81526004016102869291906107ad565b602060405180830381600087803b1580156102a057600080fd5b505af11580156102b4573d6000803e3d6000fd5b505050506040513d601f19601f820116820180604052508101906102d891906105f2565b507f4e08ba899977cf7d4c2964bce71c6b9a7ef76ee5166a4c1249a1e08016e33ef1826040516103089190610871565b60405180910390a15050565b655af3107a400081101561035d576040517f08c379a000000000000000000000000000000000000000000000000000000000815260040161035490610811565b60405180910390fd5b60008060009054906101000a900473ffffffffffffffffffffffffffffffffffffffff1673ffffffffffffffffffffffffffffffffffffffff1663dd62ed3e33306040518363ffffffff1660e01b81526004016103bb92919061074d565b60206040518083038186803b1580156103d357600080fd5b505afa1580156103e7573d6000803e3d6000fd5b505050506040513d601f19601f8201168201806040525081019061040b919061064c565b905081811015610450576040517f08c379a0000000000000000000000000000000000000000000000000000000008152600401610447906107f1565b60405180910390fd5b60008054906101000a900473ffffffffffffffffffffffffffffffffffffffff1673ffffffffffffffffffffffffffffffffffffffff166323b872dd3330856040518463ffffffff1660e01b81526004016104ad93929190610776565b602060405180830381600087803b1580156104c757600080fd5b505af11580156104db573d6000803e3d6000fd5b505050506040513d601f19601f820116820180604052508101906104ff91906105f2565b503373ffffffffffffffffffffffffffffffffffffffff166108fc61271084610528919061089d565b9081150290604051600060405180830381858888f19350505050158015610553573d6000803e3d6000fd5b507f92f64ca637d023f354075a4be751b169c1a8a9ccb6d33cdd0cb3520543995727826040516105839190610871565b60405180910390a15050565b60008054906101000a900473ffffffffffffffffffffffffffffffffffffffff1681565b6000815190506105c281610aad565b92915050565b6000813590506105d781610ac4565b92915050565b6000815190506105ec81610ac4565b92915050565b60006020828403121561060857610607610a04565b5b6000610616848285016105b3565b91505092915050565b60006020828403121561063557610634610a04565b5b6000610643848285016105c8565b91505092915050565b60006020828403121561066257610661610a04565b5b6000610670848285016105dd565b91505092915050565b61068281610928565b82525050565b61069181610970565b82525050565b60006106a460198361088c565b91506106af82610a09565b602082019050919050565b60006106c760198361088c565b91506106d282610a32565b602082019050919050565b60006106ea601e8361088c565b91506106f582610a5b565b602082019050919050565b600061070d60208361088c565b915061071882610a84565b602082019050919050565b61072c81610966565b82525050565b60006020820190506107476000830184610679565b92915050565b60006040820190506107626000830185610679565b61076f6020830184610679565b9392505050565b600060608201905061078b6000830186610679565b6107986020830185610679565b6107a56040830184610723565b949350505050565b60006040820190506107c26000830185610679565b6107cf6020830184610723565b9392505050565b60006020820190506107eb6000830184610688565b92915050565b6000602082019050818103600083015261080a81610697565b9050919050565b6000602082019050818103600083015261082a816106ba565b9050919050565b6000602082019050818103600083015261084a816106dd565b9050919050565b6000602082019050818103600083015261086a81610700565b9050919050565b60006020820190506108866000830184610723565b92915050565b600082825260208201905092915050565b60006108a882610966565b91506108b383610966565b9250826108c3576108c26109d5565b5b828204905092915050565b60006108d982610966565b91506108e483610966565b9250817fffffffffffffffffffffffffffffffffffffffffffffffffffffffffffffffff048311821515161561091d5761091c6109a6565b5b828202905092915050565b600061093382610946565b9050919050565b60008115159050919050565b600073ffffffffffffffffffffffffffffffffffffffff82169050919050565b6000819050919050565b600061097b82610982565b9050919050565b600061098d82610994565b9050919050565b600061099f82610946565b9050919050565b7f4e487b7100000000000000000000000000000000000000000000000000000000600052601160045260246000fd5b7f4e487b7100000000000000000000000000000000000000000000000000000000600052601260045260246000fd5b600080fd5b7f436865636b2074686520746f6b656e20616c6c6f77616e636500000000000000600082015250565b7f6d696e696d756d20616d6f756e743a20302e3030303120435500000000000000600082015250565b7f6d696e696d756d20616d6f756e743a20302e3030303030303031204554480000600082015250565b7f4e6f7420656e6f75676820746f6b656e7320696e207468652072657365727665600082015250565b610ab68161093a565b8114610ac157600080fd5b50565b610acd81610966565b8114610ad857600080fd5b5056fea2646970667358221220fa89c2526042ffab72535a5a95e2b5bcd009edfc4ff0c912ad940461cfc8c36464736f6c63430008070033",
  "linkReferences": {},
  "deployedLinkReferences": {}
}